{
	"contracts/HelloComrades.sol": {
		"HelloComrades": {
			"abi": [
				{
					"inputs": [
						{
							"internalType": "address",
							"name": "_Leader",
							"type": "address"
						}
					],
					"stateMutability": "nonpayable",
					"type": "constructor"
				},
				{
					"inputs": [
						{
							"internalType": "string",
							"name": "msg",
							"type": "string"
						}
					],
					"name": "MyError",
					"type": "error"
				},
				{
					"anonymous": false,
					"inputs": [
						{
							"indexed": false,
							"internalType": "string",
							"name": "tag",
							"type": "string"
						},
						{
							"indexed": false,
							"internalType": "address",
							"name": "from",
							"type": "address"
						},
						{
							"indexed": false,
							"internalType": "uint256",
							"name": "value",
							"type": "uint256"
						},
						{
							"indexed": false,
							"internalType": "bytes",
							"name": "data",
							"type": "bytes"
						}
					],
					"name": "Log",
					"type": "event"
				},
				{
					"anonymous": false,
					"inputs": [
						{
							"indexed": false,
							"internalType": "uint8",
							"name": "",
							"type": "uint8"
						}
					],
					"name": "Step",
					"type": "event"
				},
				{
					"stateMutability": "payable",
					"type": "fallback"
				},
				{
					"inputs": [
						{
							"internalType": "string",
							"name": "content",
							"type": "string"
						}
					],
					"name": "comfort",
					"outputs": [
						{
							"internalType": "bool",
							"name": "",
							"type": "bool"
						}
					],
					"stateMutability": "payable",
					"type": "function"
				},
				{
					"inputs": [
						{
							"internalType": "string",
							"name": "content",
							"type": "string"
						}
					],
					"name": "comfortRes",
					"outputs": [
						{
							"internalType": "bool",
							"name": "",
							"type": "bool"
						}
					],
					"stateMutability": "nonpayable",
					"type": "function"
				},
				{
					"inputs": [],
					"name": "destruct",
					"outputs": [
						{
							"internalType": "bool",
							"name": "",
							"type": "bool"
						}
					],
					"stateMutability": "nonpayable",
					"type": "function"
				},
				{
					"inputs": [],
					"name": "getBanlance",
					"outputs": [
						{
							"internalType": "uint256",
							"name": "",
							"type": "uint256"
						}
					],
					"stateMutability": "view",
					"type": "function"
				},
				{
					"inputs": [
						{
							"internalType": "string",
							"name": "content",
							"type": "string"
						}
					],
					"name": "hello",
					"outputs": [
						{
							"internalType": "bool",
							"name": "",
							"type": "bool"
						}
					],
					"stateMutability": "nonpayable",
					"type": "function"
				},
				{
					"inputs": [
						{
							"internalType": "string",
							"name": "content",
							"type": "string"
						}
					],
					"name": "helloRes",
					"outputs": [
						{
							"internalType": "bool",
							"name": "",
							"type": "bool"
						}
					],
					"stateMutability": "nonpayable",
					"type": "function"
				},
				{
					"inputs": [],
					"name": "leader",
					"outputs": [
						{
							"internalType": "address",
							"name": "",
							"type": "address"
						}
					],
					"stateMutability": "view",
					"type": "function"
				},
				{
					"inputs": [],
					"name": "step",
					"outputs": [
						{
							"internalType": "uint8",
							"name": "",
							"type": "uint8"
						}
					],
					"stateMutability": "view",
					"type": "function"
				},
				{
					"stateMutability": "payable",
					"type": "receive"
				}
			],
			"devdoc": {
				"author": "Anbang",
				"custom:experimental": "这是",
				"details": "本章主要内容的实战练习",
				"errors": {
					"MyError(string)": [
						{
							"details": "用于所有未知错误 This is a message des info.需要上方空一行，才可以显示出来"
						}
					]
				},
				"events": {
					"Log(string,address,uint256,bytes)": {
						"details": "只要发生金额修改，都需要抛出此事件",
						"params": {
							"data": ": 当前调用的data内容",
							"from": ": 当前地址",
							"tag": ": 标记内容",
							"value": ": 当前发送金额"
						}
					},
					"Step(uint8)": {
						"details": "只要发生 step 修改，都需要抛出此事件",
						"params": {
							"": "当前修改的最新 step"
						}
					}
				},
				"kind": "dev",
				"methods": {
					"comfort(string)": {
						"details": "只能在 step 为 2 时调用，只能领导调用，并且只能说\"同志们辛苦了\",还需给钱",
						"params": {
							"content": ": 当前领导说的内容"
						},
						"returns": {
							"_0": "当前调用的状态，true 代表成功"
						}
					},
					"comfortRes(string)": {
						"details": "只能在 step 为 3 时调用，只能非领导调用，并且只能说\"为人民服务\"",
						"params": {
							"content": ": 当前同志们说的内容"
						},
						"returns": {
							"_0": "当前调用的状态，true 代表成功"
						}
					},
					"constructor": {
						"details": "用于领导地址的指定，后续不可修改"
					},
					"destruct()": {
						"details": "只能在 step 为 4 时调用，只能领导调用",
						"returns": {
							"_0": "当前调用的状态，true 代表成功"
						}
					},
					"getBanlance()": {
						"details": "一个获取当前合约金额的辅助函数",
						"returns": {
							"_0": "当前合约的余额"
						}
					},
					"hello(string)": {
						"details": "只能在 step 为 0 时调用，只能领导调用，并且只能说\"同志们好\"",
						"params": {
							"content": ": 当前领导说的内容"
						},
						"returns": {
							"_0": "当前调用的状态，true 代表成功"
						}
					},
					"helloRes(string)": {
						"details": "只能在 step 为 1 时调用，只能非领导调用，并且只能说\"领导好\"",
						"params": {
							"content": ": 当前同志们说的内容"
						},
						"returns": {
							"_0": "当前调用的状态，true 代表成功"
						}
					}
				},
				"stateVariables": {
					"leader": {
						"details": "不可变量，需要在构造函数内指定，以后就不能修改了",
						"return": "当前领导的地址",
						"returns": {
							"_0": "当前领导的地址"
						}
					},
					"step": {
						"details": "0:等待领导说\"同志们好\"，1:等待同志们说\"领导好\"，2:等待领导说\"同志们辛苦了\"3:等待同志们说\"为人民服务\"4:等待销毁。",
						"return": "当前进度",
						"returns": {
							"_0": "当前进度"
						}
					}
				},
				"title": "一个模拟同志们好的简单演示",
				"version": 1
			},
			"evm": {
				"assembly": "    /* \"contracts/HelloComrades.sol\":267:7296  contract HelloComrades {... */\n  mstore(0x40, 0xa0)\n    /* \"contracts/HelloComrades.sol\":751:752  0 */\n  0x00\n    /* \"contracts/HelloComrades.sol\":731:752  uint8 public step = 0 */\n  dup1\n  exp(0x0100, 0x00)\n  dup2\n  sload\n  dup2\n  0xff\n  mul\n  not\n  and\n  swap1\n  dup4\n  0xff\n  and\n  mul\n  or\n  swap1\n  sstore\n  pop\n    /* \"contracts/HelloComrades.sol\":2926:3045  constructor(address _Leader){... */\n  callvalue\n  dup1\n  iszero\n  tag_1\n  jumpi\n  0x00\n  dup1\n  revert\ntag_1:\n  pop\n  mload(0x40)\n  sub(codesize, bytecodeSize)\n  dup1\n  bytecodeSize\n  dup4\n  codecopy\n  dup2\n  dup2\n  add\n  0x40\n  mstore\n  dup2\n  add\n  swap1\n  tag_2\n  swap2\n  swap1\n  tag_3\n  jump\t// in\ntag_2:\n    /* \"contracts/HelloComrades.sol\":2991:2992  0 */\n  0x00\n    /* \"contracts/HelloComrades.sol\":2972:2993  _Leader != address(0) */\n  0xffffffffffffffffffffffffffffffffffffffff\n  and\n    /* \"contracts/HelloComrades.sol\":2972:2979  _Leader */\n  dup2\n    /* \"contracts/HelloComrades.sol\":2972:2993  _Leader != address(0) */\n  0xffffffffffffffffffffffffffffffffffffffff\n  and\n  sub\n    /* \"contracts/HelloComrades.sol\":2964:3012  require(_Leader != address(0),\"invalid address\") */\n  tag_6\n  jumpi\n  mload(0x40)\n  0x08c379a000000000000000000000000000000000000000000000000000000000\n  dup2\n  mstore\n  0x04\n  add\n  tag_7\n  swap1\n  tag_8\n  jump\t// in\ntag_7:\n  mload(0x40)\n  dup1\n  swap2\n  sub\n  swap1\n  revert\ntag_6:\n    /* \"contracts/HelloComrades.sol\":3031:3038  _Leader */\n  dup1\n    /* \"contracts/HelloComrades.sol\":3022:3038  leader = _Leader */\n  0xffffffffffffffffffffffffffffffffffffffff\n  and\n  0x80\n  dup2\n  0xffffffffffffffffffffffffffffffffffffffff\n  and\n  dup2\n  mstore\n  pop\n  pop\n    /* \"contracts/HelloComrades.sol\":2926:3045  constructor(address _Leader){... */\n  pop\n    /* \"contracts/HelloComrades.sol\":267:7296  contract HelloComrades {... */\n  jump(tag_9)\n    /* \"#utility.yul\":88:205   */\ntag_11:\n    /* \"#utility.yul\":197:198   */\n  0x00\n    /* \"#utility.yul\":194:195   */\n  dup1\n    /* \"#utility.yul\":187:199   */\n  revert\n    /* \"#utility.yul\":334:460   */\ntag_13:\n    /* \"#utility.yul\":371:378   */\n  0x00\n    /* \"#utility.yul\":411:453   */\n  0xffffffffffffffffffffffffffffffffffffffff\n    /* \"#utility.yul\":404:409   */\n  dup3\n    /* \"#utility.yul\":400:454   */\n  and\n    /* \"#utility.yul\":389:454   */\n  swap1\n  pop\n    /* \"#utility.yul\":334:460   */\n  swap2\n  swap1\n  pop\n  jump\t// out\n    /* \"#utility.yul\":466:562   */\ntag_14:\n    /* \"#utility.yul\":503:510   */\n  0x00\n    /* \"#utility.yul\":532:556   */\n  tag_26\n    /* \"#utility.yul\":550:555   */\n  dup3\n    /* \"#utility.yul\":532:556   */\n  tag_13\n  jump\t// in\ntag_26:\n    /* \"#utility.yul\":521:556   */\n  swap1\n  pop\n    /* \"#utility.yul\":466:562   */\n  swap2\n  swap1\n  pop\n  jump\t// out\n    /* \"#utility.yul\":568:690   */\ntag_15:\n    /* \"#utility.yul\":641:665   */\n  tag_28\n    /* \"#utility.yul\":659:664   */\n  dup2\n    /* \"#utility.yul\":641:665   */\n  tag_14\n  jump\t// in\ntag_28:\n    /* \"#utility.yul\":634:639   */\n  dup2\n    /* \"#utility.yul\":631:666   */\n  eq\n    /* \"#utility.yul\":621:684   */\n  tag_29\n  jumpi\n    /* \"#utility.yul\":680:681   */\n  0x00\n    /* \"#utility.yul\":677:678   */\n  dup1\n    /* \"#utility.yul\":670:682   */\n  revert\n    /* \"#utility.yul\":621:684   */\ntag_29:\n    /* \"#utility.yul\":568:690   */\n  pop\n  jump\t// out\n    /* \"#utility.yul\":696:839   */\ntag_16:\n    /* \"#utility.yul\":753:758   */\n  0x00\n    /* \"#utility.yul\":784:790   */\n  dup2\n    /* \"#utility.yul\":778:791   */\n  mload\n    /* \"#utility.yul\":769:791   */\n  swap1\n  pop\n    /* \"#utility.yul\":800:833   */\n  tag_31\n    /* \"#utility.yul\":827:832   */\n  dup2\n    /* \"#utility.yul\":800:833   */\n  tag_15\n  jump\t// in\ntag_31:\n    /* \"#utility.yul\":696:839   */\n  swap3\n  swap2\n  pop\n  pop\n  jump\t// out\n    /* \"#utility.yul\":845:1196   */\ntag_3:\n    /* \"#utility.yul\":915:921   */\n  0x00\n    /* \"#utility.yul\":964:966   */\n  0x20\n    /* \"#utility.yul\":952:961   */\n  dup3\n    /* \"#utility.yul\":943:950   */\n  dup5\n    /* \"#utility.yul\":939:962   */\n  sub\n    /* \"#utility.yul\":935:967   */\n  slt\n    /* \"#utility.yul\":932:1051   */\n  iszero\n  tag_33\n  jumpi\n    /* \"#utility.yul\":970:1049   */\n  tag_34\n  tag_11\n  jump\t// in\ntag_34:\n    /* \"#utility.yul\":932:1051   */\ntag_33:\n    /* \"#utility.yul\":1090:1091   */\n  0x00\n    /* \"#utility.yul\":1115:1179   */\n  tag_35\n    /* \"#utility.yul\":1171:1178   */\n  dup5\n    /* \"#utility.yul\":1162:1168   */\n  dup3\n    /* \"#utility.yul\":1151:1160   */\n  dup6\n    /* \"#utility.yul\":1147:1169   */\n  add\n    /* \"#utility.yul\":1115:1179   */\n  tag_16\n  jump\t// in\ntag_35:\n    /* \"#utility.yul\":1105:1179   */\n  swap2\n  pop\n    /* \"#utility.yul\":1061:1189   */\n  pop\n    /* \"#utility.yul\":845:1196   */\n  swap3\n  swap2\n  pop\n  pop\n  jump\t// out\n    /* \"#utility.yul\":1202:1371   */\ntag_17:\n    /* \"#utility.yul\":1286:1297   */\n  0x00\n    /* \"#utility.yul\":1320:1326   */\n  dup3\n    /* \"#utility.yul\":1315:1318   */\n  dup3\n    /* \"#utility.yul\":1308:1327   */\n  mstore\n    /* \"#utility.yul\":1360:1364   */\n  0x20\n    /* \"#utility.yul\":1355:1358   */\n  dup3\n    /* \"#utility.yul\":1351:1365   */\n  add\n    /* \"#utility.yul\":1336:1365   */\n  swap1\n  pop\n    /* \"#utility.yul\":1202:1371   */\n  swap3\n  swap2\n  pop\n  pop\n  jump\t// out\n    /* \"#utility.yul\":1377:1542   */\ntag_18:\n    /* \"#utility.yul\":1517:1534   */\n  0x696e76616c696420616464726573730000000000000000000000000000000000\n    /* \"#utility.yul\":1513:1514   */\n  0x00\n    /* \"#utility.yul\":1505:1511   */\n  dup3\n    /* \"#utility.yul\":1501:1515   */\n  add\n    /* \"#utility.yul\":1494:1535   */\n  mstore\n    /* \"#utility.yul\":1377:1542   */\n  pop\n  jump\t// out\n    /* \"#utility.yul\":1548:1914   */\ntag_19:\n    /* \"#utility.yul\":1690:1693   */\n  0x00\n    /* \"#utility.yul\":1711:1778   */\n  tag_39\n    /* \"#utility.yul\":1775:1777   */\n  0x0f\n    /* \"#utility.yul\":1770:1773   */\n  dup4\n    /* \"#utility.yul\":1711:1778   */\n  tag_17\n  jump\t// in\ntag_39:\n    /* \"#utility.yul\":1704:1778   */\n  swap2\n  pop\n    /* \"#utility.yul\":1787:1880   */\n  tag_40\n    /* \"#utility.yul\":1876:1879   */\n  dup3\n    /* \"#utility.yul\":1787:1880   */\n  tag_18\n  jump\t// in\ntag_40:\n    /* \"#utility.yul\":1905:1907   */\n  0x20\n    /* \"#utility.yul\":1900:1903   */\n  dup3\n    /* \"#utility.yul\":1896:1908   */\n  add\n    /* \"#utility.yul\":1889:1908   */\n  swap1\n  pop\n    /* \"#utility.yul\":1548:1914   */\n  swap2\n  swap1\n  pop\n  jump\t// out\n    /* \"#utility.yul\":1920:2339   */\ntag_8:\n    /* \"#utility.yul\":2086:2090   */\n  0x00\n    /* \"#utility.yul\":2124:2126   */\n  0x20\n    /* \"#utility.yul\":2113:2122   */\n  dup3\n    /* \"#utility.yul\":2109:2127   */\n  add\n    /* \"#utility.yul\":2101:2127   */\n  swap1\n  pop\n    /* \"#utility.yul\":2173:2182   */\n  dup2\n    /* \"#utility.yul\":2167:2171   */\n  dup2\n    /* \"#utility.yul\":2163:2183   */\n  sub\n    /* \"#utility.yul\":2159:2160   */\n  0x00\n    /* \"#utility.yul\":2148:2157   */\n  dup4\n    /* \"#utility.yul\":2144:2161   */\n  add\n    /* \"#utility.yul\":2137:2184   */\n  mstore\n    /* \"#utility.yul\":2201:2332   */\n  tag_42\n    /* \"#utility.yul\":2327:2331   */\n  dup2\n    /* \"#utility.yul\":2201:2332   */\n  tag_19\n  jump\t// in\ntag_42:\n    /* \"#utility.yul\":2193:2332   */\n  swap1\n  pop\n    /* \"#utility.yul\":1920:2339   */\n  swap2\n  swap1\n  pop\n  jump\t// out\n    /* \"contracts/HelloComrades.sol\":267:7296  contract HelloComrades {... */\ntag_9:\n  mload(0x80)\n  codecopy(0x00, dataOffset(sub_0), dataSize(sub_0))\n  0x00\n  assignImmutable(\"0xd2f8f61201b2b11a78d6e866abc9c3db2ae8631fa656bfe5cb53668255367afb\")\n  return(0x00, dataSize(sub_0))\nstop\n\nsub_0: assembly {\n        /* \"contracts/HelloComrades.sol\":267:7296  contract HelloComrades {... */\n      mstore(0x40, 0x80)\n      jumpi(tag_1, lt(calldatasize, 0x04))\n      shr(0xe0, calldataload(0x00))\n      dup1\n      0xa777d0dc\n      gt\n      tag_11\n      jumpi\n      dup1\n      0xa777d0dc\n      eq\n      tag_7\n      jumpi\n      dup1\n      0xd228d484\n      eq\n      tag_8\n      jumpi\n      dup1\n      0xe25fe175\n      eq\n      tag_9\n      jumpi\n      dup1\n      0xe3b49959\n      eq\n      tag_10\n      jumpi\n      jump(tag_2)\n    tag_11:\n      dup1\n      0x2b68b9c6\n      eq\n      tag_3\n      jumpi\n      dup1\n      0x40eedabb\n      eq\n      tag_4\n      jumpi\n      dup1\n      0x8ab9e66d\n      eq\n      tag_5\n      jumpi\n      dup1\n      0x8c85d679\n      eq\n      tag_6\n      jumpi\n      jump(tag_2)\n    tag_1:\n      jumpi(tag_2, calldatasize)\n        /* \"contracts/HelloComrades.sol\":6889:6927  Log(\"receive\",msg.sender,msg.value,\"\") */\n      0xf7f75251dee7d7fc22deac3247729ebe7c86541f35930bf10c2a4207479a3b6c\n        /* \"contracts/HelloComrades.sol\":6903:6913  msg.sender */\n      caller\n        /* \"contracts/HelloComrades.sol\":6914:6923  msg.value */\n      callvalue\n        /* \"contracts/HelloComrades.sol\":6889:6927  Log(\"receive\",msg.sender,msg.value,\"\") */\n      mload(0x40)\n      tag_14\n      swap3\n      swap2\n      swap1\n      tag_15\n      jump\t// in\n    tag_14:\n      mload(0x40)\n      dup1\n      swap2\n      sub\n      swap1\n      log1\n        /* \"contracts/HelloComrades.sol\":267:7296  contract HelloComrades {... */\n      stop\n    tag_2:\n        /* \"contracts/HelloComrades.sol\":6981:7029  Log(\"fallback\", msg.sender, msg.value, msg.data) */\n      0xf7f75251dee7d7fc22deac3247729ebe7c86541f35930bf10c2a4207479a3b6c\n        /* \"contracts/HelloComrades.sol\":6997:7007  msg.sender */\n      caller\n        /* \"contracts/HelloComrades.sol\":7009:7018  msg.value */\n      callvalue\n        /* \"contracts/HelloComrades.sol\":7020:7028  msg.data */\n      0x00\n      calldatasize\n        /* \"contracts/HelloComrades.sol\":6981:7029  Log(\"fallback\", msg.sender, msg.value, msg.data) */\n      mload(0x40)\n      tag_18\n      swap5\n      swap4\n      swap3\n      swap2\n      swap1\n      tag_19\n      jump\t// in\n    tag_18:\n      mload(0x40)\n      dup1\n      swap2\n      sub\n      swap1\n      log1\n        /* \"contracts/HelloComrades.sol\":267:7296  contract HelloComrades {... */\n      stop\n        /* \"contracts/HelloComrades.sol\":5985:6244  function destruct() external onlyLeader returns (bool){... */\n    tag_3:\n      callvalue\n      dup1\n      iszero\n      tag_20\n      jumpi\n      0x00\n      dup1\n      revert\n    tag_20:\n      pop\n      tag_21\n      tag_22\n      jump\t// in\n    tag_21:\n      mload(0x40)\n      tag_23\n      swap2\n      swap1\n      tag_24\n      jump\t// in\n    tag_23:\n      mload(0x40)\n      dup1\n      swap2\n      sub\n      swap1\n      return\n        /* \"contracts/HelloComrades.sol\":923:954  address public immutable leader */\n    tag_4:\n      callvalue\n      dup1\n      iszero\n      tag_25\n      jumpi\n      0x00\n      dup1\n      revert\n    tag_25:\n      pop\n      tag_26\n      tag_27\n      jump\t// in\n    tag_26:\n      mload(0x40)\n      tag_28\n      swap2\n      swap1\n      tag_29\n      jump\t// in\n    tag_28:\n      mload(0x40)\n      dup1\n      swap2\n      sub\n      swap1\n      return\n        /* \"contracts/HelloComrades.sol\":5469:5825  function comfortRes(string calldata content)... */\n    tag_5:\n      callvalue\n      dup1\n      iszero\n      tag_30\n      jumpi\n      0x00\n      dup1\n      revert\n    tag_30:\n      pop\n      tag_31\n      0x04\n      dup1\n      calldatasize\n      sub\n      dup2\n      add\n      swap1\n      tag_32\n      swap2\n      swap1\n      tag_33\n      jump\t// in\n    tag_32:\n      tag_34\n      jump\t// in\n    tag_31:\n      mload(0x40)\n      tag_35\n      swap2\n      swap1\n      tag_24\n      jump\t// in\n    tag_35:\n      mload(0x40)\n      dup1\n      swap2\n      sub\n      swap1\n      return\n        /* \"contracts/HelloComrades.sol\":4650:5199  function comfort(string calldata content)... */\n    tag_6:\n      tag_36\n      0x04\n      dup1\n      calldatasize\n      sub\n      dup2\n      add\n      swap1\n      tag_37\n      swap2\n      swap1\n      tag_33\n      jump\t// in\n    tag_37:\n      tag_38\n      jump\t// in\n    tag_36:\n      mload(0x40)\n      tag_39\n      swap2\n      swap1\n      tag_24\n      jump\t// in\n    tag_39:\n      mload(0x40)\n      dup1\n      swap2\n      sub\n      swap1\n      return\n        /* \"contracts/HelloComrades.sol\":3430:3767  function hello (string calldata content) external onlyLeader  returns (bool){... */\n    tag_7:\n      callvalue\n      dup1\n      iszero\n      tag_40\n      jumpi\n      0x00\n      dup1\n      revert\n    tag_40:\n      pop\n      tag_41\n      0x04\n      dup1\n      calldatasize\n      sub\n      dup2\n      add\n      swap1\n      tag_42\n      swap2\n      swap1\n      tag_33\n      jump\t// in\n    tag_42:\n      tag_43\n      jump\t// in\n    tag_41:\n      mload(0x40)\n      tag_44\n      swap2\n      swap1\n      tag_24\n      jump\t// in\n    tag_44:\n      mload(0x40)\n      dup1\n      swap2\n      sub\n      swap1\n      return\n        /* \"contracts/HelloComrades.sol\":7191:7290  function getBanlance() external view returns (uint256){... */\n    tag_8:\n      callvalue\n      dup1\n      iszero\n      tag_45\n      jumpi\n      0x00\n      dup1\n      revert\n    tag_45:\n      pop\n      tag_46\n      tag_47\n      jump\t// in\n    tag_46:\n      mload(0x40)\n      tag_48\n      swap2\n      swap1\n      tag_49\n      jump\t// in\n    tag_48:\n      mload(0x40)\n      dup1\n      swap2\n      sub\n      swap1\n      return\n        /* \"contracts/HelloComrades.sol\":731:752  uint8 public step = 0 */\n    tag_9:\n      callvalue\n      dup1\n      iszero\n      tag_50\n      jumpi\n      0x00\n      dup1\n      revert\n    tag_50:\n      pop\n      tag_51\n      tag_52\n      jump\t// in\n    tag_51:\n      mload(0x40)\n      tag_53\n      swap2\n      swap1\n      tag_54\n      jump\t// in\n    tag_53:\n      mload(0x40)\n      dup1\n      swap2\n      sub\n      swap1\n      return\n        /* \"contracts/HelloComrades.sol\":4025:4370  function helloRes(string calldata content)... */\n    tag_10:\n      callvalue\n      dup1\n      iszero\n      tag_55\n      jumpi\n      0x00\n      dup1\n      revert\n    tag_55:\n      pop\n      tag_56\n      0x04\n      dup1\n      calldatasize\n      sub\n      dup2\n      add\n      swap1\n      tag_57\n      swap2\n      swap1\n      tag_33\n      jump\t// in\n    tag_57:\n      tag_58\n      jump\t// in\n    tag_56:\n      mload(0x40)\n      tag_59\n      swap2\n      swap1\n      tag_24\n      jump\t// in\n    tag_59:\n      mload(0x40)\n      dup1\n      swap2\n      sub\n      swap1\n      return\n        /* \"contracts/HelloComrades.sol\":5985:6244  function destruct() external onlyLeader returns (bool){... */\n    tag_22:\n        /* \"contracts/HelloComrades.sol\":6034:6038  bool */\n      0x00\n        /* \"contracts/HelloComrades.sol\":2051:2057  leader */\n      immutable(\"0xd2f8f61201b2b11a78d6e866abc9c3db2ae8631fa656bfe5cb53668255367afb\")\n        /* \"contracts/HelloComrades.sol\":2037:2057  msg.sender == leader */\n      0xffffffffffffffffffffffffffffffffffffffff\n      and\n        /* \"contracts/HelloComrades.sol\":2037:2047  msg.sender */\n      caller\n        /* \"contracts/HelloComrades.sol\":2037:2057  msg.sender == leader */\n      0xffffffffffffffffffffffffffffffffffffffff\n      and\n      eq\n        /* \"contracts/HelloComrades.sol\":2029:2090  require(msg.sender == leader, unicode\"必须领导才能说\") */\n      tag_61\n      jumpi\n      mload(0x40)\n      0x08c379a000000000000000000000000000000000000000000000000000000000\n      dup2\n      mstore\n      0x04\n      add\n      tag_62\n      swap1\n      tag_63\n      jump\t// in\n    tag_62:\n      mload(0x40)\n      dup1\n      swap2\n      sub\n      swap1\n      revert\n    tag_61:\n        /* \"contracts/HelloComrades.sol\":6059:6060  4 */\n      0x04\n        /* \"contracts/HelloComrades.sol\":6053:6057  step */\n      0x00\n      dup1\n      sload\n      swap1\n      0x0100\n      exp\n      swap1\n      div\n      0xff\n      and\n        /* \"contracts/HelloComrades.sol\":6053:6060  step!=4 */\n      0xff\n      and\n      eq\n        /* \"contracts/HelloComrades.sol\":6049:6101  if (step!=4){... */\n      tag_65\n      jumpi\n        /* \"contracts/HelloComrades.sol\":6082:6089  UNKNOWN */\n      mload(0x40)\n      dup1\n      0x60\n      add\n      0x40\n      mstore\n      dup1\n      0x32\n      dup2\n      mstore\n      0x20\n      add\n      data_9f5460452fc7333eea0a532bd7629d120e70d3423b7b97eb8188742d72f113df\n      0x32\n      swap2\n      codecopy\n        /* \"contracts/HelloComrades.sol\":6075:6090  revert(UNKNOWN) */\n      mload(0x40)\n      0x08c379a000000000000000000000000000000000000000000000000000000000\n      dup2\n      mstore\n      0x04\n      add\n      tag_66\n      swap2\n      swap1\n      tag_67\n      jump\t// in\n    tag_66:\n      mload(0x40)\n      dup1\n      swap2\n      sub\n      swap1\n      revert\n        /* \"contracts/HelloComrades.sol\":6049:6101  if (step!=4){... */\n    tag_65:\n        /* \"contracts/HelloComrades.sol\":6115:6173  Log(\"selfdestruct\", msg.sender, address(this).balance, \"\") */\n      0xf7f75251dee7d7fc22deac3247729ebe7c86541f35930bf10c2a4207479a3b6c\n        /* \"contracts/HelloComrades.sol\":6135:6145  msg.sender */\n      caller\n        /* \"contracts/HelloComrades.sol\":6147:6168  address(this).balance */\n      selfbalance\n        /* \"contracts/HelloComrades.sol\":6115:6173  Log(\"selfdestruct\", msg.sender, address(this).balance, \"\") */\n      mload(0x40)\n      tag_68\n      swap3\n      swap2\n      swap1\n      tag_69\n      jump\t// in\n    tag_68:\n      mload(0x40)\n      dup1\n      swap2\n      sub\n      swap1\n      log1\n        /* \"contracts/HelloComrades.sol\":6204:6214  msg.sender */\n      caller\n        /* \"contracts/HelloComrades.sol\":6183:6216  selfdestruct(payable(msg.sender)) */\n      0xffffffffffffffffffffffffffffffffffffffff\n      and\n      selfdestruct\n        /* \"contracts/HelloComrades.sol\":923:954  address public immutable leader */\n    tag_27:\n      immutable(\"0xd2f8f61201b2b11a78d6e866abc9c3db2ae8631fa656bfe5cb53668255367afb\")\n      dup2\n      jump\t// out\n        /* \"contracts/HelloComrades.sol\":5469:5825  function comfortRes(string calldata content)... */\n    tag_34:\n        /* \"contracts/HelloComrades.sol\":5554:5558  bool */\n      0x00\n        /* \"contracts/HelloComrades.sol\":2264:2270  leader */\n      immutable(\"0xd2f8f61201b2b11a78d6e866abc9c3db2ae8631fa656bfe5cb53668255367afb\")\n        /* \"contracts/HelloComrades.sol\":2250:2270  msg.sender != leader */\n      0xffffffffffffffffffffffffffffffffffffffff\n      and\n        /* \"contracts/HelloComrades.sol\":2250:2260  msg.sender */\n      caller\n        /* \"contracts/HelloComrades.sol\":2250:2270  msg.sender != leader */\n      0xffffffffffffffffffffffffffffffffffffffff\n      and\n      sub\n        /* \"contracts/HelloComrades.sol\":2229:2351  require(... */\n      tag_71\n      jumpi\n      mload(0x40)\n      0x08c379a000000000000000000000000000000000000000000000000000000000\n      dup2\n      mstore\n      0x04\n      add\n      tag_72\n      swap1\n      tag_73\n      jump\t// in\n    tag_72:\n      mload(0x40)\n      dup1\n      swap2\n      sub\n      swap1\n      revert\n    tag_71:\n        /* \"contracts/HelloComrades.sol\":5581:5582  3 */\n      0x03\n        /* \"contracts/HelloComrades.sol\":5573:5577  step */\n      0x00\n      dup1\n      sload\n      swap1\n      0x0100\n      exp\n      swap1\n      div\n      0xff\n      and\n        /* \"contracts/HelloComrades.sol\":5573:5582  step != 3 */\n      0xff\n      and\n      eq\n        /* \"contracts/HelloComrades.sol\":5569:5623  if (step != 3){... */\n      tag_75\n      jumpi\n        /* \"contracts/HelloComrades.sol\":5604:5611  UNKNOWN */\n      mload(0x40)\n      dup1\n      0x60\n      add\n      0x40\n      mstore\n      dup1\n      0x32\n      dup2\n      mstore\n      0x20\n      add\n      data_9f5460452fc7333eea0a532bd7629d120e70d3423b7b97eb8188742d72f113df\n      0x32\n      swap2\n      codecopy\n        /* \"contracts/HelloComrades.sol\":5597:5612  revert(UNKNOWN) */\n      mload(0x40)\n      0x08c379a000000000000000000000000000000000000000000000000000000000\n      dup2\n      mstore\n      0x04\n      add\n      tag_76\n      swap2\n      swap1\n      tag_67\n      jump\t// in\n    tag_76:\n      mload(0x40)\n      dup1\n      swap2\n      sub\n      swap1\n      revert\n        /* \"contracts/HelloComrades.sol\":5569:5623  if (step != 3){... */\n    tag_75:\n        /* \"contracts/HelloComrades.sol\":5637:5678  review(content, unicode\"为人民服务\") */\n      tag_77\n        /* \"contracts/HelloComrades.sol\":5644:5651  content */\n      dup4\n      dup4\n        /* \"contracts/HelloComrades.sol\":5637:5678  review(content, unicode\"为人民服务\") */\n      mload(0x40)\n      dup1\n      0x40\n      add\n      0x40\n      mstore\n      dup1\n      0x0f\n      dup2\n      mstore\n      0x20\n      add\n      0xe4b8bae4babae6b091e69c8de58aa10000000000000000000000000000000000\n      dup2\n      mstore\n      pop\n        /* \"contracts/HelloComrades.sol\":5637:5643  review */\n      tag_78\n        /* \"contracts/HelloComrades.sol\":5637:5678  review(content, unicode\"为人民服务\") */\n      jump\t// in\n    tag_77:\n        /* \"contracts/HelloComrades.sol\":5632:5755  if (!review(content, unicode\"为人民服务\")) {... */\n      tag_79\n      jumpi\n        /* \"contracts/HelloComrades.sol\":5701:5744  MyError(unicode\"必须说:为人民服务\") */\n      mload(0x40)\n      0x8b3d2d4300000000000000000000000000000000000000000000000000000000\n      dup2\n      mstore\n      0x04\n      add\n      tag_80\n      swap1\n      tag_81\n      jump\t// in\n    tag_80:\n      mload(0x40)\n      dup1\n      swap2\n      sub\n      swap1\n      revert\n        /* \"contracts/HelloComrades.sol\":5632:5755  if (!review(content, unicode\"为人民服务\")) {... */\n    tag_79:\n        /* \"contracts/HelloComrades.sol\":5771:5772  4 */\n      0x04\n        /* \"contracts/HelloComrades.sol\":5764:5768  step */\n      0x00\n      dup1\n        /* \"contracts/HelloComrades.sol\":5764:5772  step = 4 */\n      0x0100\n      exp\n      dup2\n      sload\n      dup2\n      0xff\n      mul\n      not\n      and\n      swap1\n      dup4\n      0xff\n      and\n      mul\n      or\n      swap1\n      sstore\n      pop\n        /* \"contracts/HelloComrades.sol\":5787:5797  Step(step) */\n      0xf39143d48d073ee18f9a08fcabdbd340be0b2a698e3e45fc3b4318251131b4fc\n        /* \"contracts/HelloComrades.sol\":5792:5796  step */\n      0x00\n      dup1\n      sload\n      swap1\n      0x0100\n      exp\n      swap1\n      div\n      0xff\n      and\n        /* \"contracts/HelloComrades.sol\":5787:5797  Step(step) */\n      mload(0x40)\n      tag_82\n      swap2\n      swap1\n      tag_54\n      jump\t// in\n    tag_82:\n      mload(0x40)\n      dup1\n      swap2\n      sub\n      swap1\n      log1\n        /* \"contracts/HelloComrades.sol\":5814:5818  true */\n      0x01\n        /* \"contracts/HelloComrades.sol\":5807:5818  return true */\n      swap1\n      pop\n        /* \"contracts/HelloComrades.sol\":5469:5825  function comfortRes(string calldata content)... */\n      swap3\n      swap2\n      pop\n      pop\n      jump\t// out\n        /* \"contracts/HelloComrades.sol\":4650:5199  function comfort(string calldata content)... */\n    tag_38:\n        /* \"contracts/HelloComrades.sol\":4745:4749  bool */\n      0x00\n        /* \"contracts/HelloComrades.sol\":2051:2057  leader */\n      immutable(\"0xd2f8f61201b2b11a78d6e866abc9c3db2ae8631fa656bfe5cb53668255367afb\")\n        /* \"contracts/HelloComrades.sol\":2037:2057  msg.sender == leader */\n      0xffffffffffffffffffffffffffffffffffffffff\n      and\n        /* \"contracts/HelloComrades.sol\":2037:2047  msg.sender */\n      caller\n        /* \"contracts/HelloComrades.sol\":2037:2057  msg.sender == leader */\n      0xffffffffffffffffffffffffffffffffffffffff\n      and\n      eq\n        /* \"contracts/HelloComrades.sol\":2029:2090  require(msg.sender == leader, unicode\"必须领导才能说\") */\n      tag_84\n      jumpi\n      mload(0x40)\n      0x08c379a000000000000000000000000000000000000000000000000000000000\n      dup2\n      mstore\n      0x04\n      add\n      tag_85\n      swap1\n      tag_63\n      jump\t// in\n    tag_85:\n      mload(0x40)\n      dup1\n      swap2\n      sub\n      swap1\n      revert\n    tag_84:\n        /* \"contracts/HelloComrades.sol\":4772:4773  2 */\n      0x02\n        /* \"contracts/HelloComrades.sol\":4764:4768  step */\n      0x00\n      dup1\n      sload\n      swap1\n      0x0100\n      exp\n      swap1\n      div\n      0xff\n      and\n        /* \"contracts/HelloComrades.sol\":4764:4773  step != 2 */\n      0xff\n      and\n      eq\n        /* \"contracts/HelloComrades.sol\":4760:4814  if (step != 2){... */\n      tag_87\n      jumpi\n        /* \"contracts/HelloComrades.sol\":4795:4802  UNKNOWN */\n      mload(0x40)\n      dup1\n      0x60\n      add\n      0x40\n      mstore\n      dup1\n      0x32\n      dup2\n      mstore\n      0x20\n      add\n      data_9f5460452fc7333eea0a532bd7629d120e70d3423b7b97eb8188742d72f113df\n      0x32\n      swap2\n      codecopy\n        /* \"contracts/HelloComrades.sol\":4788:4803  revert(UNKNOWN) */\n      mload(0x40)\n      0x08c379a000000000000000000000000000000000000000000000000000000000\n      dup2\n      mstore\n      0x04\n      add\n      tag_88\n      swap2\n      swap1\n      tag_67\n      jump\t// in\n    tag_88:\n      mload(0x40)\n      dup1\n      swap2\n      sub\n      swap1\n      revert\n        /* \"contracts/HelloComrades.sol\":4760:4814  if (step != 2){... */\n    tag_87:\n        /* \"contracts/HelloComrades.sol\":4828:4871  review(content,unicode\"同志们辛苦了\") */\n      tag_89\n        /* \"contracts/HelloComrades.sol\":4835:4842  content */\n      dup4\n      dup4\n        /* \"contracts/HelloComrades.sol\":4828:4871  review(content,unicode\"同志们辛苦了\") */\n      mload(0x40)\n      dup1\n      0x40\n      add\n      0x40\n      mstore\n      dup1\n      0x12\n      dup2\n      mstore\n      0x20\n      add\n      0xe5908ce5bf97e4bbace8be9be88ba6e4ba860000000000000000000000000000\n      dup2\n      mstore\n      pop\n        /* \"contracts/HelloComrades.sol\":4828:4834  review */\n      tag_78\n        /* \"contracts/HelloComrades.sol\":4828:4871  review(content,unicode\"同志们辛苦了\") */\n      jump\t// in\n    tag_89:\n        /* \"contracts/HelloComrades.sol\":4823:4950  if (!review(content,unicode\"同志们辛苦了\")){... */\n      tag_90\n      jumpi\n        /* \"contracts/HelloComrades.sol\":4893:4939  MyError(unicode\"必须说:同志们辛苦了\") */\n      mload(0x40)\n      0x8b3d2d4300000000000000000000000000000000000000000000000000000000\n      dup2\n      mstore\n      0x04\n      add\n      tag_91\n      swap1\n      tag_92\n      jump\t// in\n    tag_91:\n      mload(0x40)\n      dup1\n      swap2\n      sub\n      swap1\n      revert\n        /* \"contracts/HelloComrades.sol\":4823:4950  if (!review(content,unicode\"同志们辛苦了\")){... */\n    tag_90:\n        /* \"contracts/HelloComrades.sol\":4975:4982  2 ether */\n      0x1bc16d674ec80000\n        /* \"contracts/HelloComrades.sol\":4963:4972  msg.value */\n      callvalue\n        /* \"contracts/HelloComrades.sol\":4963:4982  msg.value < 2 ether */\n      lt\n        /* \"contracts/HelloComrades.sol\":4959:5067  if (msg.value < 2 ether){... */\n      iszero\n      tag_93\n      jumpi\n        /* \"contracts/HelloComrades.sol\":5004:5056  MyError(unicode\"给钱！！！最少2个以太币\") */\n      mload(0x40)\n      0x8b3d2d4300000000000000000000000000000000000000000000000000000000\n      dup2\n      mstore\n      0x04\n      add\n      tag_94\n      swap1\n      tag_95\n      jump\t// in\n    tag_94:\n      mload(0x40)\n      dup1\n      swap2\n      sub\n      swap1\n      revert\n        /* \"contracts/HelloComrades.sol\":4959:5067  if (msg.value < 2 ether){... */\n    tag_93:\n        /* \"contracts/HelloComrades.sol\":5083:5084  3 */\n      0x03\n        /* \"contracts/HelloComrades.sol\":5076:5080  step */\n      0x00\n      dup1\n        /* \"contracts/HelloComrades.sol\":5076:5084  step = 3 */\n      0x0100\n      exp\n      dup2\n      sload\n      dup2\n      0xff\n      mul\n      not\n      and\n      swap1\n      dup4\n      0xff\n      and\n      mul\n      or\n      swap1\n      sstore\n      pop\n        /* \"contracts/HelloComrades.sol\":5099:5109  Step(step) */\n      0xf39143d48d073ee18f9a08fcabdbd340be0b2a698e3e45fc3b4318251131b4fc\n        /* \"contracts/HelloComrades.sol\":5104:5108  step */\n      0x00\n      dup1\n      sload\n      swap1\n      0x0100\n      exp\n      swap1\n      div\n      0xff\n      and\n        /* \"contracts/HelloComrades.sol\":5099:5109  Step(step) */\n      mload(0x40)\n      tag_96\n      swap2\n      swap1\n      tag_54\n      jump\t// in\n    tag_96:\n      mload(0x40)\n      dup1\n      swap2\n      sub\n      swap1\n      log1\n        /* \"contracts/HelloComrades.sol\":5124:5171  Log(\"comfort\", msg.sender, msg.value, msg.data) */\n      0xf7f75251dee7d7fc22deac3247729ebe7c86541f35930bf10c2a4207479a3b6c\n        /* \"contracts/HelloComrades.sol\":5139:5149  msg.sender */\n      caller\n        /* \"contracts/HelloComrades.sol\":5151:5160  msg.value */\n      callvalue\n        /* \"contracts/HelloComrades.sol\":5162:5170  msg.data */\n      0x00\n      calldatasize\n        /* \"contracts/HelloComrades.sol\":5124:5171  Log(\"comfort\", msg.sender, msg.value, msg.data) */\n      mload(0x40)\n      tag_97\n      swap5\n      swap4\n      swap3\n      swap2\n      swap1\n      tag_98\n      jump\t// in\n    tag_97:\n      mload(0x40)\n      dup1\n      swap2\n      sub\n      swap1\n      log1\n        /* \"contracts/HelloComrades.sol\":5188:5192  true */\n      0x01\n        /* \"contracts/HelloComrades.sol\":5181:5192  return true */\n      swap1\n      pop\n        /* \"contracts/HelloComrades.sol\":4650:5199  function comfort(string calldata content)... */\n      swap3\n      swap2\n      pop\n      pop\n      jump\t// out\n        /* \"contracts/HelloComrades.sol\":3430:3767  function hello (string calldata content) external onlyLeader  returns (bool){... */\n    tag_43:\n        /* \"contracts/HelloComrades.sol\":3501:3505  bool */\n      0x00\n        /* \"contracts/HelloComrades.sol\":2051:2057  leader */\n      immutable(\"0xd2f8f61201b2b11a78d6e866abc9c3db2ae8631fa656bfe5cb53668255367afb\")\n        /* \"contracts/HelloComrades.sol\":2037:2057  msg.sender == leader */\n      0xffffffffffffffffffffffffffffffffffffffff\n      and\n        /* \"contracts/HelloComrades.sol\":2037:2047  msg.sender */\n      caller\n        /* \"contracts/HelloComrades.sol\":2037:2057  msg.sender == leader */\n      0xffffffffffffffffffffffffffffffffffffffff\n      and\n      eq\n        /* \"contracts/HelloComrades.sol\":2029:2090  require(msg.sender == leader, unicode\"必须领导才能说\") */\n      tag_100\n      jumpi\n      mload(0x40)\n      0x08c379a000000000000000000000000000000000000000000000000000000000\n      dup2\n      mstore\n      0x04\n      add\n      tag_101\n      swap1\n      tag_63\n      jump\t// in\n    tag_101:\n      mload(0x40)\n      dup1\n      swap2\n      sub\n      swap1\n      revert\n    tag_100:\n        /* \"contracts/HelloComrades.sol\":3528:3529  0 */\n      0x00\n        /* \"contracts/HelloComrades.sol\":3520:3524  step */\n      dup1\n      0x00\n      swap1\n      sload\n      swap1\n      0x0100\n      exp\n      swap1\n      div\n      0xff\n      and\n        /* \"contracts/HelloComrades.sol\":3520:3529  step != 0 */\n      0xff\n      and\n      eq\n        /* \"contracts/HelloComrades.sol\":3516:3570  if (step != 0){... */\n      tag_103\n      jumpi\n        /* \"contracts/HelloComrades.sol\":3551:3558  UNKNOWN */\n      mload(0x40)\n      dup1\n      0x60\n      add\n      0x40\n      mstore\n      dup1\n      0x32\n      dup2\n      mstore\n      0x20\n      add\n      data_9f5460452fc7333eea0a532bd7629d120e70d3423b7b97eb8188742d72f113df\n      0x32\n      swap2\n      codecopy\n        /* \"contracts/HelloComrades.sol\":3544:3559  revert(UNKNOWN) */\n      mload(0x40)\n      0x08c379a000000000000000000000000000000000000000000000000000000000\n      dup2\n      mstore\n      0x04\n      add\n      tag_104\n      swap2\n      swap1\n      tag_67\n      jump\t// in\n    tag_104:\n      mload(0x40)\n      dup1\n      swap2\n      sub\n      swap1\n      revert\n        /* \"contracts/HelloComrades.sol\":3516:3570  if (step != 0){... */\n    tag_103:\n        /* \"contracts/HelloComrades.sol\":3584:3621  review(content,unicode\"同志们好\") */\n      tag_105\n        /* \"contracts/HelloComrades.sol\":3591:3598  content */\n      dup4\n      dup4\n        /* \"contracts/HelloComrades.sol\":3584:3621  review(content,unicode\"同志们好\") */\n      mload(0x40)\n      dup1\n      0x40\n      add\n      0x40\n      mstore\n      dup1\n      0x0c\n      dup2\n      mstore\n      0x20\n      add\n      0xe5908ce5bf97e4bbace5a5bd0000000000000000000000000000000000000000\n      dup2\n      mstore\n      pop\n        /* \"contracts/HelloComrades.sol\":3584:3590  review */\n      tag_78\n        /* \"contracts/HelloComrades.sol\":3584:3621  review(content,unicode\"同志们好\") */\n      jump\t// in\n    tag_105:\n        /* \"contracts/HelloComrades.sol\":3579:3697  if (!review(content,unicode\"同志们好\")){... */\n      tag_106\n      jumpi\n        /* \"contracts/HelloComrades.sol\":3643:3686  MyError(unicode\"必须说：同志们好!\") */\n      mload(0x40)\n      0x8b3d2d4300000000000000000000000000000000000000000000000000000000\n      dup2\n      mstore\n      0x04\n      add\n      tag_107\n      swap1\n      tag_108\n      jump\t// in\n    tag_107:\n      mload(0x40)\n      dup1\n      swap2\n      sub\n      swap1\n      revert\n        /* \"contracts/HelloComrades.sol\":3579:3697  if (!review(content,unicode\"同志们好\")){... */\n    tag_106:\n        /* \"contracts/HelloComrades.sol\":3713:3714  1 */\n      0x01\n        /* \"contracts/HelloComrades.sol\":3706:3710  step */\n      0x00\n      dup1\n        /* \"contracts/HelloComrades.sol\":3706:3714  step = 1 */\n      0x0100\n      exp\n      dup2\n      sload\n      dup2\n      0xff\n      mul\n      not\n      and\n      swap1\n      dup4\n      0xff\n      and\n      mul\n      or\n      swap1\n      sstore\n      pop\n        /* \"contracts/HelloComrades.sol\":3729:3739  Step(step) */\n      0xf39143d48d073ee18f9a08fcabdbd340be0b2a698e3e45fc3b4318251131b4fc\n        /* \"contracts/HelloComrades.sol\":3734:3738  step */\n      0x00\n      dup1\n      sload\n      swap1\n      0x0100\n      exp\n      swap1\n      div\n      0xff\n      and\n        /* \"contracts/HelloComrades.sol\":3729:3739  Step(step) */\n      mload(0x40)\n      tag_109\n      swap2\n      swap1\n      tag_54\n      jump\t// in\n    tag_109:\n      mload(0x40)\n      dup1\n      swap2\n      sub\n      swap1\n      log1\n        /* \"contracts/HelloComrades.sol\":3756:3760  true */\n      0x01\n        /* \"contracts/HelloComrades.sol\":3749:3760  return true */\n      swap1\n      pop\n        /* \"contracts/HelloComrades.sol\":3430:3767  function hello (string calldata content) external onlyLeader  returns (bool){... */\n      swap3\n      swap2\n      pop\n      pop\n      jump\t// out\n        /* \"contracts/HelloComrades.sol\":7191:7290  function getBanlance() external view returns (uint256){... */\n    tag_47:\n        /* \"contracts/HelloComrades.sol\":7237:7244  uint256 */\n      0x00\n        /* \"contracts/HelloComrades.sol\":7262:7283  address(this).balance */\n      selfbalance\n        /* \"contracts/HelloComrades.sol\":7255:7283  return address(this).balance */\n      swap1\n      pop\n        /* \"contracts/HelloComrades.sol\":7191:7290  function getBanlance() external view returns (uint256){... */\n      swap1\n      jump\t// out\n        /* \"contracts/HelloComrades.sol\":731:752  uint8 public step = 0 */\n    tag_52:\n      0x00\n      dup1\n      sload\n      swap1\n      0x0100\n      exp\n      swap1\n      div\n      0xff\n      and\n      dup2\n      jump\t// out\n        /* \"contracts/HelloComrades.sol\":4025:4370  function helloRes(string calldata content)... */\n    tag_58:\n        /* \"contracts/HelloComrades.sol\":4108:4112  bool */\n      0x00\n        /* \"contracts/HelloComrades.sol\":2264:2270  leader */\n      immutable(\"0xd2f8f61201b2b11a78d6e866abc9c3db2ae8631fa656bfe5cb53668255367afb\")\n        /* \"contracts/HelloComrades.sol\":2250:2270  msg.sender != leader */\n      0xffffffffffffffffffffffffffffffffffffffff\n      and\n        /* \"contracts/HelloComrades.sol\":2250:2260  msg.sender */\n      caller\n        /* \"contracts/HelloComrades.sol\":2250:2270  msg.sender != leader */\n      0xffffffffffffffffffffffffffffffffffffffff\n      and\n      sub\n        /* \"contracts/HelloComrades.sol\":2229:2351  require(... */\n      tag_112\n      jumpi\n      mload(0x40)\n      0x08c379a000000000000000000000000000000000000000000000000000000000\n      dup2\n      mstore\n      0x04\n      add\n      tag_113\n      swap1\n      tag_73\n      jump\t// in\n    tag_113:\n      mload(0x40)\n      dup1\n      swap2\n      sub\n      swap1\n      revert\n    tag_112:\n        /* \"contracts/HelloComrades.sol\":4135:4136  1 */\n      0x01\n        /* \"contracts/HelloComrades.sol\":4127:4131  step */\n      0x00\n      dup1\n      sload\n      swap1\n      0x0100\n      exp\n      swap1\n      div\n      0xff\n      and\n        /* \"contracts/HelloComrades.sol\":4127:4136  step != 1 */\n      0xff\n      and\n      eq\n        /* \"contracts/HelloComrades.sol\":4123:4177  if (step != 1){... */\n      tag_115\n      jumpi\n        /* \"contracts/HelloComrades.sol\":4158:4165  UNKNOWN */\n      mload(0x40)\n      dup1\n      0x60\n      add\n      0x40\n      mstore\n      dup1\n      0x32\n      dup2\n      mstore\n      0x20\n      add\n      data_9f5460452fc7333eea0a532bd7629d120e70d3423b7b97eb8188742d72f113df\n      0x32\n      swap2\n      codecopy\n        /* \"contracts/HelloComrades.sol\":4151:4166  revert(UNKNOWN) */\n      mload(0x40)\n      0x08c379a000000000000000000000000000000000000000000000000000000000\n      dup2\n      mstore\n      0x04\n      add\n      tag_116\n      swap2\n      swap1\n      tag_67\n      jump\t// in\n    tag_116:\n      mload(0x40)\n      dup1\n      swap2\n      sub\n      swap1\n      revert\n        /* \"contracts/HelloComrades.sol\":4123:4177  if (step != 1){... */\n    tag_115:\n        /* \"contracts/HelloComrades.sol\":4191:4225  review(content,unicode\"领导好\") */\n      tag_117\n        /* \"contracts/HelloComrades.sol\":4198:4205  content */\n      dup4\n      dup4\n        /* \"contracts/HelloComrades.sol\":4191:4225  review(content,unicode\"领导好\") */\n      mload(0x40)\n      dup1\n      0x40\n      add\n      0x40\n      mstore\n      dup1\n      0x09\n      dup2\n      mstore\n      0x20\n      add\n      0xe9a286e5afbce5a5bd0000000000000000000000000000000000000000000000\n      dup2\n      mstore\n      pop\n        /* \"contracts/HelloComrades.sol\":4191:4197  review */\n      tag_78\n        /* \"contracts/HelloComrades.sol\":4191:4225  review(content,unicode\"领导好\") */\n      jump\t// in\n    tag_117:\n        /* \"contracts/HelloComrades.sol\":4186:4300  if (!review(content,unicode\"领导好\")){... */\n      tag_118\n      jumpi\n        /* \"contracts/HelloComrades.sol\":4247:4289  MyError(unicode\"必须说：领导好！\") */\n      mload(0x40)\n      0x8b3d2d4300000000000000000000000000000000000000000000000000000000\n      dup2\n      mstore\n      0x04\n      add\n      tag_119\n      swap1\n      tag_120\n      jump\t// in\n    tag_119:\n      mload(0x40)\n      dup1\n      swap2\n      sub\n      swap1\n      revert\n        /* \"contracts/HelloComrades.sol\":4186:4300  if (!review(content,unicode\"领导好\")){... */\n    tag_118:\n        /* \"contracts/HelloComrades.sol\":4316:4317  2 */\n      0x02\n        /* \"contracts/HelloComrades.sol\":4309:4313  step */\n      0x00\n      dup1\n        /* \"contracts/HelloComrades.sol\":4309:4317  step = 2 */\n      0x0100\n      exp\n      dup2\n      sload\n      dup2\n      0xff\n      mul\n      not\n      and\n      swap1\n      dup4\n      0xff\n      and\n      mul\n      or\n      swap1\n      sstore\n      pop\n        /* \"contracts/HelloComrades.sol\":4332:4342  Step(step) */\n      0xf39143d48d073ee18f9a08fcabdbd340be0b2a698e3e45fc3b4318251131b4fc\n        /* \"contracts/HelloComrades.sol\":4337:4341  step */\n      0x00\n      dup1\n      sload\n      swap1\n      0x0100\n      exp\n      swap1\n      div\n      0xff\n      and\n        /* \"contracts/HelloComrades.sol\":4332:4342  Step(step) */\n      mload(0x40)\n      tag_121\n      swap2\n      swap1\n      tag_54\n      jump\t// in\n    tag_121:\n      mload(0x40)\n      dup1\n      swap2\n      sub\n      swap1\n      log1\n        /* \"contracts/HelloComrades.sol\":4359:4363  true */\n      0x01\n        /* \"contracts/HelloComrades.sol\":4352:4363  return true */\n      swap1\n      pop\n        /* \"contracts/HelloComrades.sol\":4025:4370  function helloRes(string calldata content)... */\n      swap3\n      swap2\n      pop\n      pop\n      jump\t// out\n        /* \"contracts/HelloComrades.sol\":6626:6842  function review(string calldata content,string memory correctContent)... */\n    tag_78:\n        /* \"contracts/HelloComrades.sol\":6730:6734  bool */\n      0x00\n        /* \"contracts/HelloComrades.sol\":6819:6833  correctContent */\n      dup2\n        /* \"contracts/HelloComrades.sol\":6802:6834  abi.encodePacked(correctContent) */\n      add(0x20, mload(0x40))\n      tag_123\n      swap2\n      swap1\n      tag_124\n      jump\t// in\n    tag_123:\n      mload(0x40)\n      0x20\n      dup2\n      dup4\n      sub\n      sub\n      dup2\n      mstore\n      swap1\n      0x40\n      mstore\n        /* \"contracts/HelloComrades.sol\":6792:6835  keccak256(abi.encodePacked(correctContent)) */\n      dup1\n      mload\n      swap1\n      0x20\n      add\n      keccak256\n        /* \"contracts/HelloComrades.sol\":6779:6786  content */\n      dup5\n      dup5\n        /* \"contracts/HelloComrades.sol\":6762:6787  abi.encodePacked(content) */\n      add(0x20, mload(0x40))\n      tag_125\n      swap3\n      swap2\n      swap1\n      tag_126\n      jump\t// in\n    tag_125:\n      mload(0x40)\n      0x20\n      dup2\n      dup4\n      sub\n      sub\n      dup2\n      mstore\n      swap1\n      0x40\n      mstore\n        /* \"contracts/HelloComrades.sol\":6752:6788  keccak256(abi.encodePacked(content)) */\n      dup1\n      mload\n      swap1\n      0x20\n      add\n      keccak256\n        /* \"contracts/HelloComrades.sol\":6752:6835  keccak256(abi.encodePacked(content)) == keccak256(abi.encodePacked(correctContent)) */\n      eq\n        /* \"contracts/HelloComrades.sol\":6745:6835  return keccak256(abi.encodePacked(content)) == keccak256(abi.encodePacked(correctContent)) */\n      swap1\n      pop\n        /* \"contracts/HelloComrades.sol\":6626:6842  function review(string calldata content,string memory correctContent)... */\n      swap4\n      swap3\n      pop\n      pop\n      pop\n      jump\t// out\n        /* \"#utility.yul\":7:176   */\n    tag_127:\n        /* \"#utility.yul\":91:102   */\n      0x00\n        /* \"#utility.yul\":125:131   */\n      dup3\n        /* \"#utility.yul\":120:123   */\n      dup3\n        /* \"#utility.yul\":113:132   */\n      mstore\n        /* \"#utility.yul\":165:169   */\n      0x20\n        /* \"#utility.yul\":160:163   */\n      dup3\n        /* \"#utility.yul\":156:170   */\n      add\n        /* \"#utility.yul\":141:170   */\n      swap1\n      pop\n        /* \"#utility.yul\":7:176   */\n      swap3\n      swap2\n      pop\n      pop\n      jump\t// out\n        /* \"#utility.yul\":182:339   */\n    tag_128:\n        /* \"#utility.yul\":322:331   */\n      0x7265636569766500000000000000000000000000000000000000000000000000\n        /* \"#utility.yul\":318:319   */\n      0x00\n        /* \"#utility.yul\":310:316   */\n      dup3\n        /* \"#utility.yul\":306:320   */\n      add\n        /* \"#utility.yul\":299:332   */\n      mstore\n        /* \"#utility.yul\":182:339   */\n      pop\n      jump\t// out\n        /* \"#utility.yul\":345:710   */\n    tag_129:\n        /* \"#utility.yul\":487:490   */\n      0x00\n        /* \"#utility.yul\":508:574   */\n      tag_182\n        /* \"#utility.yul\":572:573   */\n      0x07\n        /* \"#utility.yul\":567:570   */\n      dup4\n        /* \"#utility.yul\":508:574   */\n      tag_127\n      jump\t// in\n    tag_182:\n        /* \"#utility.yul\":501:574   */\n      swap2\n      pop\n        /* \"#utility.yul\":583:676   */\n      tag_183\n        /* \"#utility.yul\":672:675   */\n      dup3\n        /* \"#utility.yul\":583:676   */\n      tag_128\n      jump\t// in\n    tag_183:\n        /* \"#utility.yul\":701:703   */\n      0x20\n        /* \"#utility.yul\":696:699   */\n      dup3\n        /* \"#utility.yul\":692:704   */\n      add\n        /* \"#utility.yul\":685:704   */\n      swap1\n      pop\n        /* \"#utility.yul\":345:710   */\n      swap2\n      swap1\n      pop\n      jump\t// out\n        /* \"#utility.yul\":716:842   */\n    tag_130:\n        /* \"#utility.yul\":753:760   */\n      0x00\n        /* \"#utility.yul\":793:835   */\n      0xffffffffffffffffffffffffffffffffffffffff\n        /* \"#utility.yul\":786:791   */\n      dup3\n        /* \"#utility.yul\":782:836   */\n      and\n        /* \"#utility.yul\":771:836   */\n      swap1\n      pop\n        /* \"#utility.yul\":716:842   */\n      swap2\n      swap1\n      pop\n      jump\t// out\n        /* \"#utility.yul\":848:944   */\n    tag_131:\n        /* \"#utility.yul\":885:892   */\n      0x00\n        /* \"#utility.yul\":914:938   */\n      tag_186\n        /* \"#utility.yul\":932:937   */\n      dup3\n        /* \"#utility.yul\":914:938   */\n      tag_130\n      jump\t// in\n    tag_186:\n        /* \"#utility.yul\":903:938   */\n      swap1\n      pop\n        /* \"#utility.yul\":848:944   */\n      swap2\n      swap1\n      pop\n      jump\t// out\n        /* \"#utility.yul\":950:1068   */\n    tag_132:\n        /* \"#utility.yul\":1037:1061   */\n      tag_188\n        /* \"#utility.yul\":1055:1060   */\n      dup2\n        /* \"#utility.yul\":1037:1061   */\n      tag_131\n      jump\t// in\n    tag_188:\n        /* \"#utility.yul\":1032:1035   */\n      dup3\n        /* \"#utility.yul\":1025:1062   */\n      mstore\n        /* \"#utility.yul\":950:1068   */\n      pop\n      pop\n      jump\t// out\n        /* \"#utility.yul\":1074:1151   */\n    tag_133:\n        /* \"#utility.yul\":1111:1118   */\n      0x00\n        /* \"#utility.yul\":1140:1145   */\n      dup2\n        /* \"#utility.yul\":1129:1145   */\n      swap1\n      pop\n        /* \"#utility.yul\":1074:1151   */\n      swap2\n      swap1\n      pop\n      jump\t// out\n        /* \"#utility.yul\":1157:1275   */\n    tag_134:\n        /* \"#utility.yul\":1244:1268   */\n      tag_191\n        /* \"#utility.yul\":1262:1267   */\n      dup2\n        /* \"#utility.yul\":1244:1268   */\n      tag_133\n      jump\t// in\n    tag_191:\n        /* \"#utility.yul\":1239:1242   */\n      dup3\n        /* \"#utility.yul\":1232:1269   */\n      mstore\n        /* \"#utility.yul\":1157:1275   */\n      pop\n      pop\n      jump\t// out\n        /* \"#utility.yul\":1281:1449   */\n    tag_135:\n        /* \"#utility.yul\":1364:1375   */\n      0x00\n        /* \"#utility.yul\":1398:1404   */\n      dup3\n        /* \"#utility.yul\":1393:1396   */\n      dup3\n        /* \"#utility.yul\":1386:1405   */\n      mstore\n        /* \"#utility.yul\":1438:1442   */\n      0x20\n        /* \"#utility.yul\":1433:1436   */\n      dup3\n        /* \"#utility.yul\":1429:1443   */\n      add\n        /* \"#utility.yul\":1414:1443   */\n      swap1\n      pop\n        /* \"#utility.yul\":1281:1449   */\n      swap3\n      swap2\n      pop\n      pop\n      jump\t// out\n        /* \"#utility.yul\":1455:1569   */\n    tag_136:\n      pop\n      jump\t// out\n        /* \"#utility.yul\":1575:1937   */\n    tag_137:\n        /* \"#utility.yul\":1716:1719   */\n      0x00\n        /* \"#utility.yul\":1737:1802   */\n      tag_195\n        /* \"#utility.yul\":1800:1801   */\n      0x00\n        /* \"#utility.yul\":1795:1798   */\n      dup4\n        /* \"#utility.yul\":1737:1802   */\n      tag_135\n      jump\t// in\n    tag_195:\n        /* \"#utility.yul\":1730:1802   */\n      swap2\n      pop\n        /* \"#utility.yul\":1811:1904   */\n      tag_196\n        /* \"#utility.yul\":1900:1903   */\n      dup3\n        /* \"#utility.yul\":1811:1904   */\n      tag_136\n      jump\t// in\n    tag_196:\n        /* \"#utility.yul\":1929:1930   */\n      0x00\n        /* \"#utility.yul\":1924:1927   */\n      dup3\n        /* \"#utility.yul\":1920:1931   */\n      add\n        /* \"#utility.yul\":1913:1931   */\n      swap1\n      pop\n        /* \"#utility.yul\":1575:1937   */\n      swap2\n      swap1\n      pop\n      jump\t// out\n        /* \"#utility.yul\":1943:2888   */\n    tag_15:\n        /* \"#utility.yul\":2265:2269   */\n      0x00\n        /* \"#utility.yul\":2303:2306   */\n      0x80\n        /* \"#utility.yul\":2292:2301   */\n      dup3\n        /* \"#utility.yul\":2288:2307   */\n      add\n        /* \"#utility.yul\":2280:2307   */\n      swap1\n      pop\n        /* \"#utility.yul\":2353:2362   */\n      dup2\n        /* \"#utility.yul\":2347:2351   */\n      dup2\n        /* \"#utility.yul\":2343:2363   */\n      sub\n        /* \"#utility.yul\":2339:2340   */\n      0x00\n        /* \"#utility.yul\":2328:2337   */\n      dup4\n        /* \"#utility.yul\":2324:2341   */\n      add\n        /* \"#utility.yul\":2317:2364   */\n      mstore\n        /* \"#utility.yul\":2381:2512   */\n      tag_198\n        /* \"#utility.yul\":2507:2511   */\n      dup2\n        /* \"#utility.yul\":2381:2512   */\n      tag_129\n      jump\t// in\n    tag_198:\n        /* \"#utility.yul\":2373:2512   */\n      swap1\n      pop\n        /* \"#utility.yul\":2522:2594   */\n      tag_199\n        /* \"#utility.yul\":2590:2592   */\n      0x20\n        /* \"#utility.yul\":2579:2588   */\n      dup4\n        /* \"#utility.yul\":2575:2593   */\n      add\n        /* \"#utility.yul\":2566:2572   */\n      dup6\n        /* \"#utility.yul\":2522:2594   */\n      tag_132\n      jump\t// in\n    tag_199:\n        /* \"#utility.yul\":2604:2676   */\n      tag_200\n        /* \"#utility.yul\":2672:2674   */\n      0x40\n        /* \"#utility.yul\":2661:2670   */\n      dup4\n        /* \"#utility.yul\":2657:2675   */\n      add\n        /* \"#utility.yul\":2648:2654   */\n      dup5\n        /* \"#utility.yul\":2604:2676   */\n      tag_134\n      jump\t// in\n    tag_200:\n        /* \"#utility.yul\":2723:2732   */\n      dup2\n        /* \"#utility.yul\":2717:2721   */\n      dup2\n        /* \"#utility.yul\":2713:2733   */\n      sub\n        /* \"#utility.yul\":2708:2710   */\n      0x60\n        /* \"#utility.yul\":2697:2706   */\n      dup4\n        /* \"#utility.yul\":2693:2711   */\n      add\n        /* \"#utility.yul\":2686:2734   */\n      mstore\n        /* \"#utility.yul\":2751:2881   */\n      tag_201\n        /* \"#utility.yul\":2876:2880   */\n      dup2\n        /* \"#utility.yul\":2751:2881   */\n      tag_137\n      jump\t// in\n    tag_201:\n        /* \"#utility.yul\":2743:2881   */\n      swap1\n      pop\n        /* \"#utility.yul\":1943:2888   */\n      swap4\n      swap3\n      pop\n      pop\n      pop\n      jump\t// out\n        /* \"#utility.yul\":2894:3052   */\n    tag_138:\n        /* \"#utility.yul\":3034:3044   */\n      0x66616c6c6261636b000000000000000000000000000000000000000000000000\n        /* \"#utility.yul\":3030:3031   */\n      0x00\n        /* \"#utility.yul\":3022:3028   */\n      dup3\n        /* \"#utility.yul\":3018:3032   */\n      add\n        /* \"#utility.yul\":3011:3045   */\n      mstore\n        /* \"#utility.yul\":2894:3052   */\n      pop\n      jump\t// out\n        /* \"#utility.yul\":3058:3423   */\n    tag_139:\n        /* \"#utility.yul\":3200:3203   */\n      0x00\n        /* \"#utility.yul\":3221:3287   */\n      tag_204\n        /* \"#utility.yul\":3285:3286   */\n      0x08\n        /* \"#utility.yul\":3280:3283   */\n      dup4\n        /* \"#utility.yul\":3221:3287   */\n      tag_127\n      jump\t// in\n    tag_204:\n        /* \"#utility.yul\":3214:3287   */\n      swap2\n      pop\n        /* \"#utility.yul\":3296:3389   */\n      tag_205\n        /* \"#utility.yul\":3385:3388   */\n      dup3\n        /* \"#utility.yul\":3296:3389   */\n      tag_138\n      jump\t// in\n    tag_205:\n        /* \"#utility.yul\":3414:3416   */\n      0x20\n        /* \"#utility.yul\":3409:3412   */\n      dup3\n        /* \"#utility.yul\":3405:3417   */\n      add\n        /* \"#utility.yul\":3398:3417   */\n      swap1\n      pop\n        /* \"#utility.yul\":3058:3423   */\n      swap2\n      swap1\n      pop\n      jump\t// out\n        /* \"#utility.yul\":3429:3575   */\n    tag_140:\n        /* \"#utility.yul\":3526:3532   */\n      dup3\n        /* \"#utility.yul\":3521:3524   */\n      dup2\n        /* \"#utility.yul\":3516:3519   */\n      dup4\n        /* \"#utility.yul\":3503:3533   */\n      calldatacopy\n        /* \"#utility.yul\":3567:3568   */\n      0x00\n        /* \"#utility.yul\":3558:3564   */\n      dup4\n        /* \"#utility.yul\":3553:3556   */\n      dup4\n        /* \"#utility.yul\":3549:3565   */\n      add\n        /* \"#utility.yul\":3542:3569   */\n      mstore\n        /* \"#utility.yul\":3429:3575   */\n      pop\n      pop\n      pop\n      jump\t// out\n        /* \"#utility.yul\":3581:3683   */\n    tag_141:\n        /* \"#utility.yul\":3622:3628   */\n      0x00\n        /* \"#utility.yul\":3673:3675   */\n      0x1f\n        /* \"#utility.yul\":3669:3676   */\n      not\n        /* \"#utility.yul\":3664:3666   */\n      0x1f\n        /* \"#utility.yul\":3657:3662   */\n      dup4\n        /* \"#utility.yul\":3653:3667   */\n      add\n        /* \"#utility.yul\":3649:3677   */\n      and\n        /* \"#utility.yul\":3639:3677   */\n      swap1\n      pop\n        /* \"#utility.yul\":3581:3683   */\n      swap2\n      swap1\n      pop\n      jump\t// out\n        /* \"#utility.yul\":3711:4025   */\n    tag_142:\n        /* \"#utility.yul\":3807:3810   */\n      0x00\n        /* \"#utility.yul\":3828:3898   */\n      tag_209\n        /* \"#utility.yul\":3891:3897   */\n      dup4\n        /* \"#utility.yul\":3886:3889   */\n      dup6\n        /* \"#utility.yul\":3828:3898   */\n      tag_135\n      jump\t// in\n    tag_209:\n        /* \"#utility.yul\":3821:3898   */\n      swap4\n      pop\n        /* \"#utility.yul\":3908:3964   */\n      tag_210\n        /* \"#utility.yul\":3957:3963   */\n      dup4\n        /* \"#utility.yul\":3952:3955   */\n      dup6\n        /* \"#utility.yul\":3945:3950   */\n      dup5\n        /* \"#utility.yul\":3908:3964   */\n      tag_140\n      jump\t// in\n    tag_210:\n        /* \"#utility.yul\":3989:4018   */\n      tag_211\n        /* \"#utility.yul\":4011:4017   */\n      dup4\n        /* \"#utility.yul\":3989:4018   */\n      tag_141\n      jump\t// in\n    tag_211:\n        /* \"#utility.yul\":3984:3987   */\n      dup5\n        /* \"#utility.yul\":3980:4019   */\n      add\n        /* \"#utility.yul\":3973:4019   */\n      swap1\n      pop\n        /* \"#utility.yul\":3711:4025   */\n      swap4\n      swap3\n      pop\n      pop\n      pop\n      jump\t// out\n        /* \"#utility.yul\":4031:4888   */\n    tag_19:\n        /* \"#utility.yul\":4309:4313   */\n      0x00\n        /* \"#utility.yul\":4347:4350   */\n      0x80\n        /* \"#utility.yul\":4336:4345   */\n      dup3\n        /* \"#utility.yul\":4332:4351   */\n      add\n        /* \"#utility.yul\":4324:4351   */\n      swap1\n      pop\n        /* \"#utility.yul\":4397:4406   */\n      dup2\n        /* \"#utility.yul\":4391:4395   */\n      dup2\n        /* \"#utility.yul\":4387:4407   */\n      sub\n        /* \"#utility.yul\":4383:4384   */\n      0x00\n        /* \"#utility.yul\":4372:4381   */\n      dup4\n        /* \"#utility.yul\":4368:4385   */\n      add\n        /* \"#utility.yul\":4361:4408   */\n      mstore\n        /* \"#utility.yul\":4425:4556   */\n      tag_213\n        /* \"#utility.yul\":4551:4555   */\n      dup2\n        /* \"#utility.yul\":4425:4556   */\n      tag_139\n      jump\t// in\n    tag_213:\n        /* \"#utility.yul\":4417:4556   */\n      swap1\n      pop\n        /* \"#utility.yul\":4566:4638   */\n      tag_214\n        /* \"#utility.yul\":4634:4636   */\n      0x20\n        /* \"#utility.yul\":4623:4632   */\n      dup4\n        /* \"#utility.yul\":4619:4637   */\n      add\n        /* \"#utility.yul\":4610:4616   */\n      dup8\n        /* \"#utility.yul\":4566:4638   */\n      tag_132\n      jump\t// in\n    tag_214:\n        /* \"#utility.yul\":4648:4720   */\n      tag_215\n        /* \"#utility.yul\":4716:4718   */\n      0x40\n        /* \"#utility.yul\":4705:4714   */\n      dup4\n        /* \"#utility.yul\":4701:4719   */\n      add\n        /* \"#utility.yul\":4692:4698   */\n      dup7\n        /* \"#utility.yul\":4648:4720   */\n      tag_134\n      jump\t// in\n    tag_215:\n        /* \"#utility.yul\":4767:4776   */\n      dup2\n        /* \"#utility.yul\":4761:4765   */\n      dup2\n        /* \"#utility.yul\":4757:4777   */\n      sub\n        /* \"#utility.yul\":4752:4754   */\n      0x60\n        /* \"#utility.yul\":4741:4750   */\n      dup4\n        /* \"#utility.yul\":4737:4755   */\n      add\n        /* \"#utility.yul\":4730:4778   */\n      mstore\n        /* \"#utility.yul\":4795:4881   */\n      tag_216\n        /* \"#utility.yul\":4876:4880   */\n      dup2\n        /* \"#utility.yul\":4867:4873   */\n      dup5\n        /* \"#utility.yul\":4859:4865   */\n      dup7\n        /* \"#utility.yul\":4795:4881   */\n      tag_142\n      jump\t// in\n    tag_216:\n        /* \"#utility.yul\":4787:4881   */\n      swap1\n      pop\n        /* \"#utility.yul\":4031:4888   */\n      swap6\n      swap5\n      pop\n      pop\n      pop\n      pop\n      pop\n      jump\t// out\n        /* \"#utility.yul\":4894:4984   */\n    tag_143:\n        /* \"#utility.yul\":4928:4935   */\n      0x00\n        /* \"#utility.yul\":4971:4976   */\n      dup2\n        /* \"#utility.yul\":4964:4977   */\n      iszero\n        /* \"#utility.yul\":4957:4978   */\n      iszero\n        /* \"#utility.yul\":4946:4978   */\n      swap1\n      pop\n        /* \"#utility.yul\":4894:4984   */\n      swap2\n      swap1\n      pop\n      jump\t// out\n        /* \"#utility.yul\":4990:5099   */\n    tag_144:\n        /* \"#utility.yul\":5071:5092   */\n      tag_219\n        /* \"#utility.yul\":5086:5091   */\n      dup2\n        /* \"#utility.yul\":5071:5092   */\n      tag_143\n      jump\t// in\n    tag_219:\n        /* \"#utility.yul\":5066:5069   */\n      dup3\n        /* \"#utility.yul\":5059:5093   */\n      mstore\n        /* \"#utility.yul\":4990:5099   */\n      pop\n      pop\n      jump\t// out\n        /* \"#utility.yul\":5105:5315   */\n    tag_24:\n        /* \"#utility.yul\":5192:5196   */\n      0x00\n        /* \"#utility.yul\":5230:5232   */\n      0x20\n        /* \"#utility.yul\":5219:5228   */\n      dup3\n        /* \"#utility.yul\":5215:5233   */\n      add\n        /* \"#utility.yul\":5207:5233   */\n      swap1\n      pop\n        /* \"#utility.yul\":5243:5308   */\n      tag_221\n        /* \"#utility.yul\":5305:5306   */\n      0x00\n        /* \"#utility.yul\":5294:5303   */\n      dup4\n        /* \"#utility.yul\":5290:5307   */\n      add\n        /* \"#utility.yul\":5281:5287   */\n      dup5\n        /* \"#utility.yul\":5243:5308   */\n      tag_144\n      jump\t// in\n    tag_221:\n        /* \"#utility.yul\":5105:5315   */\n      swap3\n      swap2\n      pop\n      pop\n      jump\t// out\n        /* \"#utility.yul\":5321:5543   */\n    tag_29:\n        /* \"#utility.yul\":5414:5418   */\n      0x00\n        /* \"#utility.yul\":5452:5454   */\n      0x20\n        /* \"#utility.yul\":5441:5450   */\n      dup3\n        /* \"#utility.yul\":5437:5455   */\n      add\n        /* \"#utility.yul\":5429:5455   */\n      swap1\n      pop\n        /* \"#utility.yul\":5465:5536   */\n      tag_223\n        /* \"#utility.yul\":5533:5534   */\n      0x00\n        /* \"#utility.yul\":5522:5531   */\n      dup4\n        /* \"#utility.yul\":5518:5535   */\n      add\n        /* \"#utility.yul\":5509:5515   */\n      dup5\n        /* \"#utility.yul\":5465:5536   */\n      tag_132\n      jump\t// in\n    tag_223:\n        /* \"#utility.yul\":5321:5543   */\n      swap3\n      swap2\n      pop\n      pop\n      jump\t// out\n        /* \"#utility.yul\":5630:5747   */\n    tag_146:\n        /* \"#utility.yul\":5739:5740   */\n      0x00\n        /* \"#utility.yul\":5736:5737   */\n      dup1\n        /* \"#utility.yul\":5729:5741   */\n      revert\n        /* \"#utility.yul\":5753:5870   */\n    tag_147:\n        /* \"#utility.yul\":5862:5863   */\n      0x00\n        /* \"#utility.yul\":5859:5860   */\n      dup1\n        /* \"#utility.yul\":5852:5864   */\n      revert\n        /* \"#utility.yul\":5876:5993   */\n    tag_148:\n        /* \"#utility.yul\":5985:5986   */\n      0x00\n        /* \"#utility.yul\":5982:5983   */\n      dup1\n        /* \"#utility.yul\":5975:5987   */\n      revert\n        /* \"#utility.yul\":5999:6116   */\n    tag_149:\n        /* \"#utility.yul\":6108:6109   */\n      0x00\n        /* \"#utility.yul\":6105:6106   */\n      dup1\n        /* \"#utility.yul\":6098:6110   */\n      revert\n        /* \"#utility.yul\":6122:6239   */\n    tag_150:\n        /* \"#utility.yul\":6231:6232   */\n      0x00\n        /* \"#utility.yul\":6228:6229   */\n      dup1\n        /* \"#utility.yul\":6221:6233   */\n      revert\n        /* \"#utility.yul\":6259:6812   */\n    tag_151:\n        /* \"#utility.yul\":6317:6325   */\n      0x00\n        /* \"#utility.yul\":6327:6333   */\n      dup1\n        /* \"#utility.yul\":6377:6380   */\n      dup4\n        /* \"#utility.yul\":6370:6374   */\n      0x1f\n        /* \"#utility.yul\":6362:6368   */\n      dup5\n        /* \"#utility.yul\":6358:6375   */\n      add\n        /* \"#utility.yul\":6354:6381   */\n      slt\n        /* \"#utility.yul\":6344:6466   */\n      tag_231\n      jumpi\n        /* \"#utility.yul\":6385:6464   */\n      tag_232\n      tag_148\n      jump\t// in\n    tag_232:\n        /* \"#utility.yul\":6344:6466   */\n    tag_231:\n        /* \"#utility.yul\":6498:6504   */\n      dup3\n        /* \"#utility.yul\":6485:6505   */\n      calldataload\n        /* \"#utility.yul\":6475:6505   */\n      swap1\n      pop\n        /* \"#utility.yul\":6528:6546   */\n      0xffffffffffffffff\n        /* \"#utility.yul\":6520:6526   */\n      dup2\n        /* \"#utility.yul\":6517:6547   */\n      gt\n        /* \"#utility.yul\":6514:6631   */\n      iszero\n      tag_233\n      jumpi\n        /* \"#utility.yul\":6550:6629   */\n      tag_234\n      tag_149\n      jump\t// in\n    tag_234:\n        /* \"#utility.yul\":6514:6631   */\n    tag_233:\n        /* \"#utility.yul\":6664:6668   */\n      0x20\n        /* \"#utility.yul\":6656:6662   */\n      dup4\n        /* \"#utility.yul\":6652:6669   */\n      add\n        /* \"#utility.yul\":6640:6669   */\n      swap2\n      pop\n        /* \"#utility.yul\":6718:6721   */\n      dup4\n        /* \"#utility.yul\":6710:6714   */\n      0x01\n        /* \"#utility.yul\":6702:6708   */\n      dup3\n        /* \"#utility.yul\":6698:6715   */\n      mul\n        /* \"#utility.yul\":6688:6696   */\n      dup4\n        /* \"#utility.yul\":6684:6716   */\n      add\n        /* \"#utility.yul\":6681:6722   */\n      gt\n        /* \"#utility.yul\":6678:6806   */\n      iszero\n      tag_235\n      jumpi\n        /* \"#utility.yul\":6725:6804   */\n      tag_236\n      tag_150\n      jump\t// in\n    tag_236:\n        /* \"#utility.yul\":6678:6806   */\n    tag_235:\n        /* \"#utility.yul\":6259:6812   */\n      swap3\n      pop\n      swap3\n      swap1\n      pop\n      jump\t// out\n        /* \"#utility.yul\":6818:7347   */\n    tag_33:\n        /* \"#utility.yul\":6889:6895   */\n      0x00\n        /* \"#utility.yul\":6897:6903   */\n      dup1\n        /* \"#utility.yul\":6946:6948   */\n      0x20\n        /* \"#utility.yul\":6934:6943   */\n      dup4\n        /* \"#utility.yul\":6925:6932   */\n      dup6\n        /* \"#utility.yul\":6921:6944   */\n      sub\n        /* \"#utility.yul\":6917:6949   */\n      slt\n        /* \"#utility.yul\":6914:7033   */\n      iszero\n      tag_238\n      jumpi\n        /* \"#utility.yul\":6952:7031   */\n      tag_239\n      tag_146\n      jump\t// in\n    tag_239:\n        /* \"#utility.yul\":6914:7033   */\n    tag_238:\n        /* \"#utility.yul\":7100:7101   */\n      0x00\n        /* \"#utility.yul\":7089:7098   */\n      dup4\n        /* \"#utility.yul\":7085:7102   */\n      add\n        /* \"#utility.yul\":7072:7103   */\n      calldataload\n        /* \"#utility.yul\":7130:7148   */\n      0xffffffffffffffff\n        /* \"#utility.yul\":7122:7128   */\n      dup2\n        /* \"#utility.yul\":7119:7149   */\n      gt\n        /* \"#utility.yul\":7116:7233   */\n      iszero\n      tag_240\n      jumpi\n        /* \"#utility.yul\":7152:7231   */\n      tag_241\n      tag_147\n      jump\t// in\n    tag_241:\n        /* \"#utility.yul\":7116:7233   */\n    tag_240:\n        /* \"#utility.yul\":7265:7330   */\n      tag_242\n        /* \"#utility.yul\":7322:7329   */\n      dup6\n        /* \"#utility.yul\":7313:7319   */\n      dup3\n        /* \"#utility.yul\":7302:7311   */\n      dup7\n        /* \"#utility.yul\":7298:7320   */\n      add\n        /* \"#utility.yul\":7265:7330   */\n      tag_151\n      jump\t// in\n    tag_242:\n        /* \"#utility.yul\":7247:7330   */\n      swap3\n      pop\n      swap3\n      pop\n        /* \"#utility.yul\":7043:7340   */\n      pop\n        /* \"#utility.yul\":6818:7347   */\n      swap3\n      pop\n      swap3\n      swap1\n      pop\n      jump\t// out\n        /* \"#utility.yul\":7353:7575   */\n    tag_49:\n        /* \"#utility.yul\":7446:7450   */\n      0x00\n        /* \"#utility.yul\":7484:7486   */\n      0x20\n        /* \"#utility.yul\":7473:7482   */\n      dup3\n        /* \"#utility.yul\":7469:7487   */\n      add\n        /* \"#utility.yul\":7461:7487   */\n      swap1\n      pop\n        /* \"#utility.yul\":7497:7568   */\n      tag_244\n        /* \"#utility.yul\":7565:7566   */\n      0x00\n        /* \"#utility.yul\":7554:7563   */\n      dup4\n        /* \"#utility.yul\":7550:7567   */\n      add\n        /* \"#utility.yul\":7541:7547   */\n      dup5\n        /* \"#utility.yul\":7497:7568   */\n      tag_134\n      jump\t// in\n    tag_244:\n        /* \"#utility.yul\":7353:7575   */\n      swap3\n      swap2\n      pop\n      pop\n      jump\t// out\n        /* \"#utility.yul\":7581:7667   */\n    tag_152:\n        /* \"#utility.yul\":7616:7623   */\n      0x00\n        /* \"#utility.yul\":7656:7660   */\n      0xff\n        /* \"#utility.yul\":7649:7654   */\n      dup3\n        /* \"#utility.yul\":7645:7661   */\n      and\n        /* \"#utility.yul\":7634:7661   */\n      swap1\n      pop\n        /* \"#utility.yul\":7581:7667   */\n      swap2\n      swap1\n      pop\n      jump\t// out\n        /* \"#utility.yul\":7673:7785   */\n    tag_153:\n        /* \"#utility.yul\":7756:7778   */\n      tag_247\n        /* \"#utility.yul\":7772:7777   */\n      dup2\n        /* \"#utility.yul\":7756:7778   */\n      tag_152\n      jump\t// in\n    tag_247:\n        /* \"#utility.yul\":7751:7754   */\n      dup3\n        /* \"#utility.yul\":7744:7779   */\n      mstore\n        /* \"#utility.yul\":7673:7785   */\n      pop\n      pop\n      jump\t// out\n        /* \"#utility.yul\":7791:8005   */\n    tag_54:\n        /* \"#utility.yul\":7880:7884   */\n      0x00\n        /* \"#utility.yul\":7918:7920   */\n      0x20\n        /* \"#utility.yul\":7907:7916   */\n      dup3\n        /* \"#utility.yul\":7903:7921   */\n      add\n        /* \"#utility.yul\":7895:7921   */\n      swap1\n      pop\n        /* \"#utility.yul\":7931:7998   */\n      tag_249\n        /* \"#utility.yul\":7995:7996   */\n      0x00\n        /* \"#utility.yul\":7984:7993   */\n      dup4\n        /* \"#utility.yul\":7980:7997   */\n      add\n        /* \"#utility.yul\":7971:7977   */\n      dup5\n        /* \"#utility.yul\":7931:7998   */\n      tag_153\n      jump\t// in\n    tag_249:\n        /* \"#utility.yul\":7791:8005   */\n      swap3\n      swap2\n      pop\n      pop\n      jump\t// out\n        /* \"#utility.yul\":8011:8225   */\n    tag_154:\n        /* \"#utility.yul\":8151:8217   */\n      0xe5bf85e9a1bbe9a286e5afbce6898de883bde8afb40000000000000000000000\n        /* \"#utility.yul\":8147:8148   */\n      0x00\n        /* \"#utility.yul\":8139:8145   */\n      dup3\n        /* \"#utility.yul\":8135:8149   */\n      add\n        /* \"#utility.yul\":8128:8218   */\n      mstore\n        /* \"#utility.yul\":8011:8225   */\n      pop\n      jump\t// out\n        /* \"#utility.yul\":8231:8597   */\n    tag_155:\n        /* \"#utility.yul\":8373:8376   */\n      0x00\n        /* \"#utility.yul\":8394:8461   */\n      tag_252\n        /* \"#utility.yul\":8458:8460   */\n      0x15\n        /* \"#utility.yul\":8453:8456   */\n      dup4\n        /* \"#utility.yul\":8394:8461   */\n      tag_127\n      jump\t// in\n    tag_252:\n        /* \"#utility.yul\":8387:8461   */\n      swap2\n      pop\n        /* \"#utility.yul\":8470:8563   */\n      tag_253\n        /* \"#utility.yul\":8559:8562   */\n      dup3\n        /* \"#utility.yul\":8470:8563   */\n      tag_154\n      jump\t// in\n    tag_253:\n        /* \"#utility.yul\":8588:8590   */\n      0x20\n        /* \"#utility.yul\":8583:8586   */\n      dup3\n        /* \"#utility.yul\":8579:8591   */\n      add\n        /* \"#utility.yul\":8572:8591   */\n      swap1\n      pop\n        /* \"#utility.yul\":8231:8597   */\n      swap2\n      swap1\n      pop\n      jump\t// out\n        /* \"#utility.yul\":8603:9022   */\n    tag_63:\n        /* \"#utility.yul\":8769:8773   */\n      0x00\n        /* \"#utility.yul\":8807:8809   */\n      0x20\n        /* \"#utility.yul\":8796:8805   */\n      dup3\n        /* \"#utility.yul\":8792:8810   */\n      add\n        /* \"#utility.yul\":8784:8810   */\n      swap1\n      pop\n        /* \"#utility.yul\":8856:8865   */\n      dup2\n        /* \"#utility.yul\":8850:8854   */\n      dup2\n        /* \"#utility.yul\":8846:8866   */\n      sub\n        /* \"#utility.yul\":8842:8843   */\n      0x00\n        /* \"#utility.yul\":8831:8840   */\n      dup4\n        /* \"#utility.yul\":8827:8844   */\n      add\n        /* \"#utility.yul\":8820:8867   */\n      mstore\n        /* \"#utility.yul\":8884:9015   */\n      tag_255\n        /* \"#utility.yul\":9010:9014   */\n      dup2\n        /* \"#utility.yul\":8884:9015   */\n      tag_155\n      jump\t// in\n    tag_255:\n        /* \"#utility.yul\":8876:9015   */\n      swap1\n      pop\n        /* \"#utility.yul\":8603:9022   */\n      swap2\n      swap1\n      pop\n      jump\t// out\n        /* \"#utility.yul\":9028:9127   */\n    tag_156:\n        /* \"#utility.yul\":9080:9086   */\n      0x00\n        /* \"#utility.yul\":9114:9119   */\n      dup2\n        /* \"#utility.yul\":9108:9120   */\n      mload\n        /* \"#utility.yul\":9098:9120   */\n      swap1\n      pop\n        /* \"#utility.yul\":9028:9127   */\n      swap2\n      swap1\n      pop\n      jump\t// out\n        /* \"#utility.yul\":9133:9379   */\n    tag_157:\n        /* \"#utility.yul\":9214:9215   */\n      0x00\n        /* \"#utility.yul\":9224:9337   */\n    tag_258:\n        /* \"#utility.yul\":9238:9244   */\n      dup4\n        /* \"#utility.yul\":9235:9236   */\n      dup2\n        /* \"#utility.yul\":9232:9245   */\n      lt\n        /* \"#utility.yul\":9224:9337   */\n      iszero\n      tag_260\n      jumpi\n        /* \"#utility.yul\":9323:9324   */\n      dup1\n        /* \"#utility.yul\":9318:9321   */\n      dup3\n        /* \"#utility.yul\":9314:9325   */\n      add\n        /* \"#utility.yul\":9308:9326   */\n      mload\n        /* \"#utility.yul\":9304:9305   */\n      dup2\n        /* \"#utility.yul\":9299:9302   */\n      dup5\n        /* \"#utility.yul\":9295:9306   */\n      add\n        /* \"#utility.yul\":9288:9327   */\n      mstore\n        /* \"#utility.yul\":9260:9262   */\n      0x20\n        /* \"#utility.yul\":9257:9258   */\n      dup2\n        /* \"#utility.yul\":9253:9263   */\n      add\n        /* \"#utility.yul\":9248:9263   */\n      swap1\n      pop\n        /* \"#utility.yul\":9224:9337   */\n      jump(tag_258)\n    tag_260:\n        /* \"#utility.yul\":9371:9372   */\n      0x00\n        /* \"#utility.yul\":9362:9368   */\n      dup5\n        /* \"#utility.yul\":9357:9360   */\n      dup5\n        /* \"#utility.yul\":9353:9369   */\n      add\n        /* \"#utility.yul\":9346:9373   */\n      mstore\n        /* \"#utility.yul\":9195:9379   */\n      pop\n        /* \"#utility.yul\":9133:9379   */\n      pop\n      pop\n      pop\n      jump\t// out\n        /* \"#utility.yul\":9385:9762   */\n    tag_158:\n        /* \"#utility.yul\":9473:9476   */\n      0x00\n        /* \"#utility.yul\":9501:9540   */\n      tag_262\n        /* \"#utility.yul\":9534:9539   */\n      dup3\n        /* \"#utility.yul\":9501:9540   */\n      tag_156\n      jump\t// in\n    tag_262:\n        /* \"#utility.yul\":9556:9627   */\n      tag_263\n        /* \"#utility.yul\":9620:9626   */\n      dup2\n        /* \"#utility.yul\":9615:9618   */\n      dup6\n        /* \"#utility.yul\":9556:9627   */\n      tag_127\n      jump\t// in\n    tag_263:\n        /* \"#utility.yul\":9549:9627   */\n      swap4\n      pop\n        /* \"#utility.yul\":9636:9701   */\n      tag_264\n        /* \"#utility.yul\":9694:9700   */\n      dup2\n        /* \"#utility.yul\":9689:9692   */\n      dup6\n        /* \"#utility.yul\":9682:9686   */\n      0x20\n        /* \"#utility.yul\":9675:9680   */\n      dup7\n        /* \"#utility.yul\":9671:9687   */\n      add\n        /* \"#utility.yul\":9636:9701   */\n      tag_157\n      jump\t// in\n    tag_264:\n        /* \"#utility.yul\":9726:9755   */\n      tag_265\n        /* \"#utility.yul\":9748:9754   */\n      dup2\n        /* \"#utility.yul\":9726:9755   */\n      tag_141\n      jump\t// in\n    tag_265:\n        /* \"#utility.yul\":9721:9724   */\n      dup5\n        /* \"#utility.yul\":9717:9756   */\n      add\n        /* \"#utility.yul\":9710:9756   */\n      swap2\n      pop\n        /* \"#utility.yul\":9477:9762   */\n      pop\n        /* \"#utility.yul\":9385:9762   */\n      swap3\n      swap2\n      pop\n      pop\n      jump\t// out\n        /* \"#utility.yul\":9768:10081   */\n    tag_67:\n        /* \"#utility.yul\":9881:9885   */\n      0x00\n        /* \"#utility.yul\":9919:9921   */\n      0x20\n        /* \"#utility.yul\":9908:9917   */\n      dup3\n        /* \"#utility.yul\":9904:9922   */\n      add\n        /* \"#utility.yul\":9896:9922   */\n      swap1\n      pop\n        /* \"#utility.yul\":9968:9977   */\n      dup2\n        /* \"#utility.yul\":9962:9966   */\n      dup2\n        /* \"#utility.yul\":9958:9978   */\n      sub\n        /* \"#utility.yul\":9954:9955   */\n      0x00\n        /* \"#utility.yul\":9943:9952   */\n      dup4\n        /* \"#utility.yul\":9939:9956   */\n      add\n        /* \"#utility.yul\":9932:9979   */\n      mstore\n        /* \"#utility.yul\":9996:10074   */\n      tag_267\n        /* \"#utility.yul\":10069:10073   */\n      dup2\n        /* \"#utility.yul\":10060:10066   */\n      dup5\n        /* \"#utility.yul\":9996:10074   */\n      tag_158\n      jump\t// in\n    tag_267:\n        /* \"#utility.yul\":9988:10074   */\n      swap1\n      pop\n        /* \"#utility.yul\":9768:10081   */\n      swap3\n      swap2\n      pop\n      pop\n      jump\t// out\n        /* \"#utility.yul\":10087:10249   */\n    tag_159:\n        /* \"#utility.yul\":10227:10241   */\n      0x73656c6664657374727563740000000000000000000000000000000000000000\n        /* \"#utility.yul\":10223:10224   */\n      0x00\n        /* \"#utility.yul\":10215:10221   */\n      dup3\n        /* \"#utility.yul\":10211:10225   */\n      add\n        /* \"#utility.yul\":10204:10242   */\n      mstore\n        /* \"#utility.yul\":10087:10249   */\n      pop\n      jump\t// out\n        /* \"#utility.yul\":10255:10621   */\n    tag_160:\n        /* \"#utility.yul\":10397:10400   */\n      0x00\n        /* \"#utility.yul\":10418:10485   */\n      tag_270\n        /* \"#utility.yul\":10482:10484   */\n      0x0c\n        /* \"#utility.yul\":10477:10480   */\n      dup4\n        /* \"#utility.yul\":10418:10485   */\n      tag_127\n      jump\t// in\n    tag_270:\n        /* \"#utility.yul\":10411:10485   */\n      swap2\n      pop\n        /* \"#utility.yul\":10494:10587   */\n      tag_271\n        /* \"#utility.yul\":10583:10586   */\n      dup3\n        /* \"#utility.yul\":10494:10587   */\n      tag_159\n      jump\t// in\n    tag_271:\n        /* \"#utility.yul\":10612:10614   */\n      0x20\n        /* \"#utility.yul\":10607:10610   */\n      dup3\n        /* \"#utility.yul\":10603:10615   */\n      add\n        /* \"#utility.yul\":10596:10615   */\n      swap1\n      pop\n        /* \"#utility.yul\":10255:10621   */\n      swap2\n      swap1\n      pop\n      jump\t// out\n        /* \"#utility.yul\":10627:11572   */\n    tag_69:\n        /* \"#utility.yul\":10949:10953   */\n      0x00\n        /* \"#utility.yul\":10987:10990   */\n      0x80\n        /* \"#utility.yul\":10976:10985   */\n      dup3\n        /* \"#utility.yul\":10972:10991   */\n      add\n        /* \"#utility.yul\":10964:10991   */\n      swap1\n      pop\n        /* \"#utility.yul\":11037:11046   */\n      dup2\n        /* \"#utility.yul\":11031:11035   */\n      dup2\n        /* \"#utility.yul\":11027:11047   */\n      sub\n        /* \"#utility.yul\":11023:11024   */\n      0x00\n        /* \"#utility.yul\":11012:11021   */\n      dup4\n        /* \"#utility.yul\":11008:11025   */\n      add\n        /* \"#utility.yul\":11001:11048   */\n      mstore\n        /* \"#utility.yul\":11065:11196   */\n      tag_273\n        /* \"#utility.yul\":11191:11195   */\n      dup2\n        /* \"#utility.yul\":11065:11196   */\n      tag_160\n      jump\t// in\n    tag_273:\n        /* \"#utility.yul\":11057:11196   */\n      swap1\n      pop\n        /* \"#utility.yul\":11206:11278   */\n      tag_274\n        /* \"#utility.yul\":11274:11276   */\n      0x20\n        /* \"#utility.yul\":11263:11272   */\n      dup4\n        /* \"#utility.yul\":11259:11277   */\n      add\n        /* \"#utility.yul\":11250:11256   */\n      dup6\n        /* \"#utility.yul\":11206:11278   */\n      tag_132\n      jump\t// in\n    tag_274:\n        /* \"#utility.yul\":11288:11360   */\n      tag_275\n        /* \"#utility.yul\":11356:11358   */\n      0x40\n        /* \"#utility.yul\":11345:11354   */\n      dup4\n        /* \"#utility.yul\":11341:11359   */\n      add\n        /* \"#utility.yul\":11332:11338   */\n      dup5\n        /* \"#utility.yul\":11288:11360   */\n      tag_134\n      jump\t// in\n    tag_275:\n        /* \"#utility.yul\":11407:11416   */\n      dup2\n        /* \"#utility.yul\":11401:11405   */\n      dup2\n        /* \"#utility.yul\":11397:11417   */\n      sub\n        /* \"#utility.yul\":11392:11394   */\n      0x60\n        /* \"#utility.yul\":11381:11390   */\n      dup4\n        /* \"#utility.yul\":11377:11395   */\n      add\n        /* \"#utility.yul\":11370:11418   */\n      mstore\n        /* \"#utility.yul\":11435:11565   */\n      tag_276\n        /* \"#utility.yul\":11560:11564   */\n      dup2\n        /* \"#utility.yul\":11435:11565   */\n      tag_137\n      jump\t// in\n    tag_276:\n        /* \"#utility.yul\":11427:11565   */\n      swap1\n      pop\n        /* \"#utility.yul\":10627:11572   */\n      swap4\n      swap3\n      pop\n      pop\n      pop\n      jump\t// out\n        /* \"#utility.yul\":11578:11893   */\n    tag_161:\n        /* \"#utility.yul\":11718:11784   */\n      0xe4b88de99c80e8a681e9a286e5afbce59b9ee7ad94efbc8ce99c80e8a681e590\n        /* \"#utility.yul\":11714:11715   */\n      0x00\n        /* \"#utility.yul\":11706:11712   */\n      dup3\n        /* \"#utility.yul\":11702:11716   */\n      add\n        /* \"#utility.yul\":11695:11785   */\n      mstore\n        /* \"#utility.yul\":11819:11885   */\n      0x8ce5bf97e4bbace69da5e59b9ee7ad9400000000000000000000000000000000\n        /* \"#utility.yul\":11814:11816   */\n      0x20\n        /* \"#utility.yul\":11806:11812   */\n      dup3\n        /* \"#utility.yul\":11802:11817   */\n      add\n        /* \"#utility.yul\":11795:11886   */\n      mstore\n        /* \"#utility.yul\":11578:11893   */\n      pop\n      jump\t// out\n        /* \"#utility.yul\":11899:12265   */\n    tag_162:\n        /* \"#utility.yul\":12041:12044   */\n      0x00\n        /* \"#utility.yul\":12062:12129   */\n      tag_279\n        /* \"#utility.yul\":12126:12128   */\n      0x30\n        /* \"#utility.yul\":12121:12124   */\n      dup4\n        /* \"#utility.yul\":12062:12129   */\n      tag_127\n      jump\t// in\n    tag_279:\n        /* \"#utility.yul\":12055:12129   */\n      swap2\n      pop\n        /* \"#utility.yul\":12138:12231   */\n      tag_280\n        /* \"#utility.yul\":12227:12230   */\n      dup3\n        /* \"#utility.yul\":12138:12231   */\n      tag_161\n      jump\t// in\n    tag_280:\n        /* \"#utility.yul\":12256:12258   */\n      0x40\n        /* \"#utility.yul\":12251:12254   */\n      dup3\n        /* \"#utility.yul\":12247:12259   */\n      add\n        /* \"#utility.yul\":12240:12259   */\n      swap1\n      pop\n        /* \"#utility.yul\":11899:12265   */\n      swap2\n      swap1\n      pop\n      jump\t// out\n        /* \"#utility.yul\":12271:12690   */\n    tag_73:\n        /* \"#utility.yul\":12437:12441   */\n      0x00\n        /* \"#utility.yul\":12475:12477   */\n      0x20\n        /* \"#utility.yul\":12464:12473   */\n      dup3\n        /* \"#utility.yul\":12460:12478   */\n      add\n        /* \"#utility.yul\":12452:12478   */\n      swap1\n      pop\n        /* \"#utility.yul\":12524:12533   */\n      dup2\n        /* \"#utility.yul\":12518:12522   */\n      dup2\n        /* \"#utility.yul\":12514:12534   */\n      sub\n        /* \"#utility.yul\":12510:12511   */\n      0x00\n        /* \"#utility.yul\":12499:12508   */\n      dup4\n        /* \"#utility.yul\":12495:12512   */\n      add\n        /* \"#utility.yul\":12488:12535   */\n      mstore\n        /* \"#utility.yul\":12552:12683   */\n      tag_282\n        /* \"#utility.yul\":12678:12682   */\n      dup2\n        /* \"#utility.yul\":12552:12683   */\n      tag_162\n      jump\t// in\n    tag_282:\n        /* \"#utility.yul\":12544:12683   */\n      swap1\n      pop\n        /* \"#utility.yul\":12271:12690   */\n      swap2\n      swap1\n      pop\n      jump\t// out\n        /* \"#utility.yul\":12696:12910   */\n    tag_163:\n        /* \"#utility.yul\":12836:12902   */\n      0xe5bf85e9a1bbe8afb43ae4b8bae4babae6b091e69c8de58aa100000000000000\n        /* \"#utility.yul\":12832:12833   */\n      0x00\n        /* \"#utility.yul\":12824:12830   */\n      dup3\n        /* \"#utility.yul\":12820:12834   */\n      add\n        /* \"#utility.yul\":12813:12903   */\n      mstore\n        /* \"#utility.yul\":12696:12910   */\n      pop\n      jump\t// out\n        /* \"#utility.yul\":12916:13282   */\n    tag_164:\n        /* \"#utility.yul\":13058:13061   */\n      0x00\n        /* \"#utility.yul\":13079:13146   */\n      tag_285\n        /* \"#utility.yul\":13143:13145   */\n      0x19\n        /* \"#utility.yul\":13138:13141   */\n      dup4\n        /* \"#utility.yul\":13079:13146   */\n      tag_127\n      jump\t// in\n    tag_285:\n        /* \"#utility.yul\":13072:13146   */\n      swap2\n      pop\n        /* \"#utility.yul\":13155:13248   */\n      tag_286\n        /* \"#utility.yul\":13244:13247   */\n      dup3\n        /* \"#utility.yul\":13155:13248   */\n      tag_163\n      jump\t// in\n    tag_286:\n        /* \"#utility.yul\":13273:13275   */\n      0x20\n        /* \"#utility.yul\":13268:13271   */\n      dup3\n        /* \"#utility.yul\":13264:13276   */\n      add\n        /* \"#utility.yul\":13257:13276   */\n      swap1\n      pop\n        /* \"#utility.yul\":12916:13282   */\n      swap2\n      swap1\n      pop\n      jump\t// out\n        /* \"#utility.yul\":13288:13707   */\n    tag_81:\n        /* \"#utility.yul\":13454:13458   */\n      0x00\n        /* \"#utility.yul\":13492:13494   */\n      0x20\n        /* \"#utility.yul\":13481:13490   */\n      dup3\n        /* \"#utility.yul\":13477:13495   */\n      add\n        /* \"#utility.yul\":13469:13495   */\n      swap1\n      pop\n        /* \"#utility.yul\":13541:13550   */\n      dup2\n        /* \"#utility.yul\":13535:13539   */\n      dup2\n        /* \"#utility.yul\":13531:13551   */\n      sub\n        /* \"#utility.yul\":13527:13528   */\n      0x00\n        /* \"#utility.yul\":13516:13525   */\n      dup4\n        /* \"#utility.yul\":13512:13529   */\n      add\n        /* \"#utility.yul\":13505:13552   */\n      mstore\n        /* \"#utility.yul\":13569:13700   */\n      tag_288\n        /* \"#utility.yul\":13695:13699   */\n      dup2\n        /* \"#utility.yul\":13569:13700   */\n      tag_164\n      jump\t// in\n    tag_288:\n        /* \"#utility.yul\":13561:13700   */\n      swap1\n      pop\n        /* \"#utility.yul\":13288:13707   */\n      swap2\n      swap1\n      pop\n      jump\t// out\n        /* \"#utility.yul\":13713:13927   */\n    tag_165:\n        /* \"#utility.yul\":13853:13919   */\n      0xe5bf85e9a1bbe8afb43ae5908ce5bf97e4bbace8be9be88ba6e4ba8600000000\n        /* \"#utility.yul\":13849:13850   */\n      0x00\n        /* \"#utility.yul\":13841:13847   */\n      dup3\n        /* \"#utility.yul\":13837:13851   */\n      add\n        /* \"#utility.yul\":13830:13920   */\n      mstore\n        /* \"#utility.yul\":13713:13927   */\n      pop\n      jump\t// out\n        /* \"#utility.yul\":13933:14299   */\n    tag_166:\n        /* \"#utility.yul\":14075:14078   */\n      0x00\n        /* \"#utility.yul\":14096:14163   */\n      tag_291\n        /* \"#utility.yul\":14160:14162   */\n      0x1c\n        /* \"#utility.yul\":14155:14158   */\n      dup4\n        /* \"#utility.yul\":14096:14163   */\n      tag_127\n      jump\t// in\n    tag_291:\n        /* \"#utility.yul\":14089:14163   */\n      swap2\n      pop\n        /* \"#utility.yul\":14172:14265   */\n      tag_292\n        /* \"#utility.yul\":14261:14264   */\n      dup3\n        /* \"#utility.yul\":14172:14265   */\n      tag_165\n      jump\t// in\n    tag_292:\n        /* \"#utility.yul\":14290:14292   */\n      0x20\n        /* \"#utility.yul\":14285:14288   */\n      dup3\n        /* \"#utility.yul\":14281:14293   */\n      add\n        /* \"#utility.yul\":14274:14293   */\n      swap1\n      pop\n        /* \"#utility.yul\":13933:14299   */\n      swap2\n      swap1\n      pop\n      jump\t// out\n        /* \"#utility.yul\":14305:14724   */\n    tag_92:\n        /* \"#utility.yul\":14471:14475   */\n      0x00\n        /* \"#utility.yul\":14509:14511   */\n      0x20\n        /* \"#utility.yul\":14498:14507   */\n      dup3\n        /* \"#utility.yul\":14494:14512   */\n      add\n        /* \"#utility.yul\":14486:14512   */\n      swap1\n      pop\n        /* \"#utility.yul\":14558:14567   */\n      dup2\n        /* \"#utility.yul\":14552:14556   */\n      dup2\n        /* \"#utility.yul\":14548:14568   */\n      sub\n        /* \"#utility.yul\":14544:14545   */\n      0x00\n        /* \"#utility.yul\":14533:14542   */\n      dup4\n        /* \"#utility.yul\":14529:14546   */\n      add\n        /* \"#utility.yul\":14522:14569   */\n      mstore\n        /* \"#utility.yul\":14586:14717   */\n      tag_294\n        /* \"#utility.yul\":14712:14716   */\n      dup2\n        /* \"#utility.yul\":14586:14717   */\n      tag_166\n      jump\t// in\n    tag_294:\n        /* \"#utility.yul\":14578:14717   */\n      swap1\n      pop\n        /* \"#utility.yul\":14305:14724   */\n      swap2\n      swap1\n      pop\n      jump\t// out\n        /* \"#utility.yul\":14730:15045   */\n    tag_167:\n        /* \"#utility.yul\":14870:14936   */\n      0xe7bb99e992b1efbc81efbc81efbc81e69c80e5b09132e4b8aae4bba5e5a4aae5\n        /* \"#utility.yul\":14866:14867   */\n      0x00\n        /* \"#utility.yul\":14858:14864   */\n      dup3\n        /* \"#utility.yul\":14854:14868   */\n      add\n        /* \"#utility.yul\":14847:14937   */\n      mstore\n        /* \"#utility.yul\":14971:15037   */\n      0xb881000000000000000000000000000000000000000000000000000000000000\n        /* \"#utility.yul\":14966:14968   */\n      0x20\n        /* \"#utility.yul\":14958:14964   */\n      dup3\n        /* \"#utility.yul\":14954:14969   */\n      add\n        /* \"#utility.yul\":14947:15038   */\n      mstore\n        /* \"#utility.yul\":14730:15045   */\n      pop\n      jump\t// out\n        /* \"#utility.yul\":15051:15417   */\n    tag_168:\n        /* \"#utility.yul\":15193:15196   */\n      0x00\n        /* \"#utility.yul\":15214:15281   */\n      tag_297\n        /* \"#utility.yul\":15278:15280   */\n      0x22\n        /* \"#utility.yul\":15273:15276   */\n      dup4\n        /* \"#utility.yul\":15214:15281   */\n      tag_127\n      jump\t// in\n    tag_297:\n        /* \"#utility.yul\":15207:15281   */\n      swap2\n      pop\n        /* \"#utility.yul\":15290:15383   */\n      tag_298\n        /* \"#utility.yul\":15379:15382   */\n      dup3\n        /* \"#utility.yul\":15290:15383   */\n      tag_167\n      jump\t// in\n    tag_298:\n        /* \"#utility.yul\":15408:15410   */\n      0x40\n        /* \"#utility.yul\":15403:15406   */\n      dup3\n        /* \"#utility.yul\":15399:15411   */\n      add\n        /* \"#utility.yul\":15392:15411   */\n      swap1\n      pop\n        /* \"#utility.yul\":15051:15417   */\n      swap2\n      swap1\n      pop\n      jump\t// out\n        /* \"#utility.yul\":15423:15842   */\n    tag_95:\n        /* \"#utility.yul\":15589:15593   */\n      0x00\n        /* \"#utility.yul\":15627:15629   */\n      0x20\n        /* \"#utility.yul\":15616:15625   */\n      dup3\n        /* \"#utility.yul\":15612:15630   */\n      add\n        /* \"#utility.yul\":15604:15630   */\n      swap1\n      pop\n        /* \"#utility.yul\":15676:15685   */\n      dup2\n        /* \"#utility.yul\":15670:15674   */\n      dup2\n        /* \"#utility.yul\":15666:15686   */\n      sub\n        /* \"#utility.yul\":15662:15663   */\n      0x00\n        /* \"#utility.yul\":15651:15660   */\n      dup4\n        /* \"#utility.yul\":15647:15664   */\n      add\n        /* \"#utility.yul\":15640:15687   */\n      mstore\n        /* \"#utility.yul\":15704:15835   */\n      tag_300\n        /* \"#utility.yul\":15830:15834   */\n      dup2\n        /* \"#utility.yul\":15704:15835   */\n      tag_168\n      jump\t// in\n    tag_300:\n        /* \"#utility.yul\":15696:15835   */\n      swap1\n      pop\n        /* \"#utility.yul\":15423:15842   */\n      swap2\n      swap1\n      pop\n      jump\t// out\n        /* \"#utility.yul\":15848:16005   */\n    tag_169:\n        /* \"#utility.yul\":15988:15997   */\n      0x636f6d666f727400000000000000000000000000000000000000000000000000\n        /* \"#utility.yul\":15984:15985   */\n      0x00\n        /* \"#utility.yul\":15976:15982   */\n      dup3\n        /* \"#utility.yul\":15972:15986   */\n      add\n        /* \"#utility.yul\":15965:15998   */\n      mstore\n        /* \"#utility.yul\":15848:16005   */\n      pop\n      jump\t// out\n        /* \"#utility.yul\":16011:16376   */\n    tag_170:\n        /* \"#utility.yul\":16153:16156   */\n      0x00\n        /* \"#utility.yul\":16174:16240   */\n      tag_303\n        /* \"#utility.yul\":16238:16239   */\n      0x07\n        /* \"#utility.yul\":16233:16236   */\n      dup4\n        /* \"#utility.yul\":16174:16240   */\n      tag_127\n      jump\t// in\n    tag_303:\n        /* \"#utility.yul\":16167:16240   */\n      swap2\n      pop\n        /* \"#utility.yul\":16249:16342   */\n      tag_304\n        /* \"#utility.yul\":16338:16341   */\n      dup3\n        /* \"#utility.yul\":16249:16342   */\n      tag_169\n      jump\t// in\n    tag_304:\n        /* \"#utility.yul\":16367:16369   */\n      0x20\n        /* \"#utility.yul\":16362:16365   */\n      dup3\n        /* \"#utility.yul\":16358:16370   */\n      add\n        /* \"#utility.yul\":16351:16370   */\n      swap1\n      pop\n        /* \"#utility.yul\":16011:16376   */\n      swap2\n      swap1\n      pop\n      jump\t// out\n        /* \"#utility.yul\":16382:17239   */\n    tag_98:\n        /* \"#utility.yul\":16660:16664   */\n      0x00\n        /* \"#utility.yul\":16698:16701   */\n      0x80\n        /* \"#utility.yul\":16687:16696   */\n      dup3\n        /* \"#utility.yul\":16683:16702   */\n      add\n        /* \"#utility.yul\":16675:16702   */\n      swap1\n      pop\n        /* \"#utility.yul\":16748:16757   */\n      dup2\n        /* \"#utility.yul\":16742:16746   */\n      dup2\n        /* \"#utility.yul\":16738:16758   */\n      sub\n        /* \"#utility.yul\":16734:16735   */\n      0x00\n        /* \"#utility.yul\":16723:16732   */\n      dup4\n        /* \"#utility.yul\":16719:16736   */\n      add\n        /* \"#utility.yul\":16712:16759   */\n      mstore\n        /* \"#utility.yul\":16776:16907   */\n      tag_306\n        /* \"#utility.yul\":16902:16906   */\n      dup2\n        /* \"#utility.yul\":16776:16907   */\n      tag_170\n      jump\t// in\n    tag_306:\n        /* \"#utility.yul\":16768:16907   */\n      swap1\n      pop\n        /* \"#utility.yul\":16917:16989   */\n      tag_307\n        /* \"#utility.yul\":16985:16987   */\n      0x20\n        /* \"#utility.yul\":16974:16983   */\n      dup4\n        /* \"#utility.yul\":16970:16988   */\n      add\n        /* \"#utility.yul\":16961:16967   */\n      dup8\n        /* \"#utility.yul\":16917:16989   */\n      tag_132\n      jump\t// in\n    tag_307:\n        /* \"#utility.yul\":16999:17071   */\n      tag_308\n        /* \"#utility.yul\":17067:17069   */\n      0x40\n        /* \"#utility.yul\":17056:17065   */\n      dup4\n        /* \"#utility.yul\":17052:17070   */\n      add\n        /* \"#utility.yul\":17043:17049   */\n      dup7\n        /* \"#utility.yul\":16999:17071   */\n      tag_134\n      jump\t// in\n    tag_308:\n        /* \"#utility.yul\":17118:17127   */\n      dup2\n        /* \"#utility.yul\":17112:17116   */\n      dup2\n        /* \"#utility.yul\":17108:17128   */\n      sub\n        /* \"#utility.yul\":17103:17105   */\n      0x60\n        /* \"#utility.yul\":17092:17101   */\n      dup4\n        /* \"#utility.yul\":17088:17106   */\n      add\n        /* \"#utility.yul\":17081:17129   */\n      mstore\n        /* \"#utility.yul\":17146:17232   */\n      tag_309\n        /* \"#utility.yul\":17227:17231   */\n      dup2\n        /* \"#utility.yul\":17218:17224   */\n      dup5\n        /* \"#utility.yul\":17210:17216   */\n      dup7\n        /* \"#utility.yul\":17146:17232   */\n      tag_142\n      jump\t// in\n    tag_309:\n        /* \"#utility.yul\":17138:17232   */\n      swap1\n      pop\n        /* \"#utility.yul\":16382:17239   */\n      swap6\n      swap5\n      pop\n      pop\n      pop\n      pop\n      pop\n      jump\t// out\n        /* \"#utility.yul\":17245:17459   */\n    tag_171:\n        /* \"#utility.yul\":17385:17451   */\n      0xe5bf85e9a1bbe8afb4efbc9ae5908ce5bf97e4bbace5a5bd2100000000000000\n        /* \"#utility.yul\":17381:17382   */\n      0x00\n        /* \"#utility.yul\":17373:17379   */\n      dup3\n        /* \"#utility.yul\":17369:17383   */\n      add\n        /* \"#utility.yul\":17362:17452   */\n      mstore\n        /* \"#utility.yul\":17245:17459   */\n      pop\n      jump\t// out\n        /* \"#utility.yul\":17465:17831   */\n    tag_172:\n        /* \"#utility.yul\":17607:17610   */\n      0x00\n        /* \"#utility.yul\":17628:17695   */\n      tag_312\n        /* \"#utility.yul\":17692:17694   */\n      0x19\n        /* \"#utility.yul\":17687:17690   */\n      dup4\n        /* \"#utility.yul\":17628:17695   */\n      tag_127\n      jump\t// in\n    tag_312:\n        /* \"#utility.yul\":17621:17695   */\n      swap2\n      pop\n        /* \"#utility.yul\":17704:17797   */\n      tag_313\n        /* \"#utility.yul\":17793:17796   */\n      dup3\n        /* \"#utility.yul\":17704:17797   */\n      tag_171\n      jump\t// in\n    tag_313:\n        /* \"#utility.yul\":17822:17824   */\n      0x20\n        /* \"#utility.yul\":17817:17820   */\n      dup3\n        /* \"#utility.yul\":17813:17825   */\n      add\n        /* \"#utility.yul\":17806:17825   */\n      swap1\n      pop\n        /* \"#utility.yul\":17465:17831   */\n      swap2\n      swap1\n      pop\n      jump\t// out\n        /* \"#utility.yul\":17837:18256   */\n    tag_108:\n        /* \"#utility.yul\":18003:18007   */\n      0x00\n        /* \"#utility.yul\":18041:18043   */\n      0x20\n        /* \"#utility.yul\":18030:18039   */\n      dup3\n        /* \"#utility.yul\":18026:18044   */\n      add\n        /* \"#utility.yul\":18018:18044   */\n      swap1\n      pop\n        /* \"#utility.yul\":18090:18099   */\n      dup2\n        /* \"#utility.yul\":18084:18088   */\n      dup2\n        /* \"#utility.yul\":18080:18100   */\n      sub\n        /* \"#utility.yul\":18076:18077   */\n      0x00\n        /* \"#utility.yul\":18065:18074   */\n      dup4\n        /* \"#utility.yul\":18061:18078   */\n      add\n        /* \"#utility.yul\":18054:18101   */\n      mstore\n        /* \"#utility.yul\":18118:18249   */\n      tag_315\n        /* \"#utility.yul\":18244:18248   */\n      dup2\n        /* \"#utility.yul\":18118:18249   */\n      tag_172\n      jump\t// in\n    tag_315:\n        /* \"#utility.yul\":18110:18249   */\n      swap1\n      pop\n        /* \"#utility.yul\":17837:18256   */\n      swap2\n      swap1\n      pop\n      jump\t// out\n        /* \"#utility.yul\":18262:18476   */\n    tag_173:\n        /* \"#utility.yul\":18402:18468   */\n      0xe5bf85e9a1bbe8afb4efbc9ae9a286e5afbce5a5bdefbc810000000000000000\n        /* \"#utility.yul\":18398:18399   */\n      0x00\n        /* \"#utility.yul\":18390:18396   */\n      dup3\n        /* \"#utility.yul\":18386:18400   */\n      add\n        /* \"#utility.yul\":18379:18469   */\n      mstore\n        /* \"#utility.yul\":18262:18476   */\n      pop\n      jump\t// out\n        /* \"#utility.yul\":18482:18848   */\n    tag_174:\n        /* \"#utility.yul\":18624:18627   */\n      0x00\n        /* \"#utility.yul\":18645:18712   */\n      tag_318\n        /* \"#utility.yul\":18709:18711   */\n      0x18\n        /* \"#utility.yul\":18704:18707   */\n      dup4\n        /* \"#utility.yul\":18645:18712   */\n      tag_127\n      jump\t// in\n    tag_318:\n        /* \"#utility.yul\":18638:18712   */\n      swap2\n      pop\n        /* \"#utility.yul\":18721:18814   */\n      tag_319\n        /* \"#utility.yul\":18810:18813   */\n      dup3\n        /* \"#utility.yul\":18721:18814   */\n      tag_173\n      jump\t// in\n    tag_319:\n        /* \"#utility.yul\":18839:18841   */\n      0x20\n        /* \"#utility.yul\":18834:18837   */\n      dup3\n        /* \"#utility.yul\":18830:18842   */\n      add\n        /* \"#utility.yul\":18823:18842   */\n      swap1\n      pop\n        /* \"#utility.yul\":18482:18848   */\n      swap2\n      swap1\n      pop\n      jump\t// out\n        /* \"#utility.yul\":18854:19273   */\n    tag_120:\n        /* \"#utility.yul\":19020:19024   */\n      0x00\n        /* \"#utility.yul\":19058:19060   */\n      0x20\n        /* \"#utility.yul\":19047:19056   */\n      dup3\n        /* \"#utility.yul\":19043:19061   */\n      add\n        /* \"#utility.yul\":19035:19061   */\n      swap1\n      pop\n        /* \"#utility.yul\":19107:19116   */\n      dup2\n        /* \"#utility.yul\":19101:19105   */\n      dup2\n        /* \"#utility.yul\":19097:19117   */\n      sub\n        /* \"#utility.yul\":19093:19094   */\n      0x00\n        /* \"#utility.yul\":19082:19091   */\n      dup4\n        /* \"#utility.yul\":19078:19095   */\n      add\n        /* \"#utility.yul\":19071:19118   */\n      mstore\n        /* \"#utility.yul\":19135:19266   */\n      tag_321\n        /* \"#utility.yul\":19261:19265   */\n      dup2\n        /* \"#utility.yul\":19135:19266   */\n      tag_174\n      jump\t// in\n    tag_321:\n        /* \"#utility.yul\":19127:19266   */\n      swap1\n      pop\n        /* \"#utility.yul\":18854:19273   */\n      swap2\n      swap1\n      pop\n      jump\t// out\n        /* \"#utility.yul\":19279:19427   */\n    tag_175:\n        /* \"#utility.yul\":19381:19392   */\n      0x00\n        /* \"#utility.yul\":19418:19421   */\n      dup2\n        /* \"#utility.yul\":19403:19421   */\n      swap1\n      pop\n        /* \"#utility.yul\":19279:19427   */\n      swap3\n      swap2\n      pop\n      pop\n      jump\t// out\n        /* \"#utility.yul\":19433:19823   */\n    tag_176:\n        /* \"#utility.yul\":19539:19542   */\n      0x00\n        /* \"#utility.yul\":19567:19606   */\n      tag_324\n        /* \"#utility.yul\":19600:19605   */\n      dup3\n        /* \"#utility.yul\":19567:19606   */\n      tag_156\n      jump\t// in\n    tag_324:\n        /* \"#utility.yul\":19622:19711   */\n      tag_325\n        /* \"#utility.yul\":19704:19710   */\n      dup2\n        /* \"#utility.yul\":19699:19702   */\n      dup6\n        /* \"#utility.yul\":19622:19711   */\n      tag_175\n      jump\t// in\n    tag_325:\n        /* \"#utility.yul\":19615:19711   */\n      swap4\n      pop\n        /* \"#utility.yul\":19720:19785   */\n      tag_326\n        /* \"#utility.yul\":19778:19784   */\n      dup2\n        /* \"#utility.yul\":19773:19776   */\n      dup6\n        /* \"#utility.yul\":19766:19770   */\n      0x20\n        /* \"#utility.yul\":19759:19764   */\n      dup7\n        /* \"#utility.yul\":19755:19771   */\n      add\n        /* \"#utility.yul\":19720:19785   */\n      tag_157\n      jump\t// in\n    tag_326:\n        /* \"#utility.yul\":19810:19816   */\n      dup1\n        /* \"#utility.yul\":19805:19808   */\n      dup5\n        /* \"#utility.yul\":19801:19817   */\n      add\n        /* \"#utility.yul\":19794:19817   */\n      swap2\n      pop\n        /* \"#utility.yul\":19543:19823   */\n      pop\n        /* \"#utility.yul\":19433:19823   */\n      swap3\n      swap2\n      pop\n      pop\n      jump\t// out\n        /* \"#utility.yul\":19829:20104   */\n    tag_124:\n        /* \"#utility.yul\":19961:19964   */\n      0x00\n        /* \"#utility.yul\":19983:20078   */\n      tag_328\n        /* \"#utility.yul\":20074:20077   */\n      dup3\n        /* \"#utility.yul\":20065:20071   */\n      dup5\n        /* \"#utility.yul\":19983:20078   */\n      tag_176\n      jump\t// in\n    tag_328:\n        /* \"#utility.yul\":19976:20078   */\n      swap2\n      pop\n        /* \"#utility.yul\":20095:20098   */\n      dup2\n        /* \"#utility.yul\":20088:20098   */\n      swap1\n      pop\n        /* \"#utility.yul\":19829:20104   */\n      swap3\n      swap2\n      pop\n      pop\n      jump\t// out\n        /* \"#utility.yul\":20134:20464   */\n    tag_177:\n        /* \"#utility.yul\":20250:20253   */\n      0x00\n        /* \"#utility.yul\":20271:20360   */\n      tag_330\n        /* \"#utility.yul\":20353:20359   */\n      dup4\n        /* \"#utility.yul\":20348:20351   */\n      dup6\n        /* \"#utility.yul\":20271:20360   */\n      tag_175\n      jump\t// in\n    tag_330:\n        /* \"#utility.yul\":20264:20360   */\n      swap4\n      pop\n        /* \"#utility.yul\":20370:20426   */\n      tag_331\n        /* \"#utility.yul\":20419:20425   */\n      dup4\n        /* \"#utility.yul\":20414:20417   */\n      dup6\n        /* \"#utility.yul\":20407:20412   */\n      dup5\n        /* \"#utility.yul\":20370:20426   */\n      tag_140\n      jump\t// in\n    tag_331:\n        /* \"#utility.yul\":20451:20457   */\n      dup3\n        /* \"#utility.yul\":20446:20449   */\n      dup5\n        /* \"#utility.yul\":20442:20458   */\n      add\n        /* \"#utility.yul\":20435:20458   */\n      swap1\n      pop\n        /* \"#utility.yul\":20134:20464   */\n      swap4\n      swap3\n      pop\n      pop\n      pop\n      jump\t// out\n        /* \"#utility.yul\":20470:20765   */\n    tag_126:\n        /* \"#utility.yul\":20612:20615   */\n      0x00\n        /* \"#utility.yul\":20634:20739   */\n      tag_333\n        /* \"#utility.yul\":20735:20738   */\n      dup3\n        /* \"#utility.yul\":20726:20732   */\n      dup5\n        /* \"#utility.yul\":20718:20724   */\n      dup7\n        /* \"#utility.yul\":20634:20739   */\n      tag_177\n      jump\t// in\n    tag_333:\n        /* \"#utility.yul\":20627:20739   */\n      swap2\n      pop\n        /* \"#utility.yul\":20756:20759   */\n      dup2\n        /* \"#utility.yul\":20749:20759   */\n      swap1\n      pop\n        /* \"#utility.yul\":20470:20765   */\n      swap4\n      swap3\n      pop\n      pop\n      pop\n      jump\t// out\n    stop\n    data_9f5460452fc7333eea0a532bd7629d120e70d3423b7b97eb8188742d72f113df e68891e4b88de79fa5e98193e5a682e4bd95e5a484e79086e5ae832ce4bda0e689bee79bb8e585b3e983a8e997a8e590a721\n\n    auxdata: 0xa2646970667358221220b4f1ec8b47ef2cca1bd04135ea82f606a388118a9368f7bd759ef0f0753d614164736f6c63430008120033\n}\n",
				"bytecode": {
					"linkReferences": {},
					"object": "60a060405260008060006101000a81548160ff021916908360ff1602179055503480156200002c57600080fd5b506040516200188038038062001880833981810160405281019062000052919062000169565b600073ffffffffffffffffffffffffffffffffffffffff168173ffffffffffffffffffffffffffffffffffffffff1603620000c4576040517f08c379a0000000000000000000000000000000000000000000000000000000008152600401620000bb90620001fc565b60405180910390fd5b8073ffffffffffffffffffffffffffffffffffffffff1660808173ffffffffffffffffffffffffffffffffffffffff1681525050506200021e565b600080fd5b600073ffffffffffffffffffffffffffffffffffffffff82169050919050565b6000620001318262000104565b9050919050565b620001438162000124565b81146200014f57600080fd5b50565b600081519050620001638162000138565b92915050565b600060208284031215620001825762000181620000ff565b5b6000620001928482850162000152565b91505092915050565b600082825260208201905092915050565b7f696e76616c696420616464726573730000000000000000000000000000000000600082015250565b6000620001e4600f836200019b565b9150620001f182620001ac565b602082019050919050565b600060208201905081810360008301526200021781620001d5565b9050919050565b6080516116236200025d60003960008181610296015281816103e301528181610409015281816105ee0152818161085c0152610a5b01526116236000f3fe60806040526004361061007f5760003560e01c8063a777d0dc1161004e578063a777d0dc146101c2578063d228d484146101ff578063e25fe1751461022a578063e3b4995914610255576100bf565b80632b68b9c6146100ff57806340eedabb1461012a5780638ab9e66d146101555780638c85d67914610192576100bf565b366100bf577ff7f75251dee7d7fc22deac3247729ebe7c86541f35930bf10c2a4207479a3b6c33346040516100b5929190610d86565b60405180910390a1005b7ff7f75251dee7d7fc22deac3247729ebe7c86541f35930bf10c2a4207479a3b6c33346000366040516100f59493929190610e6e565b60405180910390a1005b34801561010b57600080fd5b50610114610292565b6040516101219190610edc565b60405180910390f35b34801561013657600080fd5b5061013f6103e1565b60405161014c9190610ef7565b60405180910390f35b34801561016157600080fd5b5061017c60048036038101906101779190610f81565b610405565b6040516101899190610edc565b60405180910390f35b6101ac60048036038101906101a79190610f81565b6105ea565b6040516101b99190610edc565b60405180910390f35b3480156101ce57600080fd5b506101e960048036038101906101e49190610f81565b610858565b6040516101f69190610edc565b60405180910390f35b34801561020b57600080fd5b50610214610a3e565b6040516102219190610fce565b60405180910390f35b34801561023657600080fd5b5061023f610a46565b60405161024c9190611005565b60405180910390f35b34801561026157600080fd5b5061027c60048036038101906102779190610f81565b610a57565b6040516102899190610edc565b60405180910390f35b60007f000000000000000000000000000000000000000000000000000000000000000073ffffffffffffffffffffffffffffffffffffffff163373ffffffffffffffffffffffffffffffffffffffff1614610322576040517f08c379a00000000000000000000000000000000000000000000000000000000081526004016103199061106c565b60405180910390fd5b600460008054906101000a900460ff1660ff161461038f576040518060600160405280603281526020016115bc603291396040517f08c379a000000000000000000000000000000000000000000000000000000000815260040161038691906110fa565b60405180910390fd5b7ff7f75251dee7d7fc22deac3247729ebe7c86541f35930bf10c2a4207479a3b6c33476040516103c0929190611168565b60405180910390a13373ffffffffffffffffffffffffffffffffffffffff16ff5b7f000000000000000000000000000000000000000000000000000000000000000081565b60007f000000000000000000000000000000000000000000000000000000000000000073ffffffffffffffffffffffffffffffffffffffff163373ffffffffffffffffffffffffffffffffffffffff1603610495576040517f08c379a000000000000000000000000000000000000000000000000000000000815260040161048c90611229565b60405180910390fd5b600360008054906101000a900460ff1660ff1614610502576040518060600160405280603281526020016115bc603291396040517f08c379a00000000000000000000000000000000000000000000000000000000081526004016104f991906110fa565b60405180910390fd5b61054283836040518060400160405280600f81526020017fe4b8bae4babae6b091e69c8de58aa10000000000000000000000000000000000815250610c3c565b610581576040517f8b3d2d4300000000000000000000000000000000000000000000000000000000815260040161057890611295565b60405180910390fd5b60046000806101000a81548160ff021916908360ff1602179055507ff39143d48d073ee18f9a08fcabdbd340be0b2a698e3e45fc3b4318251131b4fc60008054906101000a900460ff166040516105d89190611005565b60405180910390a16001905092915050565b60007f000000000000000000000000000000000000000000000000000000000000000073ffffffffffffffffffffffffffffffffffffffff163373ffffffffffffffffffffffffffffffffffffffff161461067a576040517f08c379a00000000000000000000000000000000000000000000000000000000081526004016106719061106c565b60405180910390fd5b600260008054906101000a900460ff1660ff16146106e7576040518060600160405280603281526020016115bc603291396040517f08c379a00000000000000000000000000000000000000000000000000000000081526004016106de91906110fa565b60405180910390fd5b61072783836040518060400160405280601281526020017fe5908ce5bf97e4bbace8be9be88ba6e4ba860000000000000000000000000000815250610c3c565b610766576040517f8b3d2d4300000000000000000000000000000000000000000000000000000000815260040161075d90611301565b60405180910390fd5b671bc16d674ec800003410156107b1576040517f8b3d2d430000000000000000000000000000000000000000000000000000000081526004016107a890611393565b60405180910390fd5b60036000806101000a81548160ff021916908360ff1602179055507ff39143d48d073ee18f9a08fcabdbd340be0b2a698e3e45fc3b4318251131b4fc60008054906101000a900460ff166040516108089190611005565b60405180910390a17ff7f75251dee7d7fc22deac3247729ebe7c86541f35930bf10c2a4207479a3b6c333460003660405161084694939291906113ff565b60405180910390a16001905092915050565b60007f000000000000000000000000000000000000000000000000000000000000000073ffffffffffffffffffffffffffffffffffffffff163373ffffffffffffffffffffffffffffffffffffffff16146108e8576040517f08c379a00000000000000000000000000000000000000000000000000000000081526004016108df9061106c565b60405180910390fd5b60008060009054906101000a900460ff1660ff1614610956576040518060600160405280603281526020016115bc603291396040517f08c379a000000000000000000000000000000000000000000000000000000000815260040161094d91906110fa565b60405180910390fd5b61099683836040518060400160405280600c81526020017fe5908ce5bf97e4bbace5a5bd0000000000000000000000000000000000000000815250610c3c565b6109d5576040517f8b3d2d430000000000000000000000000000000000000000000000000000000081526004016109cc9061149e565b60405180910390fd5b60016000806101000a81548160ff021916908360ff1602179055507ff39143d48d073ee18f9a08fcabdbd340be0b2a698e3e45fc3b4318251131b4fc60008054906101000a900460ff16604051610a2c9190611005565b60405180910390a16001905092915050565b600047905090565b60008054906101000a900460ff1681565b60007f000000000000000000000000000000000000000000000000000000000000000073ffffffffffffffffffffffffffffffffffffffff163373ffffffffffffffffffffffffffffffffffffffff1603610ae7576040517f08c379a0000000000000000000000000000000000000000000000000000000008152600401610ade90611229565b60405180910390fd5b600160008054906101000a900460ff1660ff1614610b54576040518060600160405280603281526020016115bc603291396040517f08c379a0000000000000000000000000000000000000000000000000000000008152600401610b4b91906110fa565b60405180910390fd5b610b9483836040518060400160405280600981526020017fe9a286e5afbce5a5bd0000000000000000000000000000000000000000000000815250610c3c565b610bd3576040517f8b3d2d43000000000000000000000000000000000000000000000000000000008152600401610bca9061150a565b60405180910390fd5b60026000806101000a81548160ff021916908360ff1602179055507ff39143d48d073ee18f9a08fcabdbd340be0b2a698e3e45fc3b4318251131b4fc60008054906101000a900460ff16604051610c2a9190611005565b60405180910390a16001905092915050565b600081604051602001610c4f9190611566565b604051602081830303815290604052805190602001208484604051602001610c789291906115a2565b604051602081830303815290604052805190602001201490509392505050565b600082825260208201905092915050565b7f7265636569766500000000000000000000000000000000000000000000000000600082015250565b6000610cdf600783610c98565b9150610cea82610ca9565b602082019050919050565b600073ffffffffffffffffffffffffffffffffffffffff82169050919050565b6000610d2082610cf5565b9050919050565b610d3081610d15565b82525050565b6000819050919050565b610d4981610d36565b82525050565b600082825260208201905092915050565b50565b6000610d70600083610d4f565b9150610d7b82610d60565b600082019050919050565b60006080820190508181036000830152610d9f81610cd2565b9050610dae6020830185610d27565b610dbb6040830184610d40565b8181036060830152610dcc81610d63565b90509392505050565b7f66616c6c6261636b000000000000000000000000000000000000000000000000600082015250565b6000610e0b600883610c98565b9150610e1682610dd5565b602082019050919050565b82818337600083830152505050565b6000601f19601f8301169050919050565b6000610e4d8385610d4f565b9350610e5a838584610e21565b610e6383610e30565b840190509392505050565b60006080820190508181036000830152610e8781610dfe565b9050610e966020830187610d27565b610ea36040830186610d40565b8181036060830152610eb6818486610e41565b905095945050505050565b60008115159050919050565b610ed681610ec1565b82525050565b6000602082019050610ef16000830184610ecd565b92915050565b6000602082019050610f0c6000830184610d27565b92915050565b600080fd5b600080fd5b600080fd5b600080fd5b600080fd5b60008083601f840112610f4157610f40610f1c565b5b8235905067ffffffffffffffff811115610f5e57610f5d610f21565b5b602083019150836001820283011115610f7a57610f79610f26565b5b9250929050565b60008060208385031215610f9857610f97610f12565b5b600083013567ffffffffffffffff811115610fb657610fb5610f17565b5b610fc285828601610f2b565b92509250509250929050565b6000602082019050610fe36000830184610d40565b92915050565b600060ff82169050919050565b610fff81610fe9565b82525050565b600060208201905061101a6000830184610ff6565b92915050565b7fe5bf85e9a1bbe9a286e5afbce6898de883bde8afb40000000000000000000000600082015250565b6000611056601583610c98565b915061106182611020565b602082019050919050565b6000602082019050818103600083015261108581611049565b9050919050565b600081519050919050565b60005b838110156110b557808201518184015260208101905061109a565b60008484015250505050565b60006110cc8261108c565b6110d68185610c98565b93506110e6818560208601611097565b6110ef81610e30565b840191505092915050565b6000602082019050818103600083015261111481846110c1565b905092915050565b7f73656c6664657374727563740000000000000000000000000000000000000000600082015250565b6000611152600c83610c98565b915061115d8261111c565b602082019050919050565b6000608082019050818103600083015261118181611145565b90506111906020830185610d27565b61119d6040830184610d40565b81810360608301526111ae81610d63565b90509392505050565b7fe4b88de99c80e8a681e9a286e5afbce59b9ee7ad94efbc8ce99c80e8a681e59060008201527f8ce5bf97e4bbace69da5e59b9ee7ad9400000000000000000000000000000000602082015250565b6000611213603083610c98565b915061121e826111b7565b604082019050919050565b6000602082019050818103600083015261124281611206565b9050919050565b7fe5bf85e9a1bbe8afb43ae4b8bae4babae6b091e69c8de58aa100000000000000600082015250565b600061127f601983610c98565b915061128a82611249565b602082019050919050565b600060208201905081810360008301526112ae81611272565b9050919050565b7fe5bf85e9a1bbe8afb43ae5908ce5bf97e4bbace8be9be88ba6e4ba8600000000600082015250565b60006112eb601c83610c98565b91506112f6826112b5565b602082019050919050565b6000602082019050818103600083015261131a816112de565b9050919050565b7fe7bb99e992b1efbc81efbc81efbc81e69c80e5b09132e4b8aae4bba5e5a4aae560008201527fb881000000000000000000000000000000000000000000000000000000000000602082015250565b600061137d602283610c98565b915061138882611321565b604082019050919050565b600060208201905081810360008301526113ac81611370565b9050919050565b7f636f6d666f727400000000000000000000000000000000000000000000000000600082015250565b60006113e9600783610c98565b91506113f4826113b3565b602082019050919050565b60006080820190508181036000830152611418816113dc565b90506114276020830187610d27565b6114346040830186610d40565b8181036060830152611447818486610e41565b905095945050505050565b7fe5bf85e9a1bbe8afb4efbc9ae5908ce5bf97e4bbace5a5bd2100000000000000600082015250565b6000611488601983610c98565b915061149382611452565b602082019050919050565b600060208201905081810360008301526114b78161147b565b9050919050565b7fe5bf85e9a1bbe8afb4efbc9ae9a286e5afbce5a5bdefbc810000000000000000600082015250565b60006114f4601883610c98565b91506114ff826114be565b602082019050919050565b60006020820190508181036000830152611523816114e7565b9050919050565b600081905092915050565b60006115408261108c565b61154a818561152a565b935061155a818560208601611097565b80840191505092915050565b60006115728284611535565b915081905092915050565b6000611589838561152a565b9350611596838584610e21565b82840190509392505050565b60006115af82848661157d565b9150819050939250505056fee68891e4b88de79fa5e98193e5a682e4bd95e5a484e79086e5ae832ce4bda0e689bee79bb8e585b3e983a8e997a8e590a721a2646970667358221220b4f1ec8b47ef2cca1bd04135ea82f606a388118a9368f7bd759ef0f0753d614164736f6c63430008120033",
					"opcodes": "PUSH1 0xA0 PUSH1 0x40 MSTORE PUSH1 0x0 DUP1 PUSH1 0x0 PUSH2 0x100 EXP DUP2 SLOAD DUP2 PUSH1 0xFF MUL NOT AND SWAP1 DUP4 PUSH1 0xFF AND MUL OR SWAP1 SSTORE POP CALLVALUE DUP1 ISZERO PUSH3 0x2C JUMPI PUSH1 0x0 DUP1 REVERT JUMPDEST POP PUSH1 0x40 MLOAD PUSH3 0x1880 CODESIZE SUB DUP1 PUSH3 0x1880 DUP4 CODECOPY DUP2 DUP2 ADD PUSH1 0x40 MSTORE DUP2 ADD SWAP1 PUSH3 0x52 SWAP2 SWAP1 PUSH3 0x169 JUMP JUMPDEST PUSH1 0x0 PUSH20 0xFFFFFFFFFFFFFFFFFFFFFFFFFFFFFFFFFFFFFFFF AND DUP2 PUSH20 0xFFFFFFFFFFFFFFFFFFFFFFFFFFFFFFFFFFFFFFFF AND SUB PUSH3 0xC4 JUMPI PUSH1 0x40 MLOAD PUSH32 0x8C379A000000000000000000000000000000000000000000000000000000000 DUP2 MSTORE PUSH1 0x4 ADD PUSH3 0xBB SWAP1 PUSH3 0x1FC JUMP JUMPDEST PUSH1 0x40 MLOAD DUP1 SWAP2 SUB SWAP1 REVERT JUMPDEST DUP1 PUSH20 0xFFFFFFFFFFFFFFFFFFFFFFFFFFFFFFFFFFFFFFFF AND PUSH1 0x80 DUP2 PUSH20 0xFFFFFFFFFFFFFFFFFFFFFFFFFFFFFFFFFFFFFFFF AND DUP2 MSTORE POP POP POP PUSH3 0x21E JUMP JUMPDEST PUSH1 0x0 DUP1 REVERT JUMPDEST PUSH1 0x0 PUSH20 0xFFFFFFFFFFFFFFFFFFFFFFFFFFFFFFFFFFFFFFFF DUP3 AND SWAP1 POP SWAP2 SWAP1 POP JUMP JUMPDEST PUSH1 0x0 PUSH3 0x131 DUP3 PUSH3 0x104 JUMP JUMPDEST SWAP1 POP SWAP2 SWAP1 POP JUMP JUMPDEST PUSH3 0x143 DUP2 PUSH3 0x124 JUMP JUMPDEST DUP2 EQ PUSH3 0x14F JUMPI PUSH1 0x0 DUP1 REVERT JUMPDEST POP JUMP JUMPDEST PUSH1 0x0 DUP2 MLOAD SWAP1 POP PUSH3 0x163 DUP2 PUSH3 0x138 JUMP JUMPDEST SWAP3 SWAP2 POP POP JUMP JUMPDEST PUSH1 0x0 PUSH1 0x20 DUP3 DUP5 SUB SLT ISZERO PUSH3 0x182 JUMPI PUSH3 0x181 PUSH3 0xFF JUMP JUMPDEST JUMPDEST PUSH1 0x0 PUSH3 0x192 DUP5 DUP3 DUP6 ADD PUSH3 0x152 JUMP JUMPDEST SWAP2 POP POP SWAP3 SWAP2 POP POP JUMP JUMPDEST PUSH1 0x0 DUP3 DUP3 MSTORE PUSH1 0x20 DUP3 ADD SWAP1 POP SWAP3 SWAP2 POP POP JUMP JUMPDEST PUSH32 0x696E76616C696420616464726573730000000000000000000000000000000000 PUSH1 0x0 DUP3 ADD MSTORE POP JUMP JUMPDEST PUSH1 0x0 PUSH3 0x1E4 PUSH1 0xF DUP4 PUSH3 0x19B JUMP JUMPDEST SWAP2 POP PUSH3 0x1F1 DUP3 PUSH3 0x1AC JUMP JUMPDEST PUSH1 0x20 DUP3 ADD SWAP1 POP SWAP2 SWAP1 POP JUMP JUMPDEST PUSH1 0x0 PUSH1 0x20 DUP3 ADD SWAP1 POP DUP2 DUP2 SUB PUSH1 0x0 DUP4 ADD MSTORE PUSH3 0x217 DUP2 PUSH3 0x1D5 JUMP JUMPDEST SWAP1 POP SWAP2 SWAP1 POP JUMP JUMPDEST PUSH1 0x80 MLOAD PUSH2 0x1623 PUSH3 0x25D PUSH1 0x0 CODECOPY PUSH1 0x0 DUP2 DUP2 PUSH2 0x296 ADD MSTORE DUP2 DUP2 PUSH2 0x3E3 ADD MSTORE DUP2 DUP2 PUSH2 0x409 ADD MSTORE DUP2 DUP2 PUSH2 0x5EE ADD MSTORE DUP2 DUP2 PUSH2 0x85C ADD MSTORE PUSH2 0xA5B ADD MSTORE PUSH2 0x1623 PUSH1 0x0 RETURN INVALID PUSH1 0x80 PUSH1 0x40 MSTORE PUSH1 0x4 CALLDATASIZE LT PUSH2 0x7F JUMPI PUSH1 0x0 CALLDATALOAD PUSH1 0xE0 SHR DUP1 PUSH4 0xA777D0DC GT PUSH2 0x4E JUMPI DUP1 PUSH4 0xA777D0DC EQ PUSH2 0x1C2 JUMPI DUP1 PUSH4 0xD228D484 EQ PUSH2 0x1FF JUMPI DUP1 PUSH4 0xE25FE175 EQ PUSH2 0x22A JUMPI DUP1 PUSH4 0xE3B49959 EQ PUSH2 0x255 JUMPI PUSH2 0xBF JUMP JUMPDEST DUP1 PUSH4 0x2B68B9C6 EQ PUSH2 0xFF JUMPI DUP1 PUSH4 0x40EEDABB EQ PUSH2 0x12A JUMPI DUP1 PUSH4 0x8AB9E66D EQ PUSH2 0x155 JUMPI DUP1 PUSH4 0x8C85D679 EQ PUSH2 0x192 JUMPI PUSH2 0xBF JUMP JUMPDEST CALLDATASIZE PUSH2 0xBF JUMPI PUSH32 0xF7F75251DEE7D7FC22DEAC3247729EBE7C86541F35930BF10C2A4207479A3B6C CALLER CALLVALUE PUSH1 0x40 MLOAD PUSH2 0xB5 SWAP3 SWAP2 SWAP1 PUSH2 0xD86 JUMP JUMPDEST PUSH1 0x40 MLOAD DUP1 SWAP2 SUB SWAP1 LOG1 STOP JUMPDEST PUSH32 0xF7F75251DEE7D7FC22DEAC3247729EBE7C86541F35930BF10C2A4207479A3B6C CALLER CALLVALUE PUSH1 0x0 CALLDATASIZE PUSH1 0x40 MLOAD PUSH2 0xF5 SWAP5 SWAP4 SWAP3 SWAP2 SWAP1 PUSH2 0xE6E JUMP JUMPDEST PUSH1 0x40 MLOAD DUP1 SWAP2 SUB SWAP1 LOG1 STOP JUMPDEST CALLVALUE DUP1 ISZERO PUSH2 0x10B JUMPI PUSH1 0x0 DUP1 REVERT JUMPDEST POP PUSH2 0x114 PUSH2 0x292 JUMP JUMPDEST PUSH1 0x40 MLOAD PUSH2 0x121 SWAP2 SWAP1 PUSH2 0xEDC JUMP JUMPDEST PUSH1 0x40 MLOAD DUP1 SWAP2 SUB SWAP1 RETURN JUMPDEST CALLVALUE DUP1 ISZERO PUSH2 0x136 JUMPI PUSH1 0x0 DUP1 REVERT JUMPDEST POP PUSH2 0x13F PUSH2 0x3E1 JUMP JUMPDEST PUSH1 0x40 MLOAD PUSH2 0x14C SWAP2 SWAP1 PUSH2 0xEF7 JUMP JUMPDEST PUSH1 0x40 MLOAD DUP1 SWAP2 SUB SWAP1 RETURN JUMPDEST CALLVALUE DUP1 ISZERO PUSH2 0x161 JUMPI PUSH1 0x0 DUP1 REVERT JUMPDEST POP PUSH2 0x17C PUSH1 0x4 DUP1 CALLDATASIZE SUB DUP2 ADD SWAP1 PUSH2 0x177 SWAP2 SWAP1 PUSH2 0xF81 JUMP JUMPDEST PUSH2 0x405 JUMP JUMPDEST PUSH1 0x40 MLOAD PUSH2 0x189 SWAP2 SWAP1 PUSH2 0xEDC JUMP JUMPDEST PUSH1 0x40 MLOAD DUP1 SWAP2 SUB SWAP1 RETURN JUMPDEST PUSH2 0x1AC PUSH1 0x4 DUP1 CALLDATASIZE SUB DUP2 ADD SWAP1 PUSH2 0x1A7 SWAP2 SWAP1 PUSH2 0xF81 JUMP JUMPDEST PUSH2 0x5EA JUMP JUMPDEST PUSH1 0x40 MLOAD PUSH2 0x1B9 SWAP2 SWAP1 PUSH2 0xEDC JUMP JUMPDEST PUSH1 0x40 MLOAD DUP1 SWAP2 SUB SWAP1 RETURN JUMPDEST CALLVALUE DUP1 ISZERO PUSH2 0x1CE JUMPI PUSH1 0x0 DUP1 REVERT JUMPDEST POP PUSH2 0x1E9 PUSH1 0x4 DUP1 CALLDATASIZE SUB DUP2 ADD SWAP1 PUSH2 0x1E4 SWAP2 SWAP1 PUSH2 0xF81 JUMP JUMPDEST PUSH2 0x858 JUMP JUMPDEST PUSH1 0x40 MLOAD PUSH2 0x1F6 SWAP2 SWAP1 PUSH2 0xEDC JUMP JUMPDEST PUSH1 0x40 MLOAD DUP1 SWAP2 SUB SWAP1 RETURN JUMPDEST CALLVALUE DUP1 ISZERO PUSH2 0x20B JUMPI PUSH1 0x0 DUP1 REVERT JUMPDEST POP PUSH2 0x214 PUSH2 0xA3E JUMP JUMPDEST PUSH1 0x40 MLOAD PUSH2 0x221 SWAP2 SWAP1 PUSH2 0xFCE JUMP JUMPDEST PUSH1 0x40 MLOAD DUP1 SWAP2 SUB SWAP1 RETURN JUMPDEST CALLVALUE DUP1 ISZERO PUSH2 0x236 JUMPI PUSH1 0x0 DUP1 REVERT JUMPDEST POP PUSH2 0x23F PUSH2 0xA46 JUMP JUMPDEST PUSH1 0x40 MLOAD PUSH2 0x24C SWAP2 SWAP1 PUSH2 0x1005 JUMP JUMPDEST PUSH1 0x40 MLOAD DUP1 SWAP2 SUB SWAP1 RETURN JUMPDEST CALLVALUE DUP1 ISZERO PUSH2 0x261 JUMPI PUSH1 0x0 DUP1 REVERT JUMPDEST POP PUSH2 0x27C PUSH1 0x4 DUP1 CALLDATASIZE SUB DUP2 ADD SWAP1 PUSH2 0x277 SWAP2 SWAP1 PUSH2 0xF81 JUMP JUMPDEST PUSH2 0xA57 JUMP JUMPDEST PUSH1 0x40 MLOAD PUSH2 0x289 SWAP2 SWAP1 PUSH2 0xEDC JUMP JUMPDEST PUSH1 0x40 MLOAD DUP1 SWAP2 SUB SWAP1 RETURN JUMPDEST PUSH1 0x0 PUSH32 0x0 PUSH20 0xFFFFFFFFFFFFFFFFFFFFFFFFFFFFFFFFFFFFFFFF AND CALLER PUSH20 0xFFFFFFFFFFFFFFFFFFFFFFFFFFFFFFFFFFFFFFFF AND EQ PUSH2 0x322 JUMPI PUSH1 0x40 MLOAD PUSH32 0x8C379A000000000000000000000000000000000000000000000000000000000 DUP2 MSTORE PUSH1 0x4 ADD PUSH2 0x319 SWAP1 PUSH2 0x106C JUMP JUMPDEST PUSH1 0x40 MLOAD DUP1 SWAP2 SUB SWAP1 REVERT JUMPDEST PUSH1 0x4 PUSH1 0x0 DUP1 SLOAD SWAP1 PUSH2 0x100 EXP SWAP1 DIV PUSH1 0xFF AND PUSH1 0xFF AND EQ PUSH2 0x38F JUMPI PUSH1 0x40 MLOAD DUP1 PUSH1 0x60 ADD PUSH1 0x40 MSTORE DUP1 PUSH1 0x32 DUP2 MSTORE PUSH1 0x20 ADD PUSH2 0x15BC PUSH1 0x32 SWAP2 CODECOPY PUSH1 0x40 MLOAD PUSH32 0x8C379A000000000000000000000000000000000000000000000000000000000 DUP2 MSTORE PUSH1 0x4 ADD PUSH2 0x386 SWAP2 SWAP1 PUSH2 0x10FA JUMP JUMPDEST PUSH1 0x40 MLOAD DUP1 SWAP2 SUB SWAP1 REVERT JUMPDEST PUSH32 0xF7F75251DEE7D7FC22DEAC3247729EBE7C86541F35930BF10C2A4207479A3B6C CALLER SELFBALANCE PUSH1 0x40 MLOAD PUSH2 0x3C0 SWAP3 SWAP2 SWAP1 PUSH2 0x1168 JUMP JUMPDEST PUSH1 0x40 MLOAD DUP1 SWAP2 SUB SWAP1 LOG1 CALLER PUSH20 0xFFFFFFFFFFFFFFFFFFFFFFFFFFFFFFFFFFFFFFFF AND SELFDESTRUCT JUMPDEST PUSH32 0x0 DUP2 JUMP JUMPDEST PUSH1 0x0 PUSH32 0x0 PUSH20 0xFFFFFFFFFFFFFFFFFFFFFFFFFFFFFFFFFFFFFFFF AND CALLER PUSH20 0xFFFFFFFFFFFFFFFFFFFFFFFFFFFFFFFFFFFFFFFF AND SUB PUSH2 0x495 JUMPI PUSH1 0x40 MLOAD PUSH32 0x8C379A000000000000000000000000000000000000000000000000000000000 DUP2 MSTORE PUSH1 0x4 ADD PUSH2 0x48C SWAP1 PUSH2 0x1229 JUMP JUMPDEST PUSH1 0x40 MLOAD DUP1 SWAP2 SUB SWAP1 REVERT JUMPDEST PUSH1 0x3 PUSH1 0x0 DUP1 SLOAD SWAP1 PUSH2 0x100 EXP SWAP1 DIV PUSH1 0xFF AND PUSH1 0xFF AND EQ PUSH2 0x502 JUMPI PUSH1 0x40 MLOAD DUP1 PUSH1 0x60 ADD PUSH1 0x40 MSTORE DUP1 PUSH1 0x32 DUP2 MSTORE PUSH1 0x20 ADD PUSH2 0x15BC PUSH1 0x32 SWAP2 CODECOPY PUSH1 0x40 MLOAD PUSH32 0x8C379A000000000000000000000000000000000000000000000000000000000 DUP2 MSTORE PUSH1 0x4 ADD PUSH2 0x4F9 SWAP2 SWAP1 PUSH2 0x10FA JUMP JUMPDEST PUSH1 0x40 MLOAD DUP1 SWAP2 SUB SWAP1 REVERT JUMPDEST PUSH2 0x542 DUP4 DUP4 PUSH1 0x40 MLOAD DUP1 PUSH1 0x40 ADD PUSH1 0x40 MSTORE DUP1 PUSH1 0xF DUP2 MSTORE PUSH1 0x20 ADD PUSH32 0xE4B8BAE4BABAE6B091E69C8DE58AA10000000000000000000000000000000000 DUP2 MSTORE POP PUSH2 0xC3C JUMP JUMPDEST PUSH2 0x581 JUMPI PUSH1 0x40 MLOAD PUSH32 0x8B3D2D4300000000000000000000000000000000000000000000000000000000 DUP2 MSTORE PUSH1 0x4 ADD PUSH2 0x578 SWAP1 PUSH2 0x1295 JUMP JUMPDEST PUSH1 0x40 MLOAD DUP1 SWAP2 SUB SWAP1 REVERT JUMPDEST PUSH1 0x4 PUSH1 0x0 DUP1 PUSH2 0x100 EXP DUP2 SLOAD DUP2 PUSH1 0xFF MUL NOT AND SWAP1 DUP4 PUSH1 0xFF AND MUL OR SWAP1 SSTORE POP PUSH32 0xF39143D48D073EE18F9A08FCABDBD340BE0B2A698E3E45FC3B4318251131B4FC PUSH1 0x0 DUP1 SLOAD SWAP1 PUSH2 0x100 EXP SWAP1 DIV PUSH1 0xFF AND PUSH1 0x40 MLOAD PUSH2 0x5D8 SWAP2 SWAP1 PUSH2 0x1005 JUMP JUMPDEST PUSH1 0x40 MLOAD DUP1 SWAP2 SUB SWAP1 LOG1 PUSH1 0x1 SWAP1 POP SWAP3 SWAP2 POP POP JUMP JUMPDEST PUSH1 0x0 PUSH32 0x0 PUSH20 0xFFFFFFFFFFFFFFFFFFFFFFFFFFFFFFFFFFFFFFFF AND CALLER PUSH20 0xFFFFFFFFFFFFFFFFFFFFFFFFFFFFFFFFFFFFFFFF AND EQ PUSH2 0x67A JUMPI PUSH1 0x40 MLOAD PUSH32 0x8C379A000000000000000000000000000000000000000000000000000000000 DUP2 MSTORE PUSH1 0x4 ADD PUSH2 0x671 SWAP1 PUSH2 0x106C JUMP JUMPDEST PUSH1 0x40 MLOAD DUP1 SWAP2 SUB SWAP1 REVERT JUMPDEST PUSH1 0x2 PUSH1 0x0 DUP1 SLOAD SWAP1 PUSH2 0x100 EXP SWAP1 DIV PUSH1 0xFF AND PUSH1 0xFF AND EQ PUSH2 0x6E7 JUMPI PUSH1 0x40 MLOAD DUP1 PUSH1 0x60 ADD PUSH1 0x40 MSTORE DUP1 PUSH1 0x32 DUP2 MSTORE PUSH1 0x20 ADD PUSH2 0x15BC PUSH1 0x32 SWAP2 CODECOPY PUSH1 0x40 MLOAD PUSH32 0x8C379A000000000000000000000000000000000000000000000000000000000 DUP2 MSTORE PUSH1 0x4 ADD PUSH2 0x6DE SWAP2 SWAP1 PUSH2 0x10FA JUMP JUMPDEST PUSH1 0x40 MLOAD DUP1 SWAP2 SUB SWAP1 REVERT JUMPDEST PUSH2 0x727 DUP4 DUP4 PUSH1 0x40 MLOAD DUP1 PUSH1 0x40 ADD PUSH1 0x40 MSTORE DUP1 PUSH1 0x12 DUP2 MSTORE PUSH1 0x20 ADD PUSH32 0xE5908CE5BF97E4BBACE8BE9BE88BA6E4BA860000000000000000000000000000 DUP2 MSTORE POP PUSH2 0xC3C JUMP JUMPDEST PUSH2 0x766 JUMPI PUSH1 0x40 MLOAD PUSH32 0x8B3D2D4300000000000000000000000000000000000000000000000000000000 DUP2 MSTORE PUSH1 0x4 ADD PUSH2 0x75D SWAP1 PUSH2 0x1301 JUMP JUMPDEST PUSH1 0x40 MLOAD DUP1 SWAP2 SUB SWAP1 REVERT JUMPDEST PUSH8 0x1BC16D674EC80000 CALLVALUE LT ISZERO PUSH2 0x7B1 JUMPI PUSH1 0x40 MLOAD PUSH32 0x8B3D2D4300000000000000000000000000000000000000000000000000000000 DUP2 MSTORE PUSH1 0x4 ADD PUSH2 0x7A8 SWAP1 PUSH2 0x1393 JUMP JUMPDEST PUSH1 0x40 MLOAD DUP1 SWAP2 SUB SWAP1 REVERT JUMPDEST PUSH1 0x3 PUSH1 0x0 DUP1 PUSH2 0x100 EXP DUP2 SLOAD DUP2 PUSH1 0xFF MUL NOT AND SWAP1 DUP4 PUSH1 0xFF AND MUL OR SWAP1 SSTORE POP PUSH32 0xF39143D48D073EE18F9A08FCABDBD340BE0B2A698E3E45FC3B4318251131B4FC PUSH1 0x0 DUP1 SLOAD SWAP1 PUSH2 0x100 EXP SWAP1 DIV PUSH1 0xFF AND PUSH1 0x40 MLOAD PUSH2 0x808 SWAP2 SWAP1 PUSH2 0x1005 JUMP JUMPDEST PUSH1 0x40 MLOAD DUP1 SWAP2 SUB SWAP1 LOG1 PUSH32 0xF7F75251DEE7D7FC22DEAC3247729EBE7C86541F35930BF10C2A4207479A3B6C CALLER CALLVALUE PUSH1 0x0 CALLDATASIZE PUSH1 0x40 MLOAD PUSH2 0x846 SWAP5 SWAP4 SWAP3 SWAP2 SWAP1 PUSH2 0x13FF JUMP JUMPDEST PUSH1 0x40 MLOAD DUP1 SWAP2 SUB SWAP1 LOG1 PUSH1 0x1 SWAP1 POP SWAP3 SWAP2 POP POP JUMP JUMPDEST PUSH1 0x0 PUSH32 0x0 PUSH20 0xFFFFFFFFFFFFFFFFFFFFFFFFFFFFFFFFFFFFFFFF AND CALLER PUSH20 0xFFFFFFFFFFFFFFFFFFFFFFFFFFFFFFFFFFFFFFFF AND EQ PUSH2 0x8E8 JUMPI PUSH1 0x40 MLOAD PUSH32 0x8C379A000000000000000000000000000000000000000000000000000000000 DUP2 MSTORE PUSH1 0x4 ADD PUSH2 0x8DF SWAP1 PUSH2 0x106C JUMP JUMPDEST PUSH1 0x40 MLOAD DUP1 SWAP2 SUB SWAP1 REVERT JUMPDEST PUSH1 0x0 DUP1 PUSH1 0x0 SWAP1 SLOAD SWAP1 PUSH2 0x100 EXP SWAP1 DIV PUSH1 0xFF AND PUSH1 0xFF AND EQ PUSH2 0x956 JUMPI PUSH1 0x40 MLOAD DUP1 PUSH1 0x60 ADD PUSH1 0x40 MSTORE DUP1 PUSH1 0x32 DUP2 MSTORE PUSH1 0x20 ADD PUSH2 0x15BC PUSH1 0x32 SWAP2 CODECOPY PUSH1 0x40 MLOAD PUSH32 0x8C379A000000000000000000000000000000000000000000000000000000000 DUP2 MSTORE PUSH1 0x4 ADD PUSH2 0x94D SWAP2 SWAP1 PUSH2 0x10FA JUMP JUMPDEST PUSH1 0x40 MLOAD DUP1 SWAP2 SUB SWAP1 REVERT JUMPDEST PUSH2 0x996 DUP4 DUP4 PUSH1 0x40 MLOAD DUP1 PUSH1 0x40 ADD PUSH1 0x40 MSTORE DUP1 PUSH1 0xC DUP2 MSTORE PUSH1 0x20 ADD PUSH32 0xE5908CE5BF97E4BBACE5A5BD0000000000000000000000000000000000000000 DUP2 MSTORE POP PUSH2 0xC3C JUMP JUMPDEST PUSH2 0x9D5 JUMPI PUSH1 0x40 MLOAD PUSH32 0x8B3D2D4300000000000000000000000000000000000000000000000000000000 DUP2 MSTORE PUSH1 0x4 ADD PUSH2 0x9CC SWAP1 PUSH2 0x149E JUMP JUMPDEST PUSH1 0x40 MLOAD DUP1 SWAP2 SUB SWAP1 REVERT JUMPDEST PUSH1 0x1 PUSH1 0x0 DUP1 PUSH2 0x100 EXP DUP2 SLOAD DUP2 PUSH1 0xFF MUL NOT AND SWAP1 DUP4 PUSH1 0xFF AND MUL OR SWAP1 SSTORE POP PUSH32 0xF39143D48D073EE18F9A08FCABDBD340BE0B2A698E3E45FC3B4318251131B4FC PUSH1 0x0 DUP1 SLOAD SWAP1 PUSH2 0x100 EXP SWAP1 DIV PUSH1 0xFF AND PUSH1 0x40 MLOAD PUSH2 0xA2C SWAP2 SWAP1 PUSH2 0x1005 JUMP JUMPDEST PUSH1 0x40 MLOAD DUP1 SWAP2 SUB SWAP1 LOG1 PUSH1 0x1 SWAP1 POP SWAP3 SWAP2 POP POP JUMP JUMPDEST PUSH1 0x0 SELFBALANCE SWAP1 POP SWAP1 JUMP JUMPDEST PUSH1 0x0 DUP1 SLOAD SWAP1 PUSH2 0x100 EXP SWAP1 DIV PUSH1 0xFF AND DUP2 JUMP JUMPDEST PUSH1 0x0 PUSH32 0x0 PUSH20 0xFFFFFFFFFFFFFFFFFFFFFFFFFFFFFFFFFFFFFFFF AND CALLER PUSH20 0xFFFFFFFFFFFFFFFFFFFFFFFFFFFFFFFFFFFFFFFF AND SUB PUSH2 0xAE7 JUMPI PUSH1 0x40 MLOAD PUSH32 0x8C379A000000000000000000000000000000000000000000000000000000000 DUP2 MSTORE PUSH1 0x4 ADD PUSH2 0xADE SWAP1 PUSH2 0x1229 JUMP JUMPDEST PUSH1 0x40 MLOAD DUP1 SWAP2 SUB SWAP1 REVERT JUMPDEST PUSH1 0x1 PUSH1 0x0 DUP1 SLOAD SWAP1 PUSH2 0x100 EXP SWAP1 DIV PUSH1 0xFF AND PUSH1 0xFF AND EQ PUSH2 0xB54 JUMPI PUSH1 0x40 MLOAD DUP1 PUSH1 0x60 ADD PUSH1 0x40 MSTORE DUP1 PUSH1 0x32 DUP2 MSTORE PUSH1 0x20 ADD PUSH2 0x15BC PUSH1 0x32 SWAP2 CODECOPY PUSH1 0x40 MLOAD PUSH32 0x8C379A000000000000000000000000000000000000000000000000000000000 DUP2 MSTORE PUSH1 0x4 ADD PUSH2 0xB4B SWAP2 SWAP1 PUSH2 0x10FA JUMP JUMPDEST PUSH1 0x40 MLOAD DUP1 SWAP2 SUB SWAP1 REVERT JUMPDEST PUSH2 0xB94 DUP4 DUP4 PUSH1 0x40 MLOAD DUP1 PUSH1 0x40 ADD PUSH1 0x40 MSTORE DUP1 PUSH1 0x9 DUP2 MSTORE PUSH1 0x20 ADD PUSH32 0xE9A286E5AFBCE5A5BD0000000000000000000000000000000000000000000000 DUP2 MSTORE POP PUSH2 0xC3C JUMP JUMPDEST PUSH2 0xBD3 JUMPI PUSH1 0x40 MLOAD PUSH32 0x8B3D2D4300000000000000000000000000000000000000000000000000000000 DUP2 MSTORE PUSH1 0x4 ADD PUSH2 0xBCA SWAP1 PUSH2 0x150A JUMP JUMPDEST PUSH1 0x40 MLOAD DUP1 SWAP2 SUB SWAP1 REVERT JUMPDEST PUSH1 0x2 PUSH1 0x0 DUP1 PUSH2 0x100 EXP DUP2 SLOAD DUP2 PUSH1 0xFF MUL NOT AND SWAP1 DUP4 PUSH1 0xFF AND MUL OR SWAP1 SSTORE POP PUSH32 0xF39143D48D073EE18F9A08FCABDBD340BE0B2A698E3E45FC3B4318251131B4FC PUSH1 0x0 DUP1 SLOAD SWAP1 PUSH2 0x100 EXP SWAP1 DIV PUSH1 0xFF AND PUSH1 0x40 MLOAD PUSH2 0xC2A SWAP2 SWAP1 PUSH2 0x1005 JUMP JUMPDEST PUSH1 0x40 MLOAD DUP1 SWAP2 SUB SWAP1 LOG1 PUSH1 0x1 SWAP1 POP SWAP3 SWAP2 POP POP JUMP JUMPDEST PUSH1 0x0 DUP2 PUSH1 0x40 MLOAD PUSH1 0x20 ADD PUSH2 0xC4F SWAP2 SWAP1 PUSH2 0x1566 JUMP JUMPDEST PUSH1 0x40 MLOAD PUSH1 0x20 DUP2 DUP4 SUB SUB DUP2 MSTORE SWAP1 PUSH1 0x40 MSTORE DUP1 MLOAD SWAP1 PUSH1 0x20 ADD KECCAK256 DUP5 DUP5 PUSH1 0x40 MLOAD PUSH1 0x20 ADD PUSH2 0xC78 SWAP3 SWAP2 SWAP1 PUSH2 0x15A2 JUMP JUMPDEST PUSH1 0x40 MLOAD PUSH1 0x20 DUP2 DUP4 SUB SUB DUP2 MSTORE SWAP1 PUSH1 0x40 MSTORE DUP1 MLOAD SWAP1 PUSH1 0x20 ADD KECCAK256 EQ SWAP1 POP SWAP4 SWAP3 POP POP POP JUMP JUMPDEST PUSH1 0x0 DUP3 DUP3 MSTORE PUSH1 0x20 DUP3 ADD SWAP1 POP SWAP3 SWAP2 POP POP JUMP JUMPDEST PUSH32 0x7265636569766500000000000000000000000000000000000000000000000000 PUSH1 0x0 DUP3 ADD MSTORE POP JUMP JUMPDEST PUSH1 0x0 PUSH2 0xCDF PUSH1 0x7 DUP4 PUSH2 0xC98 JUMP JUMPDEST SWAP2 POP PUSH2 0xCEA DUP3 PUSH2 0xCA9 JUMP JUMPDEST PUSH1 0x20 DUP3 ADD SWAP1 POP SWAP2 SWAP1 POP JUMP JUMPDEST PUSH1 0x0 PUSH20 0xFFFFFFFFFFFFFFFFFFFFFFFFFFFFFFFFFFFFFFFF DUP3 AND SWAP1 POP SWAP2 SWAP1 POP JUMP JUMPDEST PUSH1 0x0 PUSH2 0xD20 DUP3 PUSH2 0xCF5 JUMP JUMPDEST SWAP1 POP SWAP2 SWAP1 POP JUMP JUMPDEST PUSH2 0xD30 DUP2 PUSH2 0xD15 JUMP JUMPDEST DUP3 MSTORE POP POP JUMP JUMPDEST PUSH1 0x0 DUP2 SWAP1 POP SWAP2 SWAP1 POP JUMP JUMPDEST PUSH2 0xD49 DUP2 PUSH2 0xD36 JUMP JUMPDEST DUP3 MSTORE POP POP JUMP JUMPDEST PUSH1 0x0 DUP3 DUP3 MSTORE PUSH1 0x20 DUP3 ADD SWAP1 POP SWAP3 SWAP2 POP POP JUMP JUMPDEST POP JUMP JUMPDEST PUSH1 0x0 PUSH2 0xD70 PUSH1 0x0 DUP4 PUSH2 0xD4F JUMP JUMPDEST SWAP2 POP PUSH2 0xD7B DUP3 PUSH2 0xD60 JUMP JUMPDEST PUSH1 0x0 DUP3 ADD SWAP1 POP SWAP2 SWAP1 POP JUMP JUMPDEST PUSH1 0x0 PUSH1 0x80 DUP3 ADD SWAP1 POP DUP2 DUP2 SUB PUSH1 0x0 DUP4 ADD MSTORE PUSH2 0xD9F DUP2 PUSH2 0xCD2 JUMP JUMPDEST SWAP1 POP PUSH2 0xDAE PUSH1 0x20 DUP4 ADD DUP6 PUSH2 0xD27 JUMP JUMPDEST PUSH2 0xDBB PUSH1 0x40 DUP4 ADD DUP5 PUSH2 0xD40 JUMP JUMPDEST DUP2 DUP2 SUB PUSH1 0x60 DUP4 ADD MSTORE PUSH2 0xDCC DUP2 PUSH2 0xD63 JUMP JUMPDEST SWAP1 POP SWAP4 SWAP3 POP POP POP JUMP JUMPDEST PUSH32 0x66616C6C6261636B000000000000000000000000000000000000000000000000 PUSH1 0x0 DUP3 ADD MSTORE POP JUMP JUMPDEST PUSH1 0x0 PUSH2 0xE0B PUSH1 0x8 DUP4 PUSH2 0xC98 JUMP JUMPDEST SWAP2 POP PUSH2 0xE16 DUP3 PUSH2 0xDD5 JUMP JUMPDEST PUSH1 0x20 DUP3 ADD SWAP1 POP SWAP2 SWAP1 POP JUMP JUMPDEST DUP3 DUP2 DUP4 CALLDATACOPY PUSH1 0x0 DUP4 DUP4 ADD MSTORE POP POP POP JUMP JUMPDEST PUSH1 0x0 PUSH1 0x1F NOT PUSH1 0x1F DUP4 ADD AND SWAP1 POP SWAP2 SWAP1 POP JUMP JUMPDEST PUSH1 0x0 PUSH2 0xE4D DUP4 DUP6 PUSH2 0xD4F JUMP JUMPDEST SWAP4 POP PUSH2 0xE5A DUP4 DUP6 DUP5 PUSH2 0xE21 JUMP JUMPDEST PUSH2 0xE63 DUP4 PUSH2 0xE30 JUMP JUMPDEST DUP5 ADD SWAP1 POP SWAP4 SWAP3 POP POP POP JUMP JUMPDEST PUSH1 0x0 PUSH1 0x80 DUP3 ADD SWAP1 POP DUP2 DUP2 SUB PUSH1 0x0 DUP4 ADD MSTORE PUSH2 0xE87 DUP2 PUSH2 0xDFE JUMP JUMPDEST SWAP1 POP PUSH2 0xE96 PUSH1 0x20 DUP4 ADD DUP8 PUSH2 0xD27 JUMP JUMPDEST PUSH2 0xEA3 PUSH1 0x40 DUP4 ADD DUP7 PUSH2 0xD40 JUMP JUMPDEST DUP2 DUP2 SUB PUSH1 0x60 DUP4 ADD MSTORE PUSH2 0xEB6 DUP2 DUP5 DUP7 PUSH2 0xE41 JUMP JUMPDEST SWAP1 POP SWAP6 SWAP5 POP POP POP POP POP JUMP JUMPDEST PUSH1 0x0 DUP2 ISZERO ISZERO SWAP1 POP SWAP2 SWAP1 POP JUMP JUMPDEST PUSH2 0xED6 DUP2 PUSH2 0xEC1 JUMP JUMPDEST DUP3 MSTORE POP POP JUMP JUMPDEST PUSH1 0x0 PUSH1 0x20 DUP3 ADD SWAP1 POP PUSH2 0xEF1 PUSH1 0x0 DUP4 ADD DUP5 PUSH2 0xECD JUMP JUMPDEST SWAP3 SWAP2 POP POP JUMP JUMPDEST PUSH1 0x0 PUSH1 0x20 DUP3 ADD SWAP1 POP PUSH2 0xF0C PUSH1 0x0 DUP4 ADD DUP5 PUSH2 0xD27 JUMP JUMPDEST SWAP3 SWAP2 POP POP JUMP JUMPDEST PUSH1 0x0 DUP1 REVERT JUMPDEST PUSH1 0x0 DUP1 REVERT JUMPDEST PUSH1 0x0 DUP1 REVERT JUMPDEST PUSH1 0x0 DUP1 REVERT JUMPDEST PUSH1 0x0 DUP1 REVERT JUMPDEST PUSH1 0x0 DUP1 DUP4 PUSH1 0x1F DUP5 ADD SLT PUSH2 0xF41 JUMPI PUSH2 0xF40 PUSH2 0xF1C JUMP JUMPDEST JUMPDEST DUP3 CALLDATALOAD SWAP1 POP PUSH8 0xFFFFFFFFFFFFFFFF DUP2 GT ISZERO PUSH2 0xF5E JUMPI PUSH2 0xF5D PUSH2 0xF21 JUMP JUMPDEST JUMPDEST PUSH1 0x20 DUP4 ADD SWAP2 POP DUP4 PUSH1 0x1 DUP3 MUL DUP4 ADD GT ISZERO PUSH2 0xF7A JUMPI PUSH2 0xF79 PUSH2 0xF26 JUMP JUMPDEST JUMPDEST SWAP3 POP SWAP3 SWAP1 POP JUMP JUMPDEST PUSH1 0x0 DUP1 PUSH1 0x20 DUP4 DUP6 SUB SLT ISZERO PUSH2 0xF98 JUMPI PUSH2 0xF97 PUSH2 0xF12 JUMP JUMPDEST JUMPDEST PUSH1 0x0 DUP4 ADD CALLDATALOAD PUSH8 0xFFFFFFFFFFFFFFFF DUP2 GT ISZERO PUSH2 0xFB6 JUMPI PUSH2 0xFB5 PUSH2 0xF17 JUMP JUMPDEST JUMPDEST PUSH2 0xFC2 DUP6 DUP3 DUP7 ADD PUSH2 0xF2B JUMP JUMPDEST SWAP3 POP SWAP3 POP POP SWAP3 POP SWAP3 SWAP1 POP JUMP JUMPDEST PUSH1 0x0 PUSH1 0x20 DUP3 ADD SWAP1 POP PUSH2 0xFE3 PUSH1 0x0 DUP4 ADD DUP5 PUSH2 0xD40 JUMP JUMPDEST SWAP3 SWAP2 POP POP JUMP JUMPDEST PUSH1 0x0 PUSH1 0xFF DUP3 AND SWAP1 POP SWAP2 SWAP1 POP JUMP JUMPDEST PUSH2 0xFFF DUP2 PUSH2 0xFE9 JUMP JUMPDEST DUP3 MSTORE POP POP JUMP JUMPDEST PUSH1 0x0 PUSH1 0x20 DUP3 ADD SWAP1 POP PUSH2 0x101A PUSH1 0x0 DUP4 ADD DUP5 PUSH2 0xFF6 JUMP JUMPDEST SWAP3 SWAP2 POP POP JUMP JUMPDEST PUSH32 0xE5BF85E9A1BBE9A286E5AFBCE6898DE883BDE8AFB40000000000000000000000 PUSH1 0x0 DUP3 ADD MSTORE POP JUMP JUMPDEST PUSH1 0x0 PUSH2 0x1056 PUSH1 0x15 DUP4 PUSH2 0xC98 JUMP JUMPDEST SWAP2 POP PUSH2 0x1061 DUP3 PUSH2 0x1020 JUMP JUMPDEST PUSH1 0x20 DUP3 ADD SWAP1 POP SWAP2 SWAP1 POP JUMP JUMPDEST PUSH1 0x0 PUSH1 0x20 DUP3 ADD SWAP1 POP DUP2 DUP2 SUB PUSH1 0x0 DUP4 ADD MSTORE PUSH2 0x1085 DUP2 PUSH2 0x1049 JUMP JUMPDEST SWAP1 POP SWAP2 SWAP1 POP JUMP JUMPDEST PUSH1 0x0 DUP2 MLOAD SWAP1 POP SWAP2 SWAP1 POP JUMP JUMPDEST PUSH1 0x0 JUMPDEST DUP4 DUP2 LT ISZERO PUSH2 0x10B5 JUMPI DUP1 DUP3 ADD MLOAD DUP2 DUP5 ADD MSTORE PUSH1 0x20 DUP2 ADD SWAP1 POP PUSH2 0x109A JUMP JUMPDEST PUSH1 0x0 DUP5 DUP5 ADD MSTORE POP POP POP POP JUMP JUMPDEST PUSH1 0x0 PUSH2 0x10CC DUP3 PUSH2 0x108C JUMP JUMPDEST PUSH2 0x10D6 DUP2 DUP6 PUSH2 0xC98 JUMP JUMPDEST SWAP4 POP PUSH2 0x10E6 DUP2 DUP6 PUSH1 0x20 DUP7 ADD PUSH2 0x1097 JUMP JUMPDEST PUSH2 0x10EF DUP2 PUSH2 0xE30 JUMP JUMPDEST DUP5 ADD SWAP2 POP POP SWAP3 SWAP2 POP POP JUMP JUMPDEST PUSH1 0x0 PUSH1 0x20 DUP3 ADD SWAP1 POP DUP2 DUP2 SUB PUSH1 0x0 DUP4 ADD MSTORE PUSH2 0x1114 DUP2 DUP5 PUSH2 0x10C1 JUMP JUMPDEST SWAP1 POP SWAP3 SWAP2 POP POP JUMP JUMPDEST PUSH32 0x73656C6664657374727563740000000000000000000000000000000000000000 PUSH1 0x0 DUP3 ADD MSTORE POP JUMP JUMPDEST PUSH1 0x0 PUSH2 0x1152 PUSH1 0xC DUP4 PUSH2 0xC98 JUMP JUMPDEST SWAP2 POP PUSH2 0x115D DUP3 PUSH2 0x111C JUMP JUMPDEST PUSH1 0x20 DUP3 ADD SWAP1 POP SWAP2 SWAP1 POP JUMP JUMPDEST PUSH1 0x0 PUSH1 0x80 DUP3 ADD SWAP1 POP DUP2 DUP2 SUB PUSH1 0x0 DUP4 ADD MSTORE PUSH2 0x1181 DUP2 PUSH2 0x1145 JUMP JUMPDEST SWAP1 POP PUSH2 0x1190 PUSH1 0x20 DUP4 ADD DUP6 PUSH2 0xD27 JUMP JUMPDEST PUSH2 0x119D PUSH1 0x40 DUP4 ADD DUP5 PUSH2 0xD40 JUMP JUMPDEST DUP2 DUP2 SUB PUSH1 0x60 DUP4 ADD MSTORE PUSH2 0x11AE DUP2 PUSH2 0xD63 JUMP JUMPDEST SWAP1 POP SWAP4 SWAP3 POP POP POP JUMP JUMPDEST PUSH32 0xE4B88DE99C80E8A681E9A286E5AFBCE59B9EE7AD94EFBC8CE99C80E8A681E590 PUSH1 0x0 DUP3 ADD MSTORE PUSH32 0x8CE5BF97E4BBACE69DA5E59B9EE7AD9400000000000000000000000000000000 PUSH1 0x20 DUP3 ADD MSTORE POP JUMP JUMPDEST PUSH1 0x0 PUSH2 0x1213 PUSH1 0x30 DUP4 PUSH2 0xC98 JUMP JUMPDEST SWAP2 POP PUSH2 0x121E DUP3 PUSH2 0x11B7 JUMP JUMPDEST PUSH1 0x40 DUP3 ADD SWAP1 POP SWAP2 SWAP1 POP JUMP JUMPDEST PUSH1 0x0 PUSH1 0x20 DUP3 ADD SWAP1 POP DUP2 DUP2 SUB PUSH1 0x0 DUP4 ADD MSTORE PUSH2 0x1242 DUP2 PUSH2 0x1206 JUMP JUMPDEST SWAP1 POP SWAP2 SWAP1 POP JUMP JUMPDEST PUSH32 0xE5BF85E9A1BBE8AFB43AE4B8BAE4BABAE6B091E69C8DE58AA100000000000000 PUSH1 0x0 DUP3 ADD MSTORE POP JUMP JUMPDEST PUSH1 0x0 PUSH2 0x127F PUSH1 0x19 DUP4 PUSH2 0xC98 JUMP JUMPDEST SWAP2 POP PUSH2 0x128A DUP3 PUSH2 0x1249 JUMP JUMPDEST PUSH1 0x20 DUP3 ADD SWAP1 POP SWAP2 SWAP1 POP JUMP JUMPDEST PUSH1 0x0 PUSH1 0x20 DUP3 ADD SWAP1 POP DUP2 DUP2 SUB PUSH1 0x0 DUP4 ADD MSTORE PUSH2 0x12AE DUP2 PUSH2 0x1272 JUMP JUMPDEST SWAP1 POP SWAP2 SWAP1 POP JUMP JUMPDEST PUSH32 0xE5BF85E9A1BBE8AFB43AE5908CE5BF97E4BBACE8BE9BE88BA6E4BA8600000000 PUSH1 0x0 DUP3 ADD MSTORE POP JUMP JUMPDEST PUSH1 0x0 PUSH2 0x12EB PUSH1 0x1C DUP4 PUSH2 0xC98 JUMP JUMPDEST SWAP2 POP PUSH2 0x12F6 DUP3 PUSH2 0x12B5 JUMP JUMPDEST PUSH1 0x20 DUP3 ADD SWAP1 POP SWAP2 SWAP1 POP JUMP JUMPDEST PUSH1 0x0 PUSH1 0x20 DUP3 ADD SWAP1 POP DUP2 DUP2 SUB PUSH1 0x0 DUP4 ADD MSTORE PUSH2 0x131A DUP2 PUSH2 0x12DE JUMP JUMPDEST SWAP1 POP SWAP2 SWAP1 POP JUMP JUMPDEST PUSH32 0xE7BB99E992B1EFBC81EFBC81EFBC81E69C80E5B09132E4B8AAE4BBA5E5A4AAE5 PUSH1 0x0 DUP3 ADD MSTORE PUSH32 0xB881000000000000000000000000000000000000000000000000000000000000 PUSH1 0x20 DUP3 ADD MSTORE POP JUMP JUMPDEST PUSH1 0x0 PUSH2 0x137D PUSH1 0x22 DUP4 PUSH2 0xC98 JUMP JUMPDEST SWAP2 POP PUSH2 0x1388 DUP3 PUSH2 0x1321 JUMP JUMPDEST PUSH1 0x40 DUP3 ADD SWAP1 POP SWAP2 SWAP1 POP JUMP JUMPDEST PUSH1 0x0 PUSH1 0x20 DUP3 ADD SWAP1 POP DUP2 DUP2 SUB PUSH1 0x0 DUP4 ADD MSTORE PUSH2 0x13AC DUP2 PUSH2 0x1370 JUMP JUMPDEST SWAP1 POP SWAP2 SWAP1 POP JUMP JUMPDEST PUSH32 0x636F6D666F727400000000000000000000000000000000000000000000000000 PUSH1 0x0 DUP3 ADD MSTORE POP JUMP JUMPDEST PUSH1 0x0 PUSH2 0x13E9 PUSH1 0x7 DUP4 PUSH2 0xC98 JUMP JUMPDEST SWAP2 POP PUSH2 0x13F4 DUP3 PUSH2 0x13B3 JUMP JUMPDEST PUSH1 0x20 DUP3 ADD SWAP1 POP SWAP2 SWAP1 POP JUMP JUMPDEST PUSH1 0x0 PUSH1 0x80 DUP3 ADD SWAP1 POP DUP2 DUP2 SUB PUSH1 0x0 DUP4 ADD MSTORE PUSH2 0x1418 DUP2 PUSH2 0x13DC JUMP JUMPDEST SWAP1 POP PUSH2 0x1427 PUSH1 0x20 DUP4 ADD DUP8 PUSH2 0xD27 JUMP JUMPDEST PUSH2 0x1434 PUSH1 0x40 DUP4 ADD DUP7 PUSH2 0xD40 JUMP JUMPDEST DUP2 DUP2 SUB PUSH1 0x60 DUP4 ADD MSTORE PUSH2 0x1447 DUP2 DUP5 DUP7 PUSH2 0xE41 JUMP JUMPDEST SWAP1 POP SWAP6 SWAP5 POP POP POP POP POP JUMP JUMPDEST PUSH32 0xE5BF85E9A1BBE8AFB4EFBC9AE5908CE5BF97E4BBACE5A5BD2100000000000000 PUSH1 0x0 DUP3 ADD MSTORE POP JUMP JUMPDEST PUSH1 0x0 PUSH2 0x1488 PUSH1 0x19 DUP4 PUSH2 0xC98 JUMP JUMPDEST SWAP2 POP PUSH2 0x1493 DUP3 PUSH2 0x1452 JUMP JUMPDEST PUSH1 0x20 DUP3 ADD SWAP1 POP SWAP2 SWAP1 POP JUMP JUMPDEST PUSH1 0x0 PUSH1 0x20 DUP3 ADD SWAP1 POP DUP2 DUP2 SUB PUSH1 0x0 DUP4 ADD MSTORE PUSH2 0x14B7 DUP2 PUSH2 0x147B JUMP JUMPDEST SWAP1 POP SWAP2 SWAP1 POP JUMP JUMPDEST PUSH32 0xE5BF85E9A1BBE8AFB4EFBC9AE9A286E5AFBCE5A5BDEFBC810000000000000000 PUSH1 0x0 DUP3 ADD MSTORE POP JUMP JUMPDEST PUSH1 0x0 PUSH2 0x14F4 PUSH1 0x18 DUP4 PUSH2 0xC98 JUMP JUMPDEST SWAP2 POP PUSH2 0x14FF DUP3 PUSH2 0x14BE JUMP JUMPDEST PUSH1 0x20 DUP3 ADD SWAP1 POP SWAP2 SWAP1 POP JUMP JUMPDEST PUSH1 0x0 PUSH1 0x20 DUP3 ADD SWAP1 POP DUP2 DUP2 SUB PUSH1 0x0 DUP4 ADD MSTORE PUSH2 0x1523 DUP2 PUSH2 0x14E7 JUMP JUMPDEST SWAP1 POP SWAP2 SWAP1 POP JUMP JUMPDEST PUSH1 0x0 DUP2 SWAP1 POP SWAP3 SWAP2 POP POP JUMP JUMPDEST PUSH1 0x0 PUSH2 0x1540 DUP3 PUSH2 0x108C JUMP JUMPDEST PUSH2 0x154A DUP2 DUP6 PUSH2 0x152A JUMP JUMPDEST SWAP4 POP PUSH2 0x155A DUP2 DUP6 PUSH1 0x20 DUP7 ADD PUSH2 0x1097 JUMP JUMPDEST DUP1 DUP5 ADD SWAP2 POP POP SWAP3 SWAP2 POP POP JUMP JUMPDEST PUSH1 0x0 PUSH2 0x1572 DUP3 DUP5 PUSH2 0x1535 JUMP JUMPDEST SWAP2 POP DUP2 SWAP1 POP SWAP3 SWAP2 POP POP JUMP JUMPDEST PUSH1 0x0 PUSH2 0x1589 DUP4 DUP6 PUSH2 0x152A JUMP JUMPDEST SWAP4 POP PUSH2 0x1596 DUP4 DUP6 DUP5 PUSH2 0xE21 JUMP JUMPDEST DUP3 DUP5 ADD SWAP1 POP SWAP4 SWAP3 POP POP POP JUMP JUMPDEST PUSH1 0x0 PUSH2 0x15AF DUP3 DUP5 DUP7 PUSH2 0x157D JUMP JUMPDEST SWAP2 POP DUP2 SWAP1 POP SWAP4 SWAP3 POP POP POP JUMP INVALID 0xE6 DUP9 SWAP2 0xE4 0xB8 DUP14 0xE7 SWAP16 0xA5 0xE9 DUP2 SWAP4 0xE5 0xA6 DUP3 0xE4 0xBD SWAP6 0xE5 LOG4 DUP5 0xE7 SWAP1 DUP7 0xE5 0xAE DUP4 0x2C 0xE4 0xBD LOG0 0xE6 DUP10 0xBE 0xE7 SWAP12 0xB8 0xE5 DUP6 0xB3 0xE9 DUP4 0xA8 0xE9 SWAP8 0xA8 0xE5 SWAP1 0xA7 0x21 LOG2 PUSH5 0x6970667358 0x22 SLT KECCAK256 0xB4 CALL 0xEC DUP12 SELFBALANCE 0xEF 0x2C 0xCA SHL 0xD0 COINBASE CALLDATALOAD 0xEA DUP3 0xF6 MOD LOG3 DUP9 GT DUP11 SWAP4 PUSH9 0xF7BD759EF0F0753D61 COINBASE PUSH5 0x736F6C6343 STOP ADDMOD SLT STOP CALLER "
				},
				"gasEstimates": {
					"creation": {
						"codeDepositCost": "1133400",
						"executionCost": "infinite",
						"totalCost": "infinite"
					},
					"external": {
						"": "infinite",
						"comfort(string)": "infinite",
						"comfortRes(string)": "infinite",
						"destruct()": "infinite",
						"getBanlance()": "361",
						"hello(string)": "infinite",
						"helloRes(string)": "infinite",
						"leader()": "infinite",
						"step()": "2512"
					},
					"internal": {
						"review(string calldata,string memory)": "infinite"
					}
				},
				"methodIdentifiers": {
					"comfort(string)": "8c85d679",
					"comfortRes(string)": "8ab9e66d",
					"destruct()": "2b68b9c6",
					"getBanlance()": "d228d484",
					"hello(string)": "a777d0dc",
					"helloRes(string)": "e3b49959",
					"leader()": "40eedabb",
					"step()": "e25fe175"
				}
			},
			"storageLayout": {
				"storage": [
					{
						"astId": 6,
						"contract": "contracts/HelloComrades.sol:HelloComrades",
						"label": "step",
						"offset": 0,
						"slot": "0",
						"type": "t_uint8"
					}
				],
				"types": {
					"t_uint8": {
						"encoding": "inplace",
						"label": "uint8",
						"numberOfBytes": "1"
					}
				}
			},
			"userdoc": {
				"errors": {
					"MyError(string)": [
						{
							"notice": "自定义的错误，这种注释内容会在错误时显示出来"
						}
					]
				},
				"events": {
					"Log(string,address,uint256,bytes)": {
						"notice": "用于对当前合约的金额变动通知"
					},
					"Step(uint8)": {
						"notice": "用于对当前 step 被修改时的信息通知"
					}
				},
				"kind": "user",
				"methods": {
					"comfort(string)": {
						"notice": "用于领导说\"同志们辛苦了\""
					},
					"comfortRes(string)": {
						"notice": "用于同志们说\"为人民服务\""
					},
					"destruct()": {
						"notice": "用于领导对"
					},
					"getBanlance()": {
						"notice": "用于获取当前合约内的余额"
					},
					"hello(string)": {
						"notice": "用于领导说\"同志们好\""
					},
					"helloRes(string)": {
						"notice": "用于同志们说\"领导好\""
					},
					"leader()": {
						"notice": "用于标记领导地址"
					},
					"step()": {
						"notice": "用于标记当前进度"
					}
				},
				"notice": "您只能将此合约用于最基本的模拟演示",
				"version": 1
			}
		}
	}
}