{
	"contracts/artifacts/C.sol": {
		"C": {
			"abi": [
				{
					"inputs": [
						{
							"internalType": "uint256",
							"name": "len",
							"type": "uint256"
						}
					],
					"name": "f",
					"outputs": [],
					"stateMutability": "pure",
					"type": "function"
				}
			],
			"devdoc": {
				"kind": "dev",
				"methods": {},
				"version": 1
			},
			"evm": {
				"assembly": "    /* \"contracts/artifacts/C.sol\":69:436  contract C {... */\n  mstore(0x40, 0x80)\n  callvalue\n  dup1\n  iszero\n  tag_1\n  jumpi\n  0x00\n  dup1\n  revert\ntag_1:\n  pop\n  dataSize(sub_0)\n  dup1\n  dataOffset(sub_0)\n  0x00\n  codecopy\n  0x00\n  return\nstop\n\nsub_0: assembly {\n        /* \"contracts/artifacts/C.sol\":69:436  contract C {... */\n      mstore(0x40, 0x80)\n      callvalue\n      dup1\n      iszero\n      tag_1\n      jumpi\n      0x00\n      dup1\n      revert\n    tag_1:\n      pop\n      jumpi(tag_2, lt(calldatasize, 0x04))\n      shr(0xe0, calldataload(0x00))\n      dup1\n      0xb3de648b\n      eq\n      tag_3\n      jumpi\n    tag_2:\n      0x00\n      dup1\n      revert\n        /* \"contracts/artifacts/C.sol\":86:434  function f(uint len) public pure {... */\n    tag_3:\n      tag_4\n      0x04\n      dup1\n      calldatasize\n      sub\n      dup2\n      add\n      swap1\n      tag_5\n      swap2\n      swap1\n      tag_6\n      jump\t// in\n    tag_5:\n      tag_7\n      jump\t// in\n    tag_4:\n      stop\n    tag_7:\n        /* \"contracts/artifacts/C.sol\":129:144  uint[] memory a */\n      0x00\n        /* \"contracts/artifacts/C.sol\":158:159  7 */\n      0x07\n        /* \"contracts/artifacts/C.sol\":147:160  new uint[](7) */\n      0xffffffffffffffff\n      dup2\n      gt\n      iszero\n      tag_9\n      jumpi\n      tag_10\n      tag_11\n      jump\t// in\n    tag_10:\n    tag_9:\n      mload(0x40)\n      swap1\n      dup1\n      dup3\n      mstore\n      dup1\n      0x20\n      mul\n      0x20\n      add\n      dup3\n      add\n      0x40\n      mstore\n      dup1\n      iszero\n      tag_12\n      jumpi\n      dup2\n      0x20\n      add\n      0x20\n      dup3\n      mul\n      dup1\n      calldatasize\n      dup4\n      calldatacopy\n      dup1\n      dup3\n      add\n      swap2\n      pop\n      pop\n      swap1\n      pop\n    tag_12:\n      pop\n        /* \"contracts/artifacts/C.sol\":129:160  uint[] memory a = new uint[](7) */\n      swap1\n      pop\n        /* \"contracts/artifacts/C.sol\":170:184  bytes memory b */\n      0x00\n        /* \"contracts/artifacts/C.sol\":197:200  len */\n      dup3\n        /* \"contracts/artifacts/C.sol\":187:201  new bytes(len) */\n      0xffffffffffffffff\n      dup2\n      gt\n      iszero\n      tag_13\n      jumpi\n      tag_14\n      tag_11\n      jump\t// in\n    tag_14:\n    tag_13:\n      mload(0x40)\n      swap1\n      dup1\n      dup3\n      mstore\n      dup1\n      0x1f\n      add\n      not(0x1f)\n      and\n      0x20\n      add\n      dup3\n      add\n      0x40\n      mstore\n      dup1\n      iszero\n      tag_15\n      jumpi\n      dup2\n      0x20\n      add\n      0x01\n      dup3\n      mul\n      dup1\n      calldatasize\n      dup4\n      calldatacopy\n      dup1\n      dup3\n      add\n      swap2\n      pop\n      pop\n      swap1\n      pop\n    tag_15:\n      pop\n        /* \"contracts/artifacts/C.sol\":170:201  bytes memory b = new bytes(len) */\n      swap1\n      pop\n        /* \"contracts/artifacts/C.sol\":231:232  7 */\n      0x07\n        /* \"contracts/artifacts/C.sol\":219:220  a */\n      dup3\n        /* \"contracts/artifacts/C.sol\":219:227  a.length */\n      mload\n        /* \"contracts/artifacts/C.sol\":219:232  a.length == 7 */\n      eq\n        /* \"contracts/artifacts/C.sol\":211:233  assert (a.length == 7) */\n      tag_16\n      jumpi\n      tag_17\n      tag_18\n      jump\t// in\n    tag_17:\n    tag_16:\n        /* \"contracts/artifacts/C.sol\":262:265  len */\n      dup3\n        /* \"contracts/artifacts/C.sol\":250:251  b */\n      dup2\n        /* \"contracts/artifacts/C.sol\":250:258  b.length */\n      mload\n        /* \"contracts/artifacts/C.sol\":250:265  b.length == len */\n      eq\n        /* \"contracts/artifacts/C.sol\":243:266  assert(b.length == len) */\n      tag_19\n      jumpi\n      tag_20\n      tag_18\n      jump\t// in\n    tag_20:\n    tag_19:\n        /* \"contracts/artifacts/C.sol\":283:284  8 */\n      0x08\n        /* \"contracts/artifacts/C.sol\":276:277  a */\n      dup3\n        /* \"contracts/artifacts/C.sol\":278:279  6 */\n      0x06\n        /* \"contracts/artifacts/C.sol\":276:280  a[6] */\n      dup2\n      mload\n      dup2\n      lt\n      tag_21\n      jumpi\n      tag_22\n      tag_23\n      jump\t// in\n    tag_22:\n    tag_21:\n      0x20\n      mul\n      0x20\n      add\n      add\n        /* \"contracts/artifacts/C.sol\":276:284  a[6] = 8 */\n      dup2\n      dup2\n      mstore\n      pop\n      pop\n        /* \"contracts/artifacts/C.sol\":341:356  uint[] memory x */\n      0x00\n        /* \"contracts/artifacts/C.sol\":370:371  3 */\n      0x03\n        /* \"contracts/artifacts/C.sol\":359:372  new uint[](3) */\n      0xffffffffffffffff\n      dup2\n      gt\n      iszero\n      tag_24\n      jumpi\n      tag_25\n      tag_11\n      jump\t// in\n    tag_25:\n    tag_24:\n      mload(0x40)\n      swap1\n      dup1\n      dup3\n      mstore\n      dup1\n      0x20\n      mul\n      0x20\n      add\n      dup3\n      add\n      0x40\n      mstore\n      dup1\n      iszero\n      tag_26\n      jumpi\n      dup2\n      0x20\n      add\n      0x20\n      dup3\n      mul\n      dup1\n      calldatasize\n      dup4\n      calldatacopy\n      dup1\n      dup3\n      add\n      swap2\n      pop\n      pop\n      swap1\n      pop\n    tag_26:\n      pop\n        /* \"contracts/artifacts/C.sol\":341:372  uint[] memory x = new uint[](3) */\n      swap1\n      pop\n        /* \"contracts/artifacts/C.sol\":389:390  1 */\n      0x01\n        /* \"contracts/artifacts/C.sol\":382:383  x */\n      dup2\n        /* \"contracts/artifacts/C.sol\":384:385  0 */\n      0x00\n        /* \"contracts/artifacts/C.sol\":382:386  x[0] */\n      dup2\n      mload\n      dup2\n      lt\n      tag_27\n      jumpi\n      tag_28\n      tag_23\n      jump\t// in\n    tag_28:\n    tag_27:\n      0x20\n      mul\n      0x20\n      add\n      add\n        /* \"contracts/artifacts/C.sol\":382:390  x[0] = 1 */\n      dup2\n      dup2\n      mstore\n      pop\n      pop\n        /* \"contracts/artifacts/C.sol\":407:408  3 */\n      0x03\n        /* \"contracts/artifacts/C.sol\":400:401  x */\n      dup2\n        /* \"contracts/artifacts/C.sol\":402:403  1 */\n      0x01\n        /* \"contracts/artifacts/C.sol\":400:404  x[1] */\n      dup2\n      mload\n      dup2\n      lt\n      tag_29\n      jumpi\n      tag_30\n      tag_23\n      jump\t// in\n    tag_30:\n    tag_29:\n      0x20\n      mul\n      0x20\n      add\n      add\n        /* \"contracts/artifacts/C.sol\":400:408  x[1] = 3 */\n      dup2\n      dup2\n      mstore\n      pop\n      pop\n        /* \"contracts/artifacts/C.sol\":425:426  4 */\n      0x04\n        /* \"contracts/artifacts/C.sol\":418:419  x */\n      dup2\n        /* \"contracts/artifacts/C.sol\":420:421  2 */\n      0x02\n        /* \"contracts/artifacts/C.sol\":418:422  x[2] */\n      dup2\n      mload\n      dup2\n      lt\n      tag_31\n      jumpi\n      tag_32\n      tag_23\n      jump\t// in\n    tag_32:\n    tag_31:\n      0x20\n      mul\n      0x20\n      add\n      add\n        /* \"contracts/artifacts/C.sol\":418:426  x[2] = 4 */\n      dup2\n      dup2\n      mstore\n      pop\n      pop\n        /* \"contracts/artifacts/C.sol\":119:434  {... */\n      pop\n      pop\n      pop\n        /* \"contracts/artifacts/C.sol\":86:434  function f(uint len) public pure {... */\n      pop\n      jump\t// out\n        /* \"#utility.yul\":88:205   */\n    tag_34:\n        /* \"#utility.yul\":197:198   */\n      0x00\n        /* \"#utility.yul\":194:195   */\n      dup1\n        /* \"#utility.yul\":187:199   */\n      revert\n        /* \"#utility.yul\":334:411   */\n    tag_36:\n        /* \"#utility.yul\":371:378   */\n      0x00\n        /* \"#utility.yul\":400:405   */\n      dup2\n        /* \"#utility.yul\":389:405   */\n      swap1\n      pop\n        /* \"#utility.yul\":334:411   */\n      swap2\n      swap1\n      pop\n      jump\t// out\n        /* \"#utility.yul\":417:539   */\n    tag_37:\n        /* \"#utility.yul\":490:514   */\n      tag_45\n        /* \"#utility.yul\":508:513   */\n      dup2\n        /* \"#utility.yul\":490:514   */\n      tag_36\n      jump\t// in\n    tag_45:\n        /* \"#utility.yul\":483:488   */\n      dup2\n        /* \"#utility.yul\":480:515   */\n      eq\n        /* \"#utility.yul\":470:533   */\n      tag_46\n      jumpi\n        /* \"#utility.yul\":529:530   */\n      0x00\n        /* \"#utility.yul\":526:527   */\n      dup1\n        /* \"#utility.yul\":519:531   */\n      revert\n        /* \"#utility.yul\":470:533   */\n    tag_46:\n        /* \"#utility.yul\":417:539   */\n      pop\n      jump\t// out\n        /* \"#utility.yul\":545:684   */\n    tag_38:\n        /* \"#utility.yul\":591:596   */\n      0x00\n        /* \"#utility.yul\":629:635   */\n      dup2\n        /* \"#utility.yul\":616:636   */\n      calldataload\n        /* \"#utility.yul\":607:636   */\n      swap1\n      pop\n        /* \"#utility.yul\":645:678   */\n      tag_48\n        /* \"#utility.yul\":672:677   */\n      dup2\n        /* \"#utility.yul\":645:678   */\n      tag_37\n      jump\t// in\n    tag_48:\n        /* \"#utility.yul\":545:684   */\n      swap3\n      swap2\n      pop\n      pop\n      jump\t// out\n        /* \"#utility.yul\":690:1019   */\n    tag_6:\n        /* \"#utility.yul\":749:755   */\n      0x00\n        /* \"#utility.yul\":798:800   */\n      0x20\n        /* \"#utility.yul\":786:795   */\n      dup3\n        /* \"#utility.yul\":777:784   */\n      dup5\n        /* \"#utility.yul\":773:796   */\n      sub\n        /* \"#utility.yul\":769:801   */\n      slt\n        /* \"#utility.yul\":766:885   */\n      iszero\n      tag_50\n      jumpi\n        /* \"#utility.yul\":804:883   */\n      tag_51\n      tag_34\n      jump\t// in\n    tag_51:\n        /* \"#utility.yul\":766:885   */\n    tag_50:\n        /* \"#utility.yul\":924:925   */\n      0x00\n        /* \"#utility.yul\":949:1002   */\n      tag_52\n        /* \"#utility.yul\":994:1001   */\n      dup5\n        /* \"#utility.yul\":985:991   */\n      dup3\n        /* \"#utility.yul\":974:983   */\n      dup6\n        /* \"#utility.yul\":970:992   */\n      add\n        /* \"#utility.yul\":949:1002   */\n      tag_38\n      jump\t// in\n    tag_52:\n        /* \"#utility.yul\":939:1002   */\n      swap2\n      pop\n        /* \"#utility.yul\":895:1012   */\n      pop\n        /* \"#utility.yul\":690:1019   */\n      swap3\n      swap2\n      pop\n      pop\n      jump\t// out\n        /* \"#utility.yul\":1025:1205   */\n    tag_11:\n        /* \"#utility.yul\":1073:1150   */\n      0x4e487b7100000000000000000000000000000000000000000000000000000000\n        /* \"#utility.yul\":1070:1071   */\n      0x00\n        /* \"#utility.yul\":1063:1151   */\n      mstore\n        /* \"#utility.yul\":1170:1174   */\n      0x41\n        /* \"#utility.yul\":1167:1168   */\n      0x04\n        /* \"#utility.yul\":1160:1175   */\n      mstore\n        /* \"#utility.yul\":1194:1198   */\n      0x24\n        /* \"#utility.yul\":1191:1192   */\n      0x00\n        /* \"#utility.yul\":1184:1199   */\n      revert\n        /* \"#utility.yul\":1211:1391   */\n    tag_18:\n        /* \"#utility.yul\":1259:1336   */\n      0x4e487b7100000000000000000000000000000000000000000000000000000000\n        /* \"#utility.yul\":1256:1257   */\n      0x00\n        /* \"#utility.yul\":1249:1337   */\n      mstore\n        /* \"#utility.yul\":1356:1360   */\n      0x01\n        /* \"#utility.yul\":1353:1354   */\n      0x04\n        /* \"#utility.yul\":1346:1361   */\n      mstore\n        /* \"#utility.yul\":1380:1384   */\n      0x24\n        /* \"#utility.yul\":1377:1378   */\n      0x00\n        /* \"#utility.yul\":1370:1385   */\n      revert\n        /* \"#utility.yul\":1397:1577   */\n    tag_23:\n        /* \"#utility.yul\":1445:1522   */\n      0x4e487b7100000000000000000000000000000000000000000000000000000000\n        /* \"#utility.yul\":1442:1443   */\n      0x00\n        /* \"#utility.yul\":1435:1523   */\n      mstore\n        /* \"#utility.yul\":1542:1546   */\n      0x32\n        /* \"#utility.yul\":1539:1540   */\n      0x04\n        /* \"#utility.yul\":1532:1547   */\n      mstore\n        /* \"#utility.yul\":1566:1570   */\n      0x24\n        /* \"#utility.yul\":1563:1564   */\n      0x00\n        /* \"#utility.yul\":1556:1571   */\n      revert\n\n    auxdata: 0xa264697066735822122055c1b953d8c18aed27aa1a2a293cb598c72e0a09a671f147df0cc0dbebb2993664736f6c63430008120033\n}\n",
				"bytecode": {
					"linkReferences": {},
					"object": "608060405234801561001057600080fd5b50610315806100206000396000f3fe608060405234801561001057600080fd5b506004361061002b5760003560e01c8063b3de648b14610030575b600080fd5b61004a60048036038101906100459190610225565b61004c565b005b6000600767ffffffffffffffff81111561006957610068610252565b5b6040519080825280602002602001820160405280156100975781602001602082028036833780820191505090505b50905060008267ffffffffffffffff8111156100b6576100b5610252565b5b6040519080825280601f01601f1916602001820160405280156100e85781602001600182028036833780820191505090505b50905060078251146100fd576100fc610281565b5b8281511461010e5761010d610281565b5b600882600681518110610124576101236102b0565b5b6020026020010181815250506000600367ffffffffffffffff81111561014d5761014c610252565b5b60405190808252806020026020018201604052801561017b5781602001602082028036833780820191505090505b509050600181600081518110610194576101936102b0565b5b6020026020010181815250506003816001815181106101b6576101b56102b0565b5b6020026020010181815250506004816002815181106101d8576101d76102b0565b5b60200260200101818152505050505050565b600080fd5b6000819050919050565b610202816101ef565b811461020d57600080fd5b50565b60008135905061021f816101f9565b92915050565b60006020828403121561023b5761023a6101ea565b5b600061024984828501610210565b91505092915050565b7f4e487b7100000000000000000000000000000000000000000000000000000000600052604160045260246000fd5b7f4e487b7100000000000000000000000000000000000000000000000000000000600052600160045260246000fd5b7f4e487b7100000000000000000000000000000000000000000000000000000000600052603260045260246000fdfea264697066735822122055c1b953d8c18aed27aa1a2a293cb598c72e0a09a671f147df0cc0dbebb2993664736f6c63430008120033",
					"opcodes": "PUSH1 0x80 PUSH1 0x40 MSTORE CALLVALUE DUP1 ISZERO PUSH2 0x10 JUMPI PUSH1 0x0 DUP1 REVERT JUMPDEST POP PUSH2 0x315 DUP1 PUSH2 0x20 PUSH1 0x0 CODECOPY PUSH1 0x0 RETURN INVALID PUSH1 0x80 PUSH1 0x40 MSTORE CALLVALUE DUP1 ISZERO PUSH2 0x10 JUMPI PUSH1 0x0 DUP1 REVERT JUMPDEST POP PUSH1 0x4 CALLDATASIZE LT PUSH2 0x2B JUMPI PUSH1 0x0 CALLDATALOAD PUSH1 0xE0 SHR DUP1 PUSH4 0xB3DE648B EQ PUSH2 0x30 JUMPI JUMPDEST PUSH1 0x0 DUP1 REVERT JUMPDEST PUSH2 0x4A PUSH1 0x4 DUP1 CALLDATASIZE SUB DUP2 ADD SWAP1 PUSH2 0x45 SWAP2 SWAP1 PUSH2 0x225 JUMP JUMPDEST PUSH2 0x4C JUMP JUMPDEST STOP JUMPDEST PUSH1 0x0 PUSH1 0x7 PUSH8 0xFFFFFFFFFFFFFFFF DUP2 GT ISZERO PUSH2 0x69 JUMPI PUSH2 0x68 PUSH2 0x252 JUMP JUMPDEST JUMPDEST PUSH1 0x40 MLOAD SWAP1 DUP1 DUP3 MSTORE DUP1 PUSH1 0x20 MUL PUSH1 0x20 ADD DUP3 ADD PUSH1 0x40 MSTORE DUP1 ISZERO PUSH2 0x97 JUMPI DUP2 PUSH1 0x20 ADD PUSH1 0x20 DUP3 MUL DUP1 CALLDATASIZE DUP4 CALLDATACOPY DUP1 DUP3 ADD SWAP2 POP POP SWAP1 POP JUMPDEST POP SWAP1 POP PUSH1 0x0 DUP3 PUSH8 0xFFFFFFFFFFFFFFFF DUP2 GT ISZERO PUSH2 0xB6 JUMPI PUSH2 0xB5 PUSH2 0x252 JUMP JUMPDEST JUMPDEST PUSH1 0x40 MLOAD SWAP1 DUP1 DUP3 MSTORE DUP1 PUSH1 0x1F ADD PUSH1 0x1F NOT AND PUSH1 0x20 ADD DUP3 ADD PUSH1 0x40 MSTORE DUP1 ISZERO PUSH2 0xE8 JUMPI DUP2 PUSH1 0x20 ADD PUSH1 0x1 DUP3 MUL DUP1 CALLDATASIZE DUP4 CALLDATACOPY DUP1 DUP3 ADD SWAP2 POP POP SWAP1 POP JUMPDEST POP SWAP1 POP PUSH1 0x7 DUP3 MLOAD EQ PUSH2 0xFD JUMPI PUSH2 0xFC PUSH2 0x281 JUMP JUMPDEST JUMPDEST DUP3 DUP2 MLOAD EQ PUSH2 0x10E JUMPI PUSH2 0x10D PUSH2 0x281 JUMP JUMPDEST JUMPDEST PUSH1 0x8 DUP3 PUSH1 0x6 DUP2 MLOAD DUP2 LT PUSH2 0x124 JUMPI PUSH2 0x123 PUSH2 0x2B0 JUMP JUMPDEST JUMPDEST PUSH1 0x20 MUL PUSH1 0x20 ADD ADD DUP2 DUP2 MSTORE POP POP PUSH1 0x0 PUSH1 0x3 PUSH8 0xFFFFFFFFFFFFFFFF DUP2 GT ISZERO PUSH2 0x14D JUMPI PUSH2 0x14C PUSH2 0x252 JUMP JUMPDEST JUMPDEST PUSH1 0x40 MLOAD SWAP1 DUP1 DUP3 MSTORE DUP1 PUSH1 0x20 MUL PUSH1 0x20 ADD DUP3 ADD PUSH1 0x40 MSTORE DUP1 ISZERO PUSH2 0x17B JUMPI DUP2 PUSH1 0x20 ADD PUSH1 0x20 DUP3 MUL DUP1 CALLDATASIZE DUP4 CALLDATACOPY DUP1 DUP3 ADD SWAP2 POP POP SWAP1 POP JUMPDEST POP SWAP1 POP PUSH1 0x1 DUP2 PUSH1 0x0 DUP2 MLOAD DUP2 LT PUSH2 0x194 JUMPI PUSH2 0x193 PUSH2 0x2B0 JUMP JUMPDEST JUMPDEST PUSH1 0x20 MUL PUSH1 0x20 ADD ADD DUP2 DUP2 MSTORE POP POP PUSH1 0x3 DUP2 PUSH1 0x1 DUP2 MLOAD DUP2 LT PUSH2 0x1B6 JUMPI PUSH2 0x1B5 PUSH2 0x2B0 JUMP JUMPDEST JUMPDEST PUSH1 0x20 MUL PUSH1 0x20 ADD ADD DUP2 DUP2 MSTORE POP POP PUSH1 0x4 DUP2 PUSH1 0x2 DUP2 MLOAD DUP2 LT PUSH2 0x1D8 JUMPI PUSH2 0x1D7 PUSH2 0x2B0 JUMP JUMPDEST JUMPDEST PUSH1 0x20 MUL PUSH1 0x20 ADD ADD DUP2 DUP2 MSTORE POP POP POP POP POP POP JUMP JUMPDEST PUSH1 0x0 DUP1 REVERT JUMPDEST PUSH1 0x0 DUP2 SWAP1 POP SWAP2 SWAP1 POP JUMP JUMPDEST PUSH2 0x202 DUP2 PUSH2 0x1EF JUMP JUMPDEST DUP2 EQ PUSH2 0x20D JUMPI PUSH1 0x0 DUP1 REVERT JUMPDEST POP JUMP JUMPDEST PUSH1 0x0 DUP2 CALLDATALOAD SWAP1 POP PUSH2 0x21F DUP2 PUSH2 0x1F9 JUMP JUMPDEST SWAP3 SWAP2 POP POP JUMP JUMPDEST PUSH1 0x0 PUSH1 0x20 DUP3 DUP5 SUB SLT ISZERO PUSH2 0x23B JUMPI PUSH2 0x23A PUSH2 0x1EA JUMP JUMPDEST JUMPDEST PUSH1 0x0 PUSH2 0x249 DUP5 DUP3 DUP6 ADD PUSH2 0x210 JUMP JUMPDEST SWAP2 POP POP SWAP3 SWAP2 POP POP JUMP JUMPDEST PUSH32 0x4E487B7100000000000000000000000000000000000000000000000000000000 PUSH1 0x0 MSTORE PUSH1 0x41 PUSH1 0x4 MSTORE PUSH1 0x24 PUSH1 0x0 REVERT JUMPDEST PUSH32 0x4E487B7100000000000000000000000000000000000000000000000000000000 PUSH1 0x0 MSTORE PUSH1 0x1 PUSH1 0x4 MSTORE PUSH1 0x24 PUSH1 0x0 REVERT JUMPDEST PUSH32 0x4E487B7100000000000000000000000000000000000000000000000000000000 PUSH1 0x0 MSTORE PUSH1 0x32 PUSH1 0x4 MSTORE PUSH1 0x24 PUSH1 0x0 REVERT INVALID LOG2 PUSH5 0x6970667358 0x22 SLT KECCAK256 SSTORE 0xC1 0xB9 MSTORE8 0xD8 0xC1 DUP11 0xED 0x27 0xAA BYTE 0x2A 0x29 EXTCODECOPY 0xB5 SWAP9 0xC7 0x2E EXP MULMOD 0xA6 PUSH18 0xF147DF0CC0DBEBB2993664736F6C63430008 SLT STOP CALLER "
				},
				"gasEstimates": {
					"creation": {
						"codeDepositCost": "157800",
						"executionCost": "202",
						"totalCost": "158002"
					},
					"external": {
						"f(uint256)": "infinite"
					}
				},
				"methodIdentifiers": {
					"f(uint256)": "b3de648b"
				}
			},
			"storageLayout": {
				"storage": [],
				"types": null
			},
			"userdoc": {
				"kind": "user",
				"methods": {},
				"version": 1
			}
		}
	}
}