{
	"data": {
		"bytecode": {
			"linkReferences": {},
			"object": "608060405234801561000f575f80fd5b506103de8061001d5f395ff3fe608060405260043610610028575f3560e01c806326121ff01461002c578063e2179b8e1461004a575b5f80fd5b610034610054565b60405161004191906101d9565b60405180910390f35b6100526100b4565b005b5f3073ffffffffffffffffffffffffffffffffffffffff163073ffffffffffffffffffffffffffffffffffffffff1673ffffffffffffffffffffffffffffffffffffffff16146100a7576100a66101f2565b5b6326121ff060e01b905090565b7f848c208b5789d4fc33f0d1a0dcfab6bcc410f4e26da779f82b14cb9dc2888bf1345a6040516100e5929190610291565b60405180910390a13073ffffffffffffffffffffffffffffffffffffffff166326121ff061c3506103206040518363ffffffff1660e01b8152600401602060405180830381858988f115801561013d573d5f803e3d5ffd5b5050505050506040513d601f19601f8201168201806040525081019061016391906102f9565b507f848c208b5789d4fc33f0d1a0dcfab6bcc410f4e26da779f82b14cb9dc2888bf1345a60405161019592919061036e565b60405180910390a1565b5f7fffffffff0000000000000000000000000000000000000000000000000000000082169050919050565b6101d38161019f565b82525050565b5f6020820190506101ec5f8301846101ca565b92915050565b7f4e487b71000000000000000000000000000000000000000000000000000000005f52600160045260245ffd5b5f82825260208201905092915050565b7f4265666f72652063616c6c696e672066000000000000000000000000000000005f82015250565b5f61026360108361021f565b915061026e8261022f565b602082019050919050565b5f819050919050565b61028b81610279565b82525050565b5f6060820190508181035f8301526102a881610257565b90506102b76020830185610282565b6102c46040830184610282565b9392505050565b5f80fd5b6102d88161019f565b81146102e2575f80fd5b50565b5f815190506102f3816102cf565b92915050565b5f6020828403121561030e5761030d6102cb565b5b5f61031b848285016102e5565b91505092915050565b7f41667465722063616c6c696e67206600000000000000000000000000000000005f82015250565b5f610358600f8361021f565b915061036382610324565b602082019050919050565b5f6060820190508181035f8301526103858161034c565b90506103946020830185610282565b6103a16040830184610282565b939250505056fea2646970667358221220e883ea209dab2fd519b1c0d90a2dc36c51cfb8db578f16a5b281f2b824b458c464736f6c63430008160033",
			"opcodes": "PUSH1 0x80 PUSH1 0x40 MSTORE CALLVALUE DUP1 ISZERO PUSH2 0xF JUMPI PUSH0 DUP1 REVERT JUMPDEST POP PUSH2 0x3DE DUP1 PUSH2 0x1D PUSH0 CODECOPY PUSH0 RETURN INVALID PUSH1 0x80 PUSH1 0x40 MSTORE PUSH1 0x4 CALLDATASIZE LT PUSH2 0x28 JUMPI PUSH0 CALLDATALOAD PUSH1 0xE0 SHR DUP1 PUSH4 0x26121FF0 EQ PUSH2 0x2C JUMPI DUP1 PUSH4 0xE2179B8E EQ PUSH2 0x4A JUMPI JUMPDEST PUSH0 DUP1 REVERT JUMPDEST PUSH2 0x34 PUSH2 0x54 JUMP JUMPDEST PUSH1 0x40 MLOAD PUSH2 0x41 SWAP2 SWAP1 PUSH2 0x1D9 JUMP JUMPDEST PUSH1 0x40 MLOAD DUP1 SWAP2 SUB SWAP1 RETURN JUMPDEST PUSH2 0x52 PUSH2 0xB4 JUMP JUMPDEST STOP JUMPDEST PUSH0 ADDRESS PUSH20 0xFFFFFFFFFFFFFFFFFFFFFFFFFFFFFFFFFFFFFFFF AND ADDRESS PUSH20 0xFFFFFFFFFFFFFFFFFFFFFFFFFFFFFFFFFFFFFFFF AND PUSH20 0xFFFFFFFFFFFFFFFFFFFFFFFFFFFFFFFFFFFFFFFF AND EQ PUSH2 0xA7 JUMPI PUSH2 0xA6 PUSH2 0x1F2 JUMP JUMPDEST JUMPDEST PUSH4 0x26121FF0 PUSH1 0xE0 SHL SWAP1 POP SWAP1 JUMP JUMPDEST PUSH32 0x848C208B5789D4FC33F0D1A0DCFAB6BCC410F4E26DA779F82B14CB9DC2888BF1 CALLVALUE GAS PUSH1 0x40 MLOAD PUSH2 0xE5 SWAP3 SWAP2 SWAP1 PUSH2 0x291 JUMP JUMPDEST PUSH1 0x40 MLOAD DUP1 SWAP2 SUB SWAP1 LOG1 ADDRESS PUSH20 0xFFFFFFFFFFFFFFFFFFFFFFFFFFFFFFFFFFFFFFFF AND PUSH4 0x26121FF0 PUSH2 0xC350 PUSH2 0x320 PUSH1 0x40 MLOAD DUP4 PUSH4 0xFFFFFFFF AND PUSH1 0xE0 SHL DUP2 MSTORE PUSH1 0x4 ADD PUSH1 0x20 PUSH1 0x40 MLOAD DUP1 DUP4 SUB DUP2 DUP6 DUP10 DUP9 CALL ISZERO DUP1 ISZERO PUSH2 0x13D JUMPI RETURNDATASIZE PUSH0 DUP1 RETURNDATACOPY RETURNDATASIZE PUSH0 REVERT JUMPDEST POP POP POP POP POP POP PUSH1 0x40 MLOAD RETURNDATASIZE PUSH1 0x1F NOT PUSH1 0x1F DUP3 ADD AND DUP3 ADD DUP1 PUSH1 0x40 MSTORE POP DUP2 ADD SWAP1 PUSH2 0x163 SWAP2 SWAP1 PUSH2 0x2F9 JUMP JUMPDEST POP PUSH32 0x848C208B5789D4FC33F0D1A0DCFAB6BCC410F4E26DA779F82B14CB9DC2888BF1 CALLVALUE GAS PUSH1 0x40 MLOAD PUSH2 0x195 SWAP3 SWAP2 SWAP1 PUSH2 0x36E JUMP JUMPDEST PUSH1 0x40 MLOAD DUP1 SWAP2 SUB SWAP1 LOG1 JUMP JUMPDEST PUSH0 PUSH32 0xFFFFFFFF00000000000000000000000000000000000000000000000000000000 DUP3 AND SWAP1 POP SWAP2 SWAP1 POP JUMP JUMPDEST PUSH2 0x1D3 DUP2 PUSH2 0x19F JUMP JUMPDEST DUP3 MSTORE POP POP JUMP JUMPDEST PUSH0 PUSH1 0x20 DUP3 ADD SWAP1 POP PUSH2 0x1EC PUSH0 DUP4 ADD DUP5 PUSH2 0x1CA JUMP JUMPDEST SWAP3 SWAP2 POP POP JUMP JUMPDEST PUSH32 0x4E487B7100000000000000000000000000000000000000000000000000000000 PUSH0 MSTORE PUSH1 0x1 PUSH1 0x4 MSTORE PUSH1 0x24 PUSH0 REVERT JUMPDEST PUSH0 DUP3 DUP3 MSTORE PUSH1 0x20 DUP3 ADD SWAP1 POP SWAP3 SWAP2 POP POP JUMP JUMPDEST PUSH32 0x4265666F72652063616C6C696E67206600000000000000000000000000000000 PUSH0 DUP3 ADD MSTORE POP JUMP JUMPDEST PUSH0 PUSH2 0x263 PUSH1 0x10 DUP4 PUSH2 0x21F JUMP JUMPDEST SWAP2 POP PUSH2 0x26E DUP3 PUSH2 0x22F JUMP JUMPDEST PUSH1 0x20 DUP3 ADD SWAP1 POP SWAP2 SWAP1 POP JUMP JUMPDEST PUSH0 DUP2 SWAP1 POP SWAP2 SWAP1 POP JUMP JUMPDEST PUSH2 0x28B DUP2 PUSH2 0x279 JUMP JUMPDEST DUP3 MSTORE POP POP JUMP JUMPDEST PUSH0 PUSH1 0x60 DUP3 ADD SWAP1 POP DUP2 DUP2 SUB PUSH0 DUP4 ADD MSTORE PUSH2 0x2A8 DUP2 PUSH2 0x257 JUMP JUMPDEST SWAP1 POP PUSH2 0x2B7 PUSH1 0x20 DUP4 ADD DUP6 PUSH2 0x282 JUMP JUMPDEST PUSH2 0x2C4 PUSH1 0x40 DUP4 ADD DUP5 PUSH2 0x282 JUMP JUMPDEST SWAP4 SWAP3 POP POP POP JUMP JUMPDEST PUSH0 DUP1 REVERT JUMPDEST PUSH2 0x2D8 DUP2 PUSH2 0x19F JUMP JUMPDEST DUP2 EQ PUSH2 0x2E2 JUMPI PUSH0 DUP1 REVERT JUMPDEST POP JUMP JUMPDEST PUSH0 DUP2 MLOAD SWAP1 POP PUSH2 0x2F3 DUP2 PUSH2 0x2CF JUMP JUMPDEST SWAP3 SWAP2 POP POP JUMP JUMPDEST PUSH0 PUSH1 0x20 DUP3 DUP5 SUB SLT ISZERO PUSH2 0x30E JUMPI PUSH2 0x30D PUSH2 0x2CB JUMP JUMPDEST JUMPDEST PUSH0 PUSH2 0x31B DUP5 DUP3 DUP6 ADD PUSH2 0x2E5 JUMP JUMPDEST SWAP2 POP POP SWAP3 SWAP2 POP POP JUMP JUMPDEST PUSH32 0x41667465722063616C6C696E6720660000000000000000000000000000000000 PUSH0 DUP3 ADD MSTORE POP JUMP JUMPDEST PUSH0 PUSH2 0x358 PUSH1 0xF DUP4 PUSH2 0x21F JUMP JUMPDEST SWAP2 POP PUSH2 0x363 DUP3 PUSH2 0x324 JUMP JUMPDEST PUSH1 0x20 DUP3 ADD SWAP1 POP SWAP2 SWAP1 POP JUMP JUMPDEST PUSH0 PUSH1 0x60 DUP3 ADD SWAP1 POP DUP2 DUP2 SUB PUSH0 DUP4 ADD MSTORE PUSH2 0x385 DUP2 PUSH2 0x34C JUMP JUMPDEST SWAP1 POP PUSH2 0x394 PUSH1 0x20 DUP4 ADD DUP6 PUSH2 0x282 JUMP JUMPDEST PUSH2 0x3A1 PUSH1 0x40 DUP4 ADD DUP5 PUSH2 0x282 JUMP JUMPDEST SWAP4 SWAP3 POP POP POP JUMP INVALID LOG2 PUSH5 0x6970667358 0x22 SLT KECCAK256 0xE8 DUP4 0xEA KECCAK256 SWAP14 0xAB 0x2F 0xD5 NOT 0xB1 0xC0 0xD9 EXP 0x2D 0xC3 PUSH13 0x51CFB8DB578F16A5B281F2B824 0xB4 PC 0xC4 PUSH5 0x736F6C6343 STOP ADDMOD AND STOP CALLER "
		},
		"gasEstimates": {
			"creation": {
				"codeDepositCost": "198000",
				"executionCost": "236",
				"totalCost": "198236"
			},
			"external": {
				"f()": "337",
				"g()": "infinite"
			}
		},
		"methodIdentifiers": {
			"f()": "26121ff0",
			"g()": "e2179b8e"
		}
	},
	"abi": [
		{
			"anonymous": false,
			"inputs": [
				{
					"indexed": false,
					"internalType": "string",
					"name": "message",
					"type": "string"
				},
				{
					"indexed": false,
					"internalType": "uint256",
					"name": "value",
					"type": "uint256"
				},
				{
					"indexed": false,
					"internalType": "uint256",
					"name": "gasLeft",
					"type": "uint256"
				}
			],
			"name": "Debug",
			"type": "event"
		},
		{
			"inputs": [],
			"name": "f",
			"outputs": [
				{
					"internalType": "bytes4",
					"name": "",
					"type": "bytes4"
				}
			],
			"stateMutability": "payable",
			"type": "function"
		},
		{
			"inputs": [],
			"name": "g",
			"outputs": [],
			"stateMutability": "payable",
			"type": "function"
		}
	]
}